{"contracts/BlockTickHandler.sol":{"BlockTickHandler":{"abi":[{"inputs":[],"name":"OnlyReactivityPrecompile","type":"error"},{"anonymous":false,"inputs":[{"indexed":false,"internalType":"uint256","name":"blockNumber","type":"uint256"},{"indexed":false,"internalType":"uint256","name":"timestamp","type":"uint256"}],"name":"BlockTick","type":"event"},{"inputs":[{"internalType":"address","name":"emitter","type":"address"},{"internalType":"bytes32[]","name":"eventTopics","type":"bytes32[]"},{"internalType":"bytes","name":"data","type":"bytes"}],"name":"onEvent","outputs":[],"stateMutability":"nonpayable","type":"function"},{"inputs":[{"internalType":"bytes4","name":"interfaceId","type":"bytes4"}],"name":"supportsInterface","outputs":[{"internalType":"bool","name":"","type":"bool"}],"stateMutability":"pure","type":"function"}],"evm":{"bytecode":{"linkReferences":{},"object":"608080604052346015576101ae908161001b8239f35b600080fdfe608080604052600436101561001357600080fd5b60003560e01c90816301ffc9a71461012557506353edf33d1461003557600080fd5b34610120576060366003190112610120576004356001600160a01b038116036101205760243567ffffffffffffffff811161012057366023820112156101205780600401359067ffffffffffffffff821161012057602490369260051b0101116101205760443567ffffffffffffffff8111610120573660238201121561012057806004013567ffffffffffffffff8111610120573691016024011161012057610100330361010f577f77ae751da2d1162bd52eb8540abd08c6258f51ad1d9753d8a5b0706089acea6c60408051438152426020820152a1005b63191fbb7560e01b60005260046000fd5b600080fd5b34610120576020366003190112610120576004359063ffffffff60e01b8216809203610120576020916301ffc9a760e01b8114908115610167575b5015158152f35b6353edf33d60e01b1490508361016056fea26469706673582212204665651fac3c0736bf5033a198ca92f469d1a9dcbbfd5ffe43d0df999188cc7864736f6c634300081e0033","opcodes":"PUSH1 0x80 DUP1 PUSH1 0x40 MSTORE CALLVALUE PUSH1 0x15 JUMPI PUSH2 0x1AE SWAP1 DUP2 PUSH2 0x1B DUP3 CODECOPY RETURN JUMPDEST PUSH1 0x0 DUP1 REVERT INVALID PUSH1 0x80 DUP1 PUSH1 0x40 MSTORE PUSH1 0x4 CALLDATASIZE LT ISZERO PUSH2 0x13 JUMPI PUSH1 0x0 DUP1 REVERT JUMPDEST PUSH1 0x0 CALLDATALOAD PUSH1 0xE0 SHR SWAP1 DUP2 PUSH4 0x1FFC9A7 EQ PUSH2 0x125 JUMPI POP PUSH4 0x53EDF33D EQ PUSH2 0x35 JUMPI PUSH1 0x0 DUP1 REVERT JUMPDEST CALLVALUE PUSH2 0x120 JUMPI PUSH1 0x60 CALLDATASIZE PUSH1 0x3 NOT ADD SLT PUSH2 0x120 JUMPI PUSH1 0x4 CALLDATALOAD PUSH1 0x1 PUSH1 0x1 PUSH1 0xA0 SHL SUB DUP2 AND SUB PUSH2 0x120 JUMPI PUSH1 0x24 CALLDATALOAD PUSH8 0xFFFFFFFFFFFFFFFF DUP2 GT PUSH2 0x120 JUMPI CALLDATASIZE PUSH1 0x23 DUP3 ADD SLT ISZERO PUSH2 0x120 JUMPI DUP1 PUSH1 0x4 ADD CALLDATALOAD SWAP1 PUSH8 0xFFFFFFFFFFFFFFFF DUP3 GT PUSH2 0x120 JUMPI PUSH1 0x24 SWAP1 CALLDATASIZE SWAP3 PUSH1 0x5 SHL ADD ADD GT PUSH2 0x120 JUMPI PUSH1 0x44 CALLDATALOAD PUSH8 0xFFFFFFFFFFFFFFFF DUP2 GT PUSH2 0x120 JUMPI CALLDATASIZE PUSH1 0x23 DUP3 ADD SLT ISZERO PUSH2 0x120 JUMPI DUP1 PUSH1 0x4 ADD CALLDATALOAD PUSH8 0xFFFFFFFFFFFFFFFF DUP2 GT PUSH2 0x120 JUMPI CALLDATASIZE SWAP2 ADD PUSH1 0x24 ADD GT PUSH2 0x120 JUMPI PUSH2 0x100 CALLER SUB PUSH2 0x10F JUMPI PUSH32 0x77AE751DA2D1162BD52EB8540ABD08C6258F51AD1D9753D8A5B0706089ACEA6C PUSH1 0x40 DUP1 MLOAD NUMBER DUP2 MSTORE TIMESTAMP PUSH1 0x20 DUP3 ADD MSTORE LOG1 STOP JUMPDEST PUSH4 0x191FBB75 PUSH1 0xE0 SHL PUSH1 0x0 MSTORE PUSH1 0x4 PUSH1 0x0 REVERT JUMPDEST PUSH1 0x0 DUP1 REVERT JUMPDEST CALLVALUE PUSH2 0x120 JUMPI PUSH1 0x20 CALLDATASIZE PUSH1 0x3 NOT ADD SLT PUSH2 0x120 JUMPI PUSH1 0x4 CALLDATALOAD SWAP1 PUSH4 0xFFFFFFFF PUSH1 0xE0 SHL DUP3 AND DUP1 SWAP3 SUB PUSH2 0x120 JUMPI PUSH1 0x20 SWAP2 PUSH4 0x1FFC9A7 PUSH1 0xE0 SHL DUP2 EQ SWAP1 DUP2 ISZERO PUSH2 0x167 JUMPI JUMPDEST POP ISZERO ISZERO DUP2 MSTORE RETURN JUMPDEST PUSH4 0x53EDF33D PUSH1 0xE0 SHL EQ SWAP1 POP DUP4 PUSH2 0x160 JUMP INVALID LOG2 PUSH5 0x6970667358 0x22 SLT KECCAK256 CHAINID PUSH6 0x651FAC3C0736 0xBF POP CALLER LOG1 SWAP9 0xCA SWAP3 DELEGATECALL PUSH10 0xD1A9DCBBFD5FFE43D0DF SWAP10 SWAP2 DUP9 0xCC PUSH25 0x64736F6C634300081E00330000000000000000000000000000 "},"methodIdentifiers":{"onEvent(address,bytes32[],bytes)":"53edf33d","supportsInterface(bytes4)":"01ffc9a7"}}}}}