{"contracts/BrimdexParimutuelOrderBook.sol":{"BrimdexParimutuelOrderBook":{"abi":[{"inputs":[{"internalType":"address","name":"_collateralToken","type":"address"},{"internalType":"address","name":"_marketFactory","type":"address"},{"internalType":"address","name":"_owner","type":"address"}],"stateMutability":"nonpayable","type":"constructor"},{"inputs":[{"internalType":"address","name":"owner","type":"address"}],"name":"OwnableInvalidOwner","type":"error"},{"inputs":[{"internalType":"address","name":"account","type":"address"}],"name":"OwnableUnauthorizedAccount","type":"error"},{"inputs":[{"internalType":"address","name":"token","type":"address"}],"name":"SafeERC20FailedOperation","type":"error"},{"anonymous":false,"inputs":[{"indexed":true,"internalType":"address","name":"market","type":"address"},{"indexed":true,"internalType":"address","name":"token","type":"address"},{"indexed":true,"internalType":"address","name":"user","type":"address"},{"indexed":false,"internalType":"uint256","name":"price","type":"uint256"},{"indexed":false,"internalType":"bytes32","name":"orderId","type":"bytes32"}],"name":"OrderCancelled","type":"event"},{"anonymous":false,"inputs":[{"indexed":true,"internalType":"address","name":"market","type":"address"},{"indexed":true,"internalType":"address","name":"token","type":"address"},{"indexed":true,"internalType":"address","name":"maker","type":"address"},{"indexed":false,"internalType":"address","name":"taker","type":"address"},{"indexed":false,"internalType":"uint256","name":"price","type":"uint256"},{"indexed":false,"internalType":"uint256","name":"amount","type":"uint256"}],"name":"OrderMatched","type":"event"},{"anonymous":false,"inputs":[{"indexed":true,"internalType":"address","name":"market","type":"address"},{"indexed":true,"internalType":"address","name":"token","type":"address"},{"indexed":true,"internalType":"address","name":"user","type":"address"},{"indexed":false,"internalType":"uint256","name":"price","type":"uint256"},{"indexed":false,"internalType":"uint256","name":"amount","type":"uint256"},{"indexed":false,"internalType":"bytes32","name":"orderId","type":"bytes32"},{"indexed":false,"internalType":"bool","name":"isBuy","type":"bool"}],"name":"OrderPlaced","type":"event"},{"anonymous":false,"inputs":[{"indexed":true,"internalType":"address","name":"previousOwner","type":"address"},{"indexed":true,"internalType":"address","name":"newOwner","type":"address"}],"name":"OwnershipTransferred","type":"event"},{"inputs":[],"name":"accumulatedFee","outputs":[{"internalType":"uint256","name":"","type":"uint256"}],"stateMutability":"view","type":"function"},{"inputs":[{"internalType":"address","name":"","type":"address"},{"internalType":"address","name":"","type":"address"},{"internalType":"uint256","name":"","type":"uint256"}],"name":"buyOrderBook","outputs":[{"internalType":"uint256","name":"length","type":"uint256"},{"internalType":"bytes32","name":"head","type":"bytes32"},{"internalType":"bytes32","name":"tail","type":"bytes32"}],"stateMutability":"view","type":"function"},{"inputs":[{"internalType":"address","name":"market","type":"address"},{"internalType":"address","name":"token","type":"address"},{"internalType":"uint256","name":"price","type":"uint256"},{"internalType":"bytes32","name":"orderId","type":"bytes32"}],"name":"cancelBuyOrder","outputs":[],"stateMutability":"nonpayable","type":"function"},{"inputs":[{"internalType":"address","name":"market","type":"address"},{"internalType":"address","name":"token","type":"address"},{"internalType":"uint256","name":"price","type":"uint256"},{"internalType":"bytes32","name":"orderId","type":"bytes32"}],"name":"cancelSellOrder","outputs":[],"stateMutability":"nonpayable","type":"function"},{"inputs":[],"name":"collateralToken","outputs":[{"internalType":"contract IERC20","name":"","type":"address"}],"stateMutability":"view","type":"function"},{"inputs":[],"name":"collectFees","outputs":[],"stateMutability":"nonpayable","type":"function"},{"inputs":[],"name":"feeRate","outputs":[{"internalType":"uint16","name":"","type":"uint16"}],"stateMutability":"view","type":"function"},{"inputs":[{"internalType":"address","name":"market","type":"address"},{"internalType":"address","name":"token","type":"address"}],"name":"getBestAsk","outputs":[{"internalType":"uint256","name":"","type":"uint256"}],"stateMutability":"view","type":"function"},{"inputs":[{"internalType":"address","name":"market","type":"address"},{"internalType":"address","name":"token","type":"address"}],"name":"getBestBid","outputs":[{"internalType":"uint256","name":"","type":"uint256"}],"stateMutability":"view","type":"function"},{"inputs":[],"name":"marketFactory","outputs":[{"internalType":"contract BrimdexParimutuelMarketFactory","name":"","type":"address"}],"stateMutability":"view","type":"function"},{"inputs":[],"name":"owner","outputs":[{"internalType":"address","name":"","type":"address"}],"stateMutability":"view","type":"function"},{"inputs":[{"internalType":"address","name":"market","type":"address"},{"internalType":"address","name":"token","type":"address"},{"internalType":"uint256","name":"price","type":"uint256"},{"internalType":"uint256","name":"amount","type":"uint256"}],"name":"placeBuyOrder","outputs":[{"internalType":"bytes32","name":"orderId","type":"bytes32"}],"stateMutability":"nonpayable","type":"function"},{"inputs":[{"internalType":"address","name":"market","type":"address"},{"internalType":"address","name":"token","type":"address"},{"internalType":"uint256","name":"price","type":"uint256"},{"internalType":"uint256","name":"amount","type":"uint256"}],"name":"placeSellOrder","outputs":[{"internalType":"bytes32","name":"orderId","type":"bytes32"}],"stateMutability":"nonpayable","type":"function"},{"inputs":[],"name":"renounceOwnership","outputs":[],"stateMutability":"nonpayable","type":"function"},{"inputs":[{"internalType":"address","name":"","type":"address"},{"internalType":"address","name":"","type":"address"},{"internalType":"uint256","name":"","type":"uint256"}],"name":"sellOrderBook","outputs":[{"internalType":"uint256","name":"length","type":"uint256"},{"internalType":"bytes32","name":"head","type":"bytes32"},{"internalType":"bytes32","name":"tail","type":"bytes32"}],"stateMutability":"view","type":"function"},{"inputs":[{"internalType":"uint16","name":"_feeRate","type":"uint16"}],"name":"setFeeRate","outputs":[],"stateMutability":"nonpayable","type":"function"},{"inputs":[{"internalType":"address","name":"newOwner","type":"address"}],"name":"transferOwnership","outputs":[],"stateMutability":"nonpayable","type":"function"}],"evm":{"bytecode":{"linkReferences":{"contracts/libraries/OrderBookLinkedList.sol":{"OrderBookLinkedList":[{"length":20,"start":1506},{"length":20,"start":2209},{"length":20,"start":2902},{"length":20,"start":3408},{"length":20,"start":4248},{"length":20,"start":4950},{"length":20,"start":5524},{"length":20,"start":6137}]}},"object":"60c03461012e57601f6123ea38819003918201601f19168301916001600160401b038311848410176101335780849260609460405283398101031261012e5761004781610149565b9061005460208201610149565b906001600160a01b039061006a90604001610149565b1680156101185760005491604051938260018060a01b0385167f8be0079c531659141344cd1fd0a4f28419497f9722a3daafe3b4186f6b6457e0600080a36001600160a01b039081166080521660a0526001600160b01b031990911617601960a11b1760005561228c908161015e82396080518181816101b7015281816102270152818161037b01528181610ec70152611275015260a0518181816102910152818161102a01526117fa0152f35b631e4fbdf760e01b600052600060045260246000fd5b600080fd5b634e487b7160e01b600052604160045260246000fd5b51906001600160a01b038216820361012e5756fe608080604052600436101561001357600080fd5b60003560e01c90816306ae7095146117e7575080630933b2ae1461178657806310d16b5914610fef578063117c0bc014610e4557806329ff077314610dbf5780634926819114610d625780635671eed214610d36578063715018a614610cdd5780638da5cb5b14610cb4578063978bbdb914610c8f57806399db37c514610b19578063a05118c214610256578063b2016bd414610211578063b9f8b5aa146101dd578063c879657214610186578063f2fde38b146100fd5763f8ce3164146100da57600080fd5b346100f85760003660031901126100f8576020600154604051908152f35b600080fd5b346100f85760203660031901126100f857610116611829565b61011e6120f2565b6001600160a01b0316801561017057600080546001600160a01b03198116831782556001600160a01b0316907f8be0079c531659141344cd1fd0a4f28419497f9722a3daafe3b4186f6b6457e09080a3005b631e4fbdf760e01b600052600060045260246000fd5b346100f85760003660031901126100f85761019f6120f2565b6101db600154600060015560018060a01b03600054167f0000000000000000000000000000000000000000000000000000000000000000611db3565b005b346100f85760403660031901126100f85760206102096101fb611829565b61020361183f565b90611bc3565b604051908152f35b346100f85760003660031901126100f8576040517f00000000000000000000000000000000000000000000000000000000000000006001600160a01b03168152602090f35b346100f8576102643661188f565b6040516337649a6d60e11b81526001600160a01b03808616600483018190529495600095939490939290917f00000000000000000000000000000000000000000000000000000000000000001690602081602481855afa8015610591576102d391600091610afa575b50611923565b60405163b9249f2160e01b81526004810184905290602082602481845afa91821561059157600092610ad9575b506001600160a01b03888116921682148015610a68575b610321915061197f565b61032c8215156119cb565b610337851515611a0b565b610375620f42406103488488611ba3565b0461271061035f61ffff60005460a01c1683611ba3565b049061036d82600154611bb6565b600155611bb6565b946103a37f000000000000000000000000000000000000000000000000000000000000000096303389611c55565b92806000526002602052604060002082600052602052604060002083600052602052604060002054966000945b88861080610a5f575b156106a4576000838152600260208181526040808420888552825280842089855282528084206001808201548087526003909201909352932091820154929392916104249101611a4c565b918686898d85851061059d5750620f42409250610442915084611ba3565b04928660005260026020526040806000206000908a8252602052208960005260205260406000206040519063b3d3fb9d60e01b8252600482015260208160248173__$c4a3267dc0ad9004dd41e6a27ff0e111ab$__5af4948515610591578f8b6104ed918f6104e761055f9b8f8f906040916105099a6105599f610565575b5060005260046020528160002060009182526020522060018060a01b038a511690611dee565b50612011565b6104f885338c611db3565b82516001600160a01b03168e611db3565b5160408051338152602081018b90529081018490526001600160a01b0390911690889088907f3cbbc8402f36c579ec0a401deda27129168a12e63fcc158db749aa8beb3b037990606090a4611caf565b95611ca0565b946103d0565b6105859060203d811161058a575b61057d81836118e9565b81019061190b565b6104c1565b503d610573565b6040513d6000823e3d90fd5b61069693969295509061066c9161064f86809a620f42406105df867f3cbbc8402f36c579ec0a401deda27129168a12e63fcc158db749aa8beb3b03799b611ba3565b04948a600052600260205260408c81600020600091825260205220906000526020526003604060002001816000526020526002604060002001610623838254611caf565b905560008a81526004602090815260408083208e8452909152902087516001600160a01b031690612176565b5061065b89338a611db3565b83516001600160a01b031690611db3565b5160408051338152602081018c9052908101969096526001600160a01b0316949081906060820190565b0390a461055f600095611ca0565b8484826106b7575b602084604051908152f35b90919250620f42406106c98385611ba3565b0493806000526003602052604060002082600052602052604060002083600052602052604060002054156000146109ab57600081815260036020908152604080832085845282528083208684528252918290209151630ede5d8760e31b81526004810192909252336024830152604482018790528160648173__$c4a3267dc0ad9004dd41e6a27ff0e111ab$__5af490811561059157600091610979575b509381600052600860205260406000208360005260205260406000208460005260205260ff6040600020541615610807575b6107c16020965b83600052600588526040600020856000528852858760406000203390611d0e565b5060405193845285840152836040840152600160608401527f08df2dfcfaa1d4b132f1ade3fb5f295ce8fa7d2257abef9845734f54d254a77060803394a48280806106ac565b939291908060005260086020526040600020826000526020526040600020836000526020526040600020600160ff1982541617905580600052600760205260408060002060009084825260205220946000958054965b87811080610960575b156108795761087490611ca0565b61085d565b919293949596508054600160401b81101561094a5780600161089e9201835582611ac2565b8154906000199060031b1b1916905580546000198101908111610934575b8281116108f9575096856108ef6108d86107c19460209b611ac2565b819391549060031b91821b91600019901b19161790565b9055965050610799565b60001981018181116109345761090f9083611ac2565b90549060031b1c6109236108d88385611ac2565b9055801561093457600019016108bc565b634e487b7160e01b600052601160045260246000fd5b634e487b7160e01b600052604160045260246000fd5b508561096c8284611ac2565b90549060031b1c11610866565b90506020813d6020116109a3575b81610994602093836118e9565b810103126100f8575186610767565b3d9150610987565b6000818152600360209081526040808320858452825280832086845282529182902091516350fe157760e01b8152600481019290925233602483015260448201879052909594908660648173__$c4a3267dc0ad9004dd41e6a27ff0e111ab$__5af495861561059157600096610a29575b506107c1602096956107a0565b95506020863d602011610a57575b81610a44602093836118e9565b810103126100f8579451946107c1610a1c565b3d9150610a37565b508015156103d9565b506020602491604051928380926331198cab60e21b82528860048301525afa80156105915761032191600091610aaa575b506001600160a01b03168214610317565b610acc915060203d602011610ad2575b610ac481836118e9565b810190611960565b89610a99565b503d610aba565b610af391925060203d602011610ad257610ac481836118e9565b9088610300565b610b13915060203d60201161058a5761057d81836118e9565b896102cd565b346100f857610b273661188f565b60018060a0959493951b03831691826000526002602052604060002060018060a01b038216600052602052604060002085600052602052600360406000200182600052602052610b7d6001604060002001611a4c565b93610b9260018060a01b038651163314611a84565b610baa602060018060a01b0384169601513387611db3565b83600052600260205260406000208560005260205260406000208660005260205260406000209160405192632014b08b60e21b8452600484015283602484015260208360448173__$c4a3267dc0ad9004dd41e6a27ff0e111ab$__5af491821561059157610c3f938893610c72575b508560005260046020526040600020876000526020526104e78560406000203390611dee565b60405193845260208401527f4d808958216860d10b60c5927cdbbcff69e2318be11e150596eae39dc0d8ea1860403394a4005b610c8a9060203d60201161058a5761057d81836118e9565b610c19565b346100f85760003660031901126100f857602061ffff60005460a01c16604051908152f35b346100f85760003660031901126100f8576000546040516001600160a01b039091168152602090f35b346100f85760003660031901126100f857610cf66120f2565b600080546001600160a01b0319811682556001600160a01b03167f8be0079c531659141344cd1fd0a4f28419497f9722a3daafe3b4186f6b6457e08280a3005b346100f85760403660031901126100f8576020610209610d54611829565b610d5c61183f565b90611af0565b346100f857610d7036611855565b6001600160a01b03928316600090815260026020818152604080842095909616835293845284822092825291835283902080546001820154919092015484519283529282015291820152606090f35b346100f85760203660031901126100f85760043561ffff81168082036100f8576103e890610deb6120f2565b11610e11576000805461ffff60a01b191660a09290921b61ffff60a01b16919091179055005b60405162461bcd60e51b815260206004820152600c60248201526b08ccaca40e8dede40d0d2ced60a31b6044820152606490fd5b346100f857610e533661188f565b60018060a0959394951b03821691826000526003602052604060002060018060a01b038616600052602052604060002084600052602052600360406000200182600052602052610eeb6020610eae6001604060002001611a4c565b610ec260018060a01b038251163314611a84565b0151337f0000000000000000000000000000000000000000000000000000000000000000611db3565b826000526003602052604060002060018060a01b038616600052602052604060002084600052602052604060002060405190632014b08b60e21b8252600482015282602482015260208160448173__$c4a3267dc0ad9004dd41e6a27ff0e111ab$__5af4801561059157610f969286928892610fd2575b50856000526005602052604060002060018060a01b038316600052602052610f908560406000203390611dee565b50611f37565b60405192835260208301527f4d808958216860d10b60c5927cdbbcff69e2318be11e150596eae39dc0d8ea186040339460018060a01b031693a4005b610fea9060203d60201161058a5761057d81836118e9565b610f62565b346100f857610ffd3661188f565b6040516337649a6d60e11b81526001600160a01b03808616600483018190529495600095939490939290917f00000000000000000000000000000000000000000000000000000000000000001690602081602481855afa80156105915761106b91600091610afa5750611923565b60405163b9249f2160e01b81526004810184905290602082602481845afa91821561059157600092611765575b506001600160a01b03888116921682148015611704575b6110b9915061197f565b8115946110c686156119cb565b6110d1811515611a0b565b6110dd81303385611c55565b92806000526003602052604060002082600052602052604060002083600052602052604060002054966000945b888610806116fb575b156113a75760008381526003602081815260408084208885528252808420898552825280842060018101548086529301909152909120600201549091620f42408083029083820414831517156109345760008b61139357508790049085600052600360205260408060002060009089825260205220886000526020526003604060002001846000526020526111ae6001604060002001611a4c565b87878484106112bb57905060005260036020526040806000206000908a8252602052208960005260205260406000206040519063b3d3fb9d60e01b8252600482015260208160248173__$c4a3267dc0ad9004dd41e6a27ff0e111ab$__5af4948515610591578f8b61125b918f610f906112999b8f8f906040916105099a6105599f61129f575b5060005260056020528160002060009182526020522060018060a01b038a511690611dee565b82516112729086906001600160a01b03168c611db3565b337f0000000000000000000000000000000000000000000000000000000000000000611db3565b9461110a565b6112b69060203d811161058a5761057d81836118e9565b611235565b935093506113859061066c839661136d8c620f42406112fb827f3cbbc8402f36c579ec0a401deda27129168a12e63fcc158db749aa8beb3b037999611ba3565b049283918960005260036020526040806000206000908d825260205220906000526020526003604060002001816000526020526002604060002001611341838254611caf565b905560008981526005602090815260408083208d8452909152902086516001600160a01b031690612176565b5082516112729089906001600160a01b031689611db3565b0390a4611299600095611ca0565b634e487b7160e01b81526012600452602490fd5b939092846113ba57602084604051908152f35b909180935060005260026020526040600020816000526020526040600020826000526020526040600020541560001461164e57600083815260026020908152604080832084845282528083208584528252918290209151630ede5d8760e31b81526004810192909252336024830152604482018690528160648173__$c4a3267dc0ad9004dd41e6a27ff0e111ab$__5af49081156105915760009161161c575b509280600052600860205260406000208260005260205260406000208360005260205260ff60406000205416156114fb575b6020945b816000526004865260406000208360005286526114b581858760406000203390611d0e565b5060405193845285840152836040840152600060608401527f08df2dfcfaa1d4b132f1ade3fb5f295ce8fa7d2257abef9845734f54d254a77060803394a48280806106ac565b8060005260086020526040600020826000526020526040600020836000526020526040600020600160ff1982541617905580600052600660205260408060002060009084825260205220946000958054965b87811080611603575b156115695761156490611ca0565b61154d565b96508054600160401b81101561094a578060016115899201835582611ac2565b8154906000199060031b1b1916905580546000198101908111610934575b8781116115c857506115bf6108d86020988793611ac2565b9055945061148c565b6000198101818111610934576115de9083611ac2565b90549060031b1c6115f26108d88385611ac2565b9055801561093457600019016115a7565b508561160f8284611ac2565b90549060031b1c10611556565b90506020813d602011611646575b81611637602093836118e9565b810103126100f857518561145a565b3d915061162a565b6000838152600260209081526040808320848452825280832085845282529182902091516350fe157760e01b8152600481019290925233602483015260448201869052909493908560648173__$c4a3267dc0ad9004dd41e6a27ff0e111ab$__5af48015610591576000906116c8575b6020955093611490565b506020853d6020116116f3575b816116e2602093836118e9565b810103126100f857602094516116be565b3d91506116d5565b50801515611113565b506020602491604051928380926331198cab60e21b82528860048301525afa8015610591576110b991600091611746575b506001600160a01b031682146110af565b61175f915060203d602011610ad257610ac481836118e9565b89611735565b61177f91925060203d602011610ad257610ac481836118e9565b9088611098565b346100f85761179436611855565b6001600160a01b0392831660009081526003602090815260408083209490951682529283528381209181529082528290208054600182015460029092015484519182529281019190915291820152606090f35b346100f85760003660031901126100f8577f00000000000000000000000000000000000000000000000000000000000000006001600160a01b03168152602090f35b600435906001600160a01b03821682036100f857565b602435906001600160a01b03821682036100f857565b60609060031901126100f8576004356001600160a01b03811681036100f857906024356001600160a01b03811681036100f8579060443590565b60809060031901126100f8576004356001600160a01b03811681036100f857906024356001600160a01b03811681036100f857906044359060643590565b6060810190811067ffffffffffffffff82111761094a57604052565b90601f8019910116810190811067ffffffffffffffff82111761094a57604052565b908160209103126100f8575180151581036100f85790565b1561192a57565b60405162461bcd60e51b815260206004820152600e60248201526d125b9d985b1a59081b585c9ad95d60921b6044820152606490fd5b908160209103126100f857516001600160a01b03811681036100f85790565b1561198657565b60405162461bcd60e51b815260206004820152601860248201527f496e76616c696420746f6b656e20666f72206d61726b657400000000000000006044820152606490fd5b156119d257565b60405162461bcd60e51b815260206004820152601160248201527005072696365206d757374206265203e203607c1b6044820152606490fd5b15611a1257565b60405162461bcd60e51b81526020600482015260126024820152710416d6f756e74206d757374206265203e20360741b6044820152606490fd5b906040516040810181811067ffffffffffffffff82111761094a5760405282546001600160a01b031681526001909201546020830152565b15611a8b57565b60405162461bcd60e51b815260206004820152600f60248201526e2737ba1037b93232b91037bbb732b960891b6044820152606490fd5b8054821015611ada5760005260206000200190600090565b634e487b7160e01b600052603260045260246000fd5b60018060a01b031680600052600660205260408060002060009060018060a01b038516825260205220908154928315611b9a5760005b848110611b37575050505050600090565b60008381526002602090815260408083206001600160a01b03861684529091529020611b638286611ac2565b90549060031b1c600052602052604060002054611b8257600101611b26565b92915050611b909250611ac2565b90549060031b1c90565b50505050600090565b8181029291811591840414171561093457565b9190820180921161093457565b60018060a01b031680600052600760205260408060002060009060018060a01b038516825260205220908154928315611b9a5760005b848110611c0a575050505050600090565b60008381526003602090815260408083206001600160a01b03861684529091529020611c368286611ac2565b90549060031b1c600052602052604060002054611b8257600101611bf9565b6040516323b872dd60e01b60208201526001600160a01b039283166024820152929091166044830152606480830193909352918152611c9e91611c996084836118e9565b61211b565b565b60001981146109345760010190565b9190820391821161093457565b8054821015611ada576000526003602060002091020190600090565b9190611cf857604081600292518455602081015160018501550151910155565b634e487b7160e01b600052600060045260246000fd5b91936001830193856000528460205260406000205415600014611da8576040600060018060a01b038516815285602052209160405191611d4d836118cd565b87835260208301526040820152815491600160401b83101561094a5782611d7c916001611d8295018155611cbc565b90611cd8565b60018060a01b031660005260205260406000205491600052602052604060002055600190565b505050505050600090565b60405163a9059cbb60e01b60208201526001600160a01b039092166024830152604480830193909352918152611c9e91611c996064836118e9565b9190916001810192826000528360205260406000205491821515600014611f2d57600019830192808411610934576001600160a01b03831660009081526020839052604090205460001981019490851161093457848160409603611eb5575b50505060009160018060a01b031682526020522080548015611e9f576000190190611e788282611cbc565b611cf857600260009182815582600182015501555560005260205260006040812055600190565b634e487b7160e01b600052603160045260246000fd5b600291611d7c611edb611f189360018060a01b0389166000528760205289600020611cbc565b50918851948593611eeb856118cd565b805485526001810154602086015201548984015260018060a01b0388166000528660205288600020611cbc565b51600052856020528360002055388080611e4d565b5050505050600090565b6001600160a01b0390811660008181526002602090815260408083209486168352938152838220868352905291822054919392911580611fe1575b611f7d575b50505050565b8381611fd8955260086020526040812060018060a01b0384168252602052604081208482526020526040812060ff19815416905550600052600760205260406000209060018060a01b031660005260205260406000206121d0565b38808080611f77565b508084526003602090815260408086206001600160a01b0385168752825280862085875290915284205415611f72565b91909160018060a01b031691826000526002602052604060002060018060a01b03821660005260205260406000208260005260205260406000205415806120bc575b61205c57505050565b82611c9e936000526008602052604060002060018060a01b038316600052602052604060002083600052602052604060002060ff198154169055600052600660205260406000209060018060a01b031660005260205260406000206121d0565b50826000526003602052604060002060018060a01b03821660005260205260406000208260005260205260406000205415612053565b6000546001600160a01b0316330361210657565b63118cdaa760e01b6000523360045260246000fd5b906000602091828151910182855af115610591576000513d61216d57506001600160a01b0381163b155b61214c5750565b635274afe760e01b60009081526001600160a01b0391909116600452602490fd5b60011415612145565b60009283526001810160205260409092205491908215611b9a5760018060a01b03166000526020526040600020906000198101908111610934576121bf6002916121c993611cbc565b5001918254611caf565b9055600190565b60005b815480821015611f7757836121e88385611ac2565b90549060031b1c146121fd57506001016121d3565b919250906000198101908111610934576108d861221d61222b9285611ac2565b90549060031b1c9284611ac2565b905580548015611e9f5760001901906122448282611ac2565b8154906000199060031b1b191690555556fea2646970667358221220790e8e9663e679e6657b3ff998742e4cb5f39b6c2bad77b61df43dc397d9199164736f6c634300081e0033","opcodes":"PUSH1 0xC0 CALLVALUE PUSH2 0x12E JUMPI PUSH1 0x1F PUSH2 0x23EA CODESIZE DUP2 SWAP1 SUB SWAP2 DUP3 ADD PUSH1 0x1F NOT AND DUP4 ADD SWAP2 PUSH1 0x1 PUSH1 0x1 PUSH1 0x40 SHL SUB DUP4 GT DUP5 DUP5 LT OR PUSH2 0x133 JUMPI DUP1 DUP5 SWAP3 PUSH1 0x60 SWAP5 PUSH1 0x40 MSTORE DUP4 CODECOPY DUP2 ADD SUB SLT PUSH2 0x12E JUMPI PUSH2 0x47 DUP2 PUSH2 0x149 JUMP JUMPDEST SWAP1 PUSH2 0x54 PUSH1 0x20 DUP3 ADD PUSH2 0x149 JUMP JUMPDEST SWAP1 PUSH1 0x1 PUSH1 0x1 PUSH1 0xA0 SHL SUB SWAP1 PUSH2 0x6A SWAP1 PUSH1 0x40 ADD PUSH2 0x149 JUMP JUMPDEST AND DUP1 ISZERO PUSH2 0x118 JUMPI PUSH1 0x0 SLOAD SWAP2 PUSH1 0x40 MLOAD SWAP4 DUP3 PUSH1 0x1 DUP1 PUSH1 0xA0 SHL SUB DUP6 AND PUSH32 0x8BE0079C531659141344CD1FD0A4F28419497F9722A3DAAFE3B4186F6B6457E0 PUSH1 0x0 DUP1 LOG3 PUSH1 0x1 PUSH1 0x1 PUSH1 0xA0 SHL SUB SWAP1 DUP2 AND PUSH1 0x80 MSTORE AND PUSH1 0xA0 MSTORE PUSH1 0x1 PUSH1 0x1 PUSH1 0xB0 SHL SUB NOT SWAP1 SWAP2 AND OR PUSH1 0x19 PUSH1 0xA1 SHL OR PUSH1 0x0 SSTORE PUSH2 0x228C SWAP1 DUP2 PUSH2 0x15E DUP3 CODECOPY PUSH1 0x80 MLOAD DUP2 DUP2 DUP2 PUSH2 0x1B7 ADD MSTORE DUP2 DUP2 PUSH2 0x227 ADD MSTORE DUP2 DUP2 PUSH2 0x37B ADD MSTORE DUP2 DUP2 PUSH2 0xEC7 ADD MSTORE PUSH2 0x1275 ADD MSTORE PUSH1 0xA0 MLOAD DUP2 DUP2 DUP2 PUSH2 0x291 ADD MSTORE DUP2 DUP2 PUSH2 0x102A ADD MSTORE PUSH2 0x17FA ADD MSTORE RETURN JUMPDEST PUSH4 0x1E4FBDF7 PUSH1 0xE0 SHL PUSH1 0x0 MSTORE PUSH1 0x0 PUSH1 0x4 MSTORE PUSH1 0x24 PUSH1 0x0 REVERT JUMPDEST PUSH1 0x0 DUP1 REVERT JUMPDEST PUSH4 0x4E487B71 PUSH1 0xE0 SHL PUSH1 0x0 MSTORE PUSH1 0x41 PUSH1 0x4 MSTORE PUSH1 0x24 PUSH1 0x0 REVERT JUMPDEST MLOAD SWAP1 PUSH1 0x1 PUSH1 0x1 PUSH1 0xA0 SHL SUB DUP3 AND DUP3 SUB PUSH2 0x12E JUMPI JUMP INVALID PUSH1 0x80 DUP1 PUSH1 0x40 MSTORE PUSH1 0x4 CALLDATASIZE LT ISZERO PUSH2 0x13 JUMPI PUSH1 0x0 DUP1 REVERT JUMPDEST PUSH1 0x0 CALLDATALOAD PUSH1 0xE0 SHR SWAP1 DUP2 PUSH4 0x6AE7095 EQ PUSH2 0x17E7 JUMPI POP DUP1 PUSH4 0x933B2AE EQ PUSH2 0x1786 JUMPI DUP1 PUSH4 0x10D16B59 EQ PUSH2 0xFEF JUMPI DUP1 PUSH4 0x117C0BC0 EQ PUSH2 0xE45 JUMPI DUP1 PUSH4 0x29FF0773 EQ PUSH2 0xDBF JUMPI DUP1 PUSH4 0x49268191 EQ PUSH2 0xD62 JUMPI DUP1 PUSH4 0x5671EED2 EQ PUSH2 0xD36 JUMPI DUP1 PUSH4 0x715018A6 EQ PUSH2 0xCDD JUMPI DUP1 PUSH4 0x8DA5CB5B EQ PUSH2 0xCB4 JUMPI DUP1 PUSH4 0x978BBDB9 EQ PUSH2 0xC8F JUMPI DUP1 PUSH4 0x99DB37C5 EQ PUSH2 0xB19 JUMPI DUP1 PUSH4 0xA05118C2 EQ PUSH2 0x256 JUMPI DUP1 PUSH4 0xB2016BD4 EQ PUSH2 0x211 JUMPI DUP1 PUSH4 0xB9F8B5AA EQ PUSH2 0x1DD JUMPI DUP1 PUSH4 0xC8796572 EQ PUSH2 0x186 JUMPI DUP1 PUSH4 0xF2FDE38B EQ PUSH2 0xFD JUMPI PUSH4 0xF8CE3164 EQ PUSH2 0xDA JUMPI PUSH1 0x0 DUP1 REVERT JUMPDEST CALLVALUE PUSH2 0xF8 JUMPI PUSH1 0x0 CALLDATASIZE PUSH1 0x3 NOT ADD SLT PUSH2 0xF8 JUMPI PUSH1 0x20 PUSH1 0x1 SLOAD PUSH1 0x40 MLOAD SWAP1 DUP2 MSTORE RETURN JUMPDEST PUSH1 0x0 DUP1 REVERT JUMPDEST CALLVALUE PUSH2 0xF8 JUMPI PUSH1 0x20 CALLDATASIZE PUSH1 0x3 NOT ADD SLT PUSH2 0xF8 JUMPI PUSH2 0x116 PUSH2 0x1829 JUMP JUMPDEST PUSH2 0x11E PUSH2 0x20F2 JUMP JUMPDEST PUSH1 0x1 PUSH1 0x1 PUSH1 0xA0 SHL SUB AND DUP1 ISZERO PUSH2 0x170 JUMPI PUSH1 0x0 DUP1 SLOAD PUSH1 0x1 PUSH1 0x1 PUSH1 0xA0 SHL SUB NOT DUP2 AND DUP4 OR DUP3 SSTORE PUSH1 0x1 PUSH1 0x1 PUSH1 0xA0 SHL SUB AND SWAP1 PUSH32 0x8BE0079C531659141344CD1FD0A4F28419497F9722A3DAAFE3B4186F6B6457E0 SWAP1 DUP1 LOG3 STOP JUMPDEST PUSH4 0x1E4FBDF7 PUSH1 0xE0 SHL PUSH1 0x0 MSTORE PUSH1 0x0 PUSH1 0x4 MSTORE PUSH1 0x24 PUSH1 0x0 REVERT JUMPDEST CALLVALUE PUSH2 0xF8 JUMPI PUSH1 0x0 CALLDATASIZE PUSH1 0x3 NOT ADD SLT PUSH2 0xF8 JUMPI PUSH2 0x19F PUSH2 0x20F2 JUMP JUMPDEST PUSH2 0x1DB PUSH1 0x1 SLOAD PUSH1 0x0 PUSH1 0x1 SSTORE PUSH1 0x1 DUP1 PUSH1 0xA0 SHL SUB PUSH1 0x0 SLOAD AND PUSH32 0x0 PUSH2 0x1DB3 JUMP JUMPDEST STOP JUMPDEST CALLVALUE PUSH2 0xF8 JUMPI PUSH1 0x40 CALLDATASIZE PUSH1 0x3 NOT ADD SLT PUSH2 0xF8 JUMPI PUSH1 0x20 PUSH2 0x209 PUSH2 0x1FB PUSH2 0x1829 JUMP JUMPDEST PUSH2 0x203 PUSH2 0x183F JUMP JUMPDEST SWAP1 PUSH2 0x1BC3 JUMP JUMPDEST PUSH1 0x40 MLOAD SWAP1 DUP2 MSTORE RETURN JUMPDEST CALLVALUE PUSH2 0xF8 JUMPI PUSH1 0x0 CALLDATASIZE PUSH1 0x3 NOT ADD SLT PUSH2 0xF8 JUMPI PUSH1 0x40 MLOAD PUSH32 0x0 PUSH1 0x1 PUSH1 0x1 PUSH1 0xA0 SHL SUB AND DUP2 MSTORE PUSH1 0x20 SWAP1 RETURN JUMPDEST CALLVALUE PUSH2 0xF8 JUMPI PUSH2 0x264 CALLDATASIZE PUSH2 0x188F JUMP JUMPDEST PUSH1 0x40 MLOAD PUSH4 0x37649A6D PUSH1 0xE1 SHL DUP2 MSTORE PUSH1 0x1 PUSH1 0x1 PUSH1 0xA0 SHL SUB DUP1 DUP7 AND PUSH1 0x4 DUP4 ADD DUP2 SWAP1 MSTORE SWAP5 SWAP6 PUSH1 0x0 SWAP6 SWAP4 SWAP5 SWAP1 SWAP4 SWAP3 SWAP1 SWAP2 PUSH32 0x0 AND SWAP1 PUSH1 0x20 DUP2 PUSH1 0x24 DUP2 DUP6 GAS STATICCALL DUP1 ISZERO PUSH2 0x591 JUMPI PUSH2 0x2D3 SWAP2 PUSH1 0x0 SWAP2 PUSH2 0xAFA JUMPI JUMPDEST POP PUSH2 0x1923 JUMP JUMPDEST PUSH1 0x40 MLOAD PUSH4 0xB9249F21 PUSH1 0xE0 SHL DUP2 MSTORE PUSH1 0x4 DUP2 ADD DUP5 SWAP1 MSTORE SWAP1 PUSH1 0x20 DUP3 PUSH1 0x24 DUP2 DUP5 GAS STATICCALL SWAP2 DUP3 ISZERO PUSH2 0x591 JUMPI PUSH1 0x0 SWAP3 PUSH2 0xAD9 JUMPI JUMPDEST POP PUSH1 0x1 PUSH1 0x1 PUSH1 0xA0 SHL SUB DUP9 DUP2 AND SWAP3 AND DUP3 EQ DUP1 ISZERO PUSH2 0xA68 JUMPI JUMPDEST PUSH2 0x321 SWAP2 POP PUSH2 0x197F JUMP JUMPDEST PUSH2 0x32C DUP3 ISZERO ISZERO PUSH2 0x19CB JUMP JUMPDEST PUSH2 0x337 DUP6 ISZERO ISZERO PUSH2 0x1A0B JUMP JUMPDEST PUSH2 0x375 PUSH3 0xF4240 PUSH2 0x348 DUP5 DUP9 PUSH2 0x1BA3 JUMP JUMPDEST DIV PUSH2 0x2710 PUSH2 0x35F PUSH2 0xFFFF PUSH1 0x0 SLOAD PUSH1 0xA0 SHR AND DUP4 PUSH2 0x1BA3 JUMP JUMPDEST DIV SWAP1 PUSH2 0x36D DUP3 PUSH1 0x1 SLOAD PUSH2 0x1BB6 JUMP JUMPDEST PUSH1 0x1 SSTORE PUSH2 0x1BB6 JUMP JUMPDEST SWAP5 PUSH2 0x3A3 PUSH32 0x0 SWAP7 ADDRESS CALLER DUP10 PUSH2 0x1C55 JUMP JUMPDEST SWAP3 DUP1 PUSH1 0x0 MSTORE PUSH1 0x2 PUSH1 0x20 MSTORE PUSH1 0x40 PUSH1 0x0 KECCAK256 DUP3 PUSH1 0x0 MSTORE PUSH1 0x20 MSTORE PUSH1 0x40 PUSH1 0x0 KECCAK256 DUP4 PUSH1 0x0 MSTORE PUSH1 0x20 MSTORE PUSH1 0x40 PUSH1 0x0 KECCAK256 SLOAD SWAP7 PUSH1 0x0 SWAP5 JUMPDEST DUP9 DUP7 LT DUP1 PUSH2 0xA5F JUMPI JUMPDEST ISZERO PUSH2 0x6A4 JUMPI PUSH1 0x0 DUP4 DUP2 MSTORE PUSH1 0x2 PUSH1 0x20 DUP2 DUP2 MSTORE PUSH1 0x40 DUP1 DUP5 KECCAK256 DUP9 DUP6 MSTORE DUP3 MSTORE DUP1 DUP5 KECCAK256 DUP10 DUP6 MSTORE DUP3 MSTORE DUP1 DUP5 KECCAK256 PUSH1 0x1 DUP1 DUP3 ADD SLOAD DUP1 DUP8 MSTORE PUSH1 0x3 SWAP1 SWAP3 ADD SWAP1 SWAP4 MSTORE SWAP4 KECCAK256 SWAP2 DUP3 ADD SLOAD SWAP3 SWAP4 SWAP3 SWAP2 PUSH2 0x424 SWAP2 ADD PUSH2 0x1A4C JUMP JUMPDEST SWAP2 DUP7 DUP7 DUP10 DUP14 DUP6 DUP6 LT PUSH2 0x59D JUMPI POP PUSH3 0xF4240 SWAP3 POP PUSH2 0x442 SWAP2 POP DUP5 PUSH2 0x1BA3 JUMP JUMPDEST DIV SWAP3 DUP7 PUSH1 0x0 MSTORE PUSH1 0x2 PUSH1 0x20 MSTORE PUSH1 0x40 DUP1 PUSH1 0x0 KECCAK256 PUSH1 0x0 SWAP1 DUP11 DUP3 MSTORE PUSH1 0x20 MSTORE KECCAK256 DUP10 PUSH1 0x0 MSTORE PUSH1 0x20 MSTORE PUSH1 0x40 PUSH1 0x0 KECCAK256 PUSH1 0x40 MLOAD SWAP1 PUSH4 0xB3D3FB9D PUSH1 0xE0 SHL DUP3 MSTORE PUSH1 0x4 DUP3 ADD MSTORE PUSH1 0x20 DUP2 PUSH1 0x24 DUP2 PUSH20 0x0 GAS DELEGATECALL SWAP5 DUP6 ISZERO PUSH2 0x591 JUMPI DUP16 DUP12 PUSH2 0x4ED SWAP2 DUP16 PUSH2 0x4E7 PUSH2 0x55F SWAP12 DUP16 DUP16 SWAP1 PUSH1 0x40 SWAP2 PUSH2 0x509 SWAP11 PUSH2 0x559 SWAP16 PUSH2 0x565 JUMPI JUMPDEST POP PUSH1 0x0 MSTORE PUSH1 0x4 PUSH1 0x20 MSTORE DUP2 PUSH1 0x0 KECCAK256 PUSH1 0x0 SWAP2 DUP3 MSTORE PUSH1 0x20 MSTORE KECCAK256 PUSH1 0x1 DUP1 PUSH1 0xA0 SHL SUB DUP11 MLOAD AND SWAP1 PUSH2 0x1DEE JUMP JUMPDEST POP PUSH2 0x2011 JUMP JUMPDEST PUSH2 0x4F8 DUP6 CALLER DUP13 PUSH2 0x1DB3 JUMP JUMPDEST DUP3 MLOAD PUSH1 0x1 PUSH1 0x1 PUSH1 0xA0 SHL SUB AND DUP15 PUSH2 0x1DB3 JUMP JUMPDEST MLOAD PUSH1 0x40 DUP1 MLOAD CALLER DUP2 MSTORE PUSH1 0x20 DUP2 ADD DUP12 SWAP1 MSTORE SWAP1 DUP2 ADD DUP5 SWAP1 MSTORE PUSH1 0x1 PUSH1 0x1 PUSH1 0xA0 SHL SUB SWAP1 SWAP2 AND SWAP1 DUP9 SWAP1 DUP9 SWAP1 PUSH32 0x3CBBC8402F36C579EC0A401DEDA27129168A12E63FCC158DB749AA8BEB3B0379 SWAP1 PUSH1 0x60 SWAP1 LOG4 PUSH2 0x1CAF JUMP JUMPDEST SWAP6 PUSH2 0x1CA0 JUMP JUMPDEST SWAP5 PUSH2 0x3D0 JUMP JUMPDEST PUSH2 0x585 SWAP1 PUSH1 0x20 RETURNDATASIZE DUP2 GT PUSH2 0x58A JUMPI JUMPDEST PUSH2 0x57D DUP2 DUP4 PUSH2 0x18E9 JUMP JUMPDEST DUP2 ADD SWAP1 PUSH2 0x190B JUMP JUMPDEST PUSH2 0x4C1 JUMP JUMPDEST POP RETURNDATASIZE PUSH2 0x573 JUMP JUMPDEST PUSH1 0x40 MLOAD RETURNDATASIZE PUSH1 0x0 DUP3 RETURNDATACOPY RETURNDATASIZE SWAP1 REVERT JUMPDEST PUSH2 0x696 SWAP4 SWAP7 SWAP3 SWAP6 POP SWAP1 PUSH2 0x66C SWAP2 PUSH2 0x64F DUP7 DUP1 SWAP11 PUSH3 0xF4240 PUSH2 0x5DF DUP7 PUSH32 0x3CBBC8402F36C579EC0A401DEDA27129168A12E63FCC158DB749AA8BEB3B0379 SWAP12 PUSH2 0x1BA3 JUMP JUMPDEST DIV SWAP5 DUP11 PUSH1 0x0 MSTORE PUSH1 0x2 PUSH1 0x20 MSTORE PUSH1 0x40 DUP13 DUP2 PUSH1 0x0 KECCAK256 PUSH1 0x0 SWAP2 DUP3 MSTORE PUSH1 0x20 MSTORE KECCAK256 SWAP1 PUSH1 0x0 MSTORE PUSH1 0x20 MSTORE PUSH1 0x3 PUSH1 0x40 PUSH1 0x0 KECCAK256 ADD DUP2 PUSH1 0x0 MSTORE PUSH1 0x20 MSTORE PUSH1 0x2 PUSH1 0x40 PUSH1 0x0 KECCAK256 ADD PUSH2 0x623 DUP4 DUP3 SLOAD PUSH2 0x1CAF JUMP JUMPDEST SWAP1 SSTORE PUSH1 0x0 DUP11 DUP2 MSTORE PUSH1 0x4 PUSH1 0x20 SWAP1 DUP2 MSTORE PUSH1 0x40 DUP1 DUP4 KECCAK256 DUP15 DUP5 MSTORE SWAP1 SWAP2 MSTORE SWAP1 KECCAK256 DUP8 MLOAD PUSH1 0x1 PUSH1 0x1 PUSH1 0xA0 SHL SUB AND SWAP1 PUSH2 0x2176 JUMP JUMPDEST POP PUSH2 0x65B DUP10 CALLER DUP11 PUSH2 0x1DB3 JUMP JUMPDEST DUP4 MLOAD PUSH1 0x1 PUSH1 0x1 PUSH1 0xA0 SHL SUB AND SWAP1 PUSH2 0x1DB3 JUMP JUMPDEST MLOAD PUSH1 0x40 DUP1 MLOAD CALLER DUP2 MSTORE PUSH1 0x20 DUP2 ADD DUP13 SWAP1 MSTORE SWAP1 DUP2 ADD SWAP7 SWAP1 SWAP7 MSTORE PUSH1 0x1 PUSH1 0x1 PUSH1 0xA0 SHL SUB AND SWAP5 SWAP1 DUP2 SWAP1 PUSH1 0x60 DUP3 ADD SWAP1 JUMP JUMPDEST SUB SWAP1 LOG4 PUSH2 0x55F PUSH1 0x0 SWAP6 PUSH2 0x1CA0 JUMP JUMPDEST DUP5 DUP5 DUP3 PUSH2 0x6B7 JUMPI JUMPDEST PUSH1 0x20 DUP5 PUSH1 0x40 MLOAD SWAP1 DUP2 MSTORE RETURN JUMPDEST SWAP1 SWAP2 SWAP3 POP PUSH3 0xF4240 PUSH2 0x6C9 DUP4 DUP6 PUSH2 0x1BA3 JUMP JUMPDEST DIV SWAP4 DUP1 PUSH1 0x0 MSTORE PUSH1 0x3 PUSH1 0x20 MSTORE PUSH1 0x40 PUSH1 0x0 KECCAK256 DUP3 PUSH1 0x0 MSTORE PUSH1 0x20 MSTORE PUSH1 0x40 PUSH1 0x0 KECCAK256 DUP4 PUSH1 0x0 MSTORE PUSH1 0x20 MSTORE PUSH1 0x40 PUSH1 0x0 KECCAK256 SLOAD ISZERO PUSH1 0x0 EQ PUSH2 0x9AB JUMPI PUSH1 0x0 DUP2 DUP2 MSTORE PUSH1 0x3 PUSH1 0x20 SWAP1 DUP2 MSTORE PUSH1 0x40 DUP1 DUP4 KECCAK256 DUP6 DUP5 MSTORE DUP3 MSTORE DUP1 DUP4 KECCAK256 DUP7 DUP5 MSTORE DUP3 MSTORE SWAP2 DUP3 SWAP1 KECCAK256 SWAP2 MLOAD PUSH4 0xEDE5D87 PUSH1 0xE3 SHL DUP2 MSTORE PUSH1 0x4 DUP2 ADD SWAP3 SWAP1 SWAP3 MSTORE CALLER PUSH1 0x24 DUP4 ADD MSTORE PUSH1 0x44 DUP3 ADD DUP8 SWAP1 MSTORE DUP2 PUSH1 0x64 DUP2 PUSH20 0x0 GAS DELEGATECALL SWAP1 DUP2 ISZERO PUSH2 0x591 JUMPI PUSH1 0x0 SWAP2 PUSH2 0x979 JUMPI JUMPDEST POP SWAP4 DUP2 PUSH1 0x0 MSTORE PUSH1 0x8 PUSH1 0x20 MSTORE PUSH1 0x40 PUSH1 0x0 KECCAK256 DUP4 PUSH1 0x0 MSTORE PUSH1 0x20 MSTORE PUSH1 0x40 PUSH1 0x0 KECCAK256 DUP5 PUSH1 0x0 MSTORE PUSH1 0x20 MSTORE PUSH1 0xFF PUSH1 0x40 PUSH1 0x0 KECCAK256 SLOAD AND ISZERO PUSH2 0x807 JUMPI JUMPDEST PUSH2 0x7C1 PUSH1 0x20 SWAP7 JUMPDEST DUP4 PUSH1 0x0 MSTORE PUSH1 0x5 DUP9 MSTORE PUSH1 0x40 PUSH1 0x0 KECCAK256 DUP6 PUSH1 0x0 MSTORE DUP9 MSTORE DUP6 DUP8 PUSH1 0x40 PUSH1 0x0 KECCAK256 CALLER SWAP1 PUSH2 0x1D0E JUMP JUMPDEST POP PUSH1 0x40 MLOAD SWAP4 DUP5 MSTORE DUP6 DUP5 ADD MSTORE DUP4 PUSH1 0x40 DUP5 ADD MSTORE PUSH1 0x1 PUSH1 0x60 DUP5 ADD MSTORE PUSH32 0x8DF2DFCFAA1D4B132F1ADE3FB5F295CE8FA7D2257ABEF9845734F54D254A770 PUSH1 0x80 CALLER SWAP5 LOG4 DUP3 DUP1 DUP1 PUSH2 0x6AC JUMP JUMPDEST SWAP4 SWAP3 SWAP2 SWAP1 DUP1 PUSH1 0x0 MSTORE PUSH1 0x8 PUSH1 0x20 MSTORE PUSH1 0x40 PUSH1 0x0 KECCAK256 DUP3 PUSH1 0x0 MSTORE PUSH1 0x20 MSTORE PUSH1 0x40 PUSH1 0x0 KECCAK256 DUP4 PUSH1 0x0 MSTORE PUSH1 0x20 MSTORE PUSH1 0x40 PUSH1 0x0 KECCAK256 PUSH1 0x1 PUSH1 0xFF NOT DUP3 SLOAD AND OR SWAP1 SSTORE DUP1 PUSH1 0x0 MSTORE PUSH1 0x7 PUSH1 0x20 MSTORE PUSH1 0x40 DUP1 PUSH1 0x0 KECCAK256 PUSH1 0x0 SWAP1 DUP5 DUP3 MSTORE PUSH1 0x20 MSTORE KECCAK256 SWAP5 PUSH1 0x0 SWAP6 DUP1 SLOAD SWAP7 JUMPDEST DUP8 DUP2 LT DUP1 PUSH2 0x960 JUMPI JUMPDEST ISZERO PUSH2 0x879 JUMPI PUSH2 0x874 SWAP1 PUSH2 0x1CA0 JUMP JUMPDEST PUSH2 0x85D JUMP JUMPDEST SWAP2 SWAP3 SWAP4 SWAP5 SWAP6 SWAP7 POP DUP1 SLOAD PUSH1 0x1 PUSH1 0x40 SHL DUP2 LT ISZERO PUSH2 0x94A JUMPI DUP1 PUSH1 0x1 PUSH2 0x89E SWAP3 ADD DUP4 SSTORE DUP3 PUSH2 0x1AC2 JUMP JUMPDEST DUP2 SLOAD SWAP1 PUSH1 0x0 NOT SWAP1 PUSH1 0x3 SHL SHL NOT AND SWAP1 SSTORE DUP1 SLOAD PUSH1 0x0 NOT DUP2 ADD SWAP1 DUP2 GT PUSH2 0x934 JUMPI JUMPDEST DUP3 DUP2 GT PUSH2 0x8F9 JUMPI POP SWAP7 DUP6 PUSH2 0x8EF PUSH2 0x8D8 PUSH2 0x7C1 SWAP5 PUSH1 0x20 SWAP12 PUSH2 0x1AC2 JUMP JUMPDEST DUP2 SWAP4 SWAP2 SLOAD SWAP1 PUSH1 0x3 SHL SWAP2 DUP3 SHL SWAP2 PUSH1 0x0 NOT SWAP1 SHL NOT AND OR SWAP1 JUMP JUMPDEST SWAP1 SSTORE SWAP7 POP POP PUSH2 0x799 JUMP JUMPDEST PUSH1 0x0 NOT DUP2 ADD DUP2 DUP2 GT PUSH2 0x934 JUMPI PUSH2 0x90F SWAP1 DUP4 PUSH2 0x1AC2 JUMP JUMPDEST SWAP1 SLOAD SWAP1 PUSH1 0x3 SHL SHR PUSH2 0x923 PUSH2 0x8D8 DUP4 DUP6 PUSH2 0x1AC2 JUMP JUMPDEST SWAP1 SSTORE DUP1 ISZERO PUSH2 0x934 JUMPI PUSH1 0x0 NOT ADD PUSH2 0x8BC JUMP JUMPDEST PUSH4 0x4E487B71 PUSH1 0xE0 SHL PUSH1 0x0 MSTORE PUSH1 0x11 PUSH1 0x4 MSTORE PUSH1 0x24 PUSH1 0x0 REVERT JUMPDEST PUSH4 0x4E487B71 PUSH1 0xE0 SHL PUSH1 0x0 MSTORE PUSH1 0x41 PUSH1 0x4 MSTORE PUSH1 0x24 PUSH1 0x0 REVERT JUMPDEST POP DUP6 PUSH2 0x96C DUP3 DUP5 PUSH2 0x1AC2 JUMP JUMPDEST SWAP1 SLOAD SWAP1 PUSH1 0x3 SHL SHR GT PUSH2 0x866 JUMP JUMPDEST SWAP1 POP PUSH1 0x20 DUP2 RETURNDATASIZE PUSH1 0x20 GT PUSH2 0x9A3 JUMPI JUMPDEST DUP2 PUSH2 0x994 PUSH1 0x20 SWAP4 DUP4 PUSH2 0x18E9 JUMP JUMPDEST DUP2 ADD SUB SLT PUSH2 0xF8 JUMPI MLOAD DUP7 PUSH2 0x767 JUMP JUMPDEST RETURNDATASIZE SWAP2 POP PUSH2 0x987 JUMP JUMPDEST PUSH1 0x0 DUP2 DUP2 MSTORE PUSH1 0x3 PUSH1 0x20 SWAP1 DUP2 MSTORE PUSH1 0x40 DUP1 DUP4 KECCAK256 DUP6 DUP5 MSTORE DUP3 MSTORE DUP1 DUP4 KECCAK256 DUP7 DUP5 MSTORE DUP3 MSTORE SWAP2 DUP3 SWAP1 KECCAK256 SWAP2 MLOAD PUSH4 0x50FE1577 PUSH1 0xE0 SHL DUP2 MSTORE PUSH1 0x4 DUP2 ADD SWAP3 SWAP1 SWAP3 MSTORE CALLER PUSH1 0x24 DUP4 ADD MSTORE PUSH1 0x44 DUP3 ADD DUP8 SWAP1 MSTORE SWAP1 SWAP6 SWAP5 SWAP1 DUP7 PUSH1 0x64 DUP2 PUSH20 0x0 GAS DELEGATECALL SWAP6 DUP7 ISZERO PUSH2 0x591 JUMPI PUSH1 0x0 SWAP7 PUSH2 0xA29 JUMPI JUMPDEST POP PUSH2 0x7C1 PUSH1 0x20 SWAP7 SWAP6 PUSH2 0x7A0 JUMP JUMPDEST SWAP6 POP PUSH1 0x20 DUP7 RETURNDATASIZE PUSH1 0x20 GT PUSH2 0xA57 JUMPI JUMPDEST DUP2 PUSH2 0xA44 PUSH1 0x20 SWAP4 DUP4 PUSH2 0x18E9 JUMP JUMPDEST DUP2 ADD SUB SLT PUSH2 0xF8 JUMPI SWAP5 MLOAD SWAP5 PUSH2 0x7C1 PUSH2 0xA1C JUMP JUMPDEST RETURNDATASIZE SWAP2 POP PUSH2 0xA37 JUMP JUMPDEST POP DUP1 ISZERO ISZERO PUSH2 0x3D9 JUMP JUMPDEST POP PUSH1 0x20 PUSH1 0x24 SWAP2 PUSH1 0x40 MLOAD SWAP3 DUP4 DUP1 SWAP3 PUSH4 0x31198CAB PUSH1 0xE2 SHL DUP3 MSTORE DUP9 PUSH1 0x4 DUP4 ADD MSTORE GAS STATICCALL DUP1 ISZERO PUSH2 0x591 JUMPI PUSH2 0x321 SWAP2 PUSH1 0x0 SWAP2 PUSH2 0xAAA JUMPI JUMPDEST POP PUSH1 0x1 PUSH1 0x1 PUSH1 0xA0 SHL SUB AND DUP3 EQ PUSH2 0x317 JUMP JUMPDEST PUSH2 0xACC SWAP2 POP PUSH1 0x20 RETURNDATASIZE PUSH1 0x20 GT PUSH2 0xAD2 JUMPI JUMPDEST PUSH2 0xAC4 DUP2 DUP4 PUSH2 0x18E9 JUMP JUMPDEST DUP2 ADD SWAP1 PUSH2 0x1960 JUMP JUMPDEST DUP10 PUSH2 0xA99 JUMP JUMPDEST POP RETURNDATASIZE PUSH2 0xABA JUMP JUMPDEST PUSH2 0xAF3 SWAP2 SWAP3 POP PUSH1 0x20 RETURNDATASIZE PUSH1 0x20 GT PUSH2 0xAD2 JUMPI PUSH2 0xAC4 DUP2 DUP4 PUSH2 0x18E9 JUMP JUMPDEST SWAP1 DUP9 PUSH2 0x300 JUMP JUMPDEST PUSH2 0xB13 SWAP2 POP PUSH1 0x20 RETURNDATASIZE PUSH1 0x20 GT PUSH2 0x58A JUMPI PUSH2 0x57D DUP2 DUP4 PUSH2 0x18E9 JUMP JUMPDEST DUP10 PUSH2 0x2CD JUMP JUMPDEST CALLVALUE PUSH2 0xF8 JUMPI PUSH2 0xB27 CALLDATASIZE PUSH2 0x188F JUMP JUMPDEST PUSH1 0x1 DUP1 PUSH1 0xA0 SWAP6 SWAP5 SWAP4 SWAP6 SHL SUB DUP4 AND SWAP2 DUP3 PUSH1 0x0 MSTORE PUSH1 0x2 PUSH1 0x20 MSTORE PUSH1 0x40 PUSH1 0x0 KECCAK256 PUSH1 0x1 DUP1 PUSH1 0xA0 SHL SUB DUP3 AND PUSH1 0x0 MSTORE PUSH1 0x20 MSTORE PUSH1 0x40 PUSH1 0x0 KECCAK256 DUP6 PUSH1 0x0 MSTORE PUSH1 0x20 MSTORE PUSH1 0x3 PUSH1 0x40 PUSH1 0x0 KECCAK256 ADD DUP3 PUSH1 0x0 MSTORE PUSH1 0x20 MSTORE PUSH2 0xB7D PUSH1 0x1 PUSH1 0x40 PUSH1 0x0 KECCAK256 ADD PUSH2 0x1A4C JUMP JUMPDEST SWAP4 PUSH2 0xB92 PUSH1 0x1 DUP1 PUSH1 0xA0 SHL SUB DUP7 MLOAD AND CALLER EQ PUSH2 0x1A84 JUMP JUMPDEST PUSH2 0xBAA PUSH1 0x20 PUSH1 0x1 DUP1 PUSH1 0xA0 SHL SUB DUP5 AND SWAP7 ADD MLOAD CALLER DUP8 PUSH2 0x1DB3 JUMP JUMPDEST DUP4 PUSH1 0x0 MSTORE PUSH1 0x2 PUSH1 0x20 MSTORE PUSH1 0x40 PUSH1 0x0 KECCAK256 DUP6 PUSH1 0x0 MSTORE PUSH1 0x20 MSTORE PUSH1 0x40 PUSH1 0x0 KECCAK256 DUP7 PUSH1 0x0 MSTORE PUSH1 0x20 MSTORE PUSH1 0x40 PUSH1 0x0 KECCAK256 SWAP2 PUSH1 0x40 MLOAD SWAP3 PUSH4 0x2014B08B PUSH1 0xE2 SHL DUP5 MSTORE PUSH1 0x4 DUP5 ADD MSTORE DUP4 PUSH1 0x24 DUP5 ADD MSTORE PUSH1 0x20 DUP4 PUSH1 0x44 DUP2 PUSH20 0x0 GAS DELEGATECALL SWAP2 DUP3 ISZERO PUSH2 0x591 JUMPI PUSH2 0xC3F SWAP4 DUP9 SWAP4 PUSH2 0xC72 JUMPI JUMPDEST POP DUP6 PUSH1 0x0 MSTORE PUSH1 0x4 PUSH1 0x20 MSTORE PUSH1 0x40 PUSH1 0x0 KECCAK256 DUP8 PUSH1 0x0 MSTORE PUSH1 0x20 MSTORE PUSH2 0x4E7 DUP6 PUSH1 0x40 PUSH1 0x0 KECCAK256 CALLER SWAP1 PUSH2 0x1DEE JUMP JUMPDEST PUSH1 0x40 MLOAD SWAP4 DUP5 MSTORE PUSH1 0x20 DUP5 ADD MSTORE PUSH32 0x4D808958216860D10B60C5927CDBBCFF69E2318BE11E150596EAE39DC0D8EA18 PUSH1 0x40 CALLER SWAP5 LOG4 STOP JUMPDEST PUSH2 0xC8A SWAP1 PUSH1 0x20 RETURNDATASIZE PUSH1 0x20 GT PUSH2 0x58A JUMPI PUSH2 0x57D DUP2 DUP4 PUSH2 0x18E9 JUMP JUMPDEST PUSH2 0xC19 JUMP JUMPDEST CALLVALUE PUSH2 0xF8 JUMPI PUSH1 0x0 CALLDATASIZE PUSH1 0x3 NOT ADD SLT PUSH2 0xF8 JUMPI PUSH1 0x20 PUSH2 0xFFFF PUSH1 0x0 SLOAD PUSH1 0xA0 SHR AND PUSH1 0x40 MLOAD SWAP1 DUP2 MSTORE RETURN JUMPDEST CALLVALUE PUSH2 0xF8 JUMPI PUSH1 0x0 CALLDATASIZE PUSH1 0x3 NOT ADD SLT PUSH2 0xF8 JUMPI PUSH1 0x0 SLOAD PUSH1 0x40 MLOAD PUSH1 0x1 PUSH1 0x1 PUSH1 0xA0 SHL SUB SWAP1 SWAP2 AND DUP2 MSTORE PUSH1 0x20 SWAP1 RETURN JUMPDEST CALLVALUE PUSH2 0xF8 JUMPI PUSH1 0x0 CALLDATASIZE PUSH1 0x3 NOT ADD SLT PUSH2 0xF8 JUMPI PUSH2 0xCF6 PUSH2 0x20F2 JUMP JUMPDEST PUSH1 0x0 DUP1 SLOAD PUSH1 0x1 PUSH1 0x1 PUSH1 0xA0 SHL SUB NOT DUP2 AND DUP3 SSTORE PUSH1 0x1 PUSH1 0x1 PUSH1 0xA0 SHL SUB AND PUSH32 0x8BE0079C531659141344CD1FD0A4F28419497F9722A3DAAFE3B4186F6B6457E0 DUP3 DUP1 LOG3 STOP JUMPDEST CALLVALUE PUSH2 0xF8 JUMPI PUSH1 0x40 CALLDATASIZE PUSH1 0x3 NOT ADD SLT PUSH2 0xF8 JUMPI PUSH1 0x20 PUSH2 0x209 PUSH2 0xD54 PUSH2 0x1829 JUMP JUMPDEST PUSH2 0xD5C PUSH2 0x183F JUMP JUMPDEST SWAP1 PUSH2 0x1AF0 JUMP JUMPDEST CALLVALUE PUSH2 0xF8 JUMPI PUSH2 0xD70 CALLDATASIZE PUSH2 0x1855 JUMP JUMPDEST PUSH1 0x1 PUSH1 0x1 PUSH1 0xA0 SHL SUB SWAP3 DUP4 AND PUSH1 0x0 SWAP1 DUP2 MSTORE PUSH1 0x2 PUSH1 0x20 DUP2 DUP2 MSTORE PUSH1 0x40 DUP1 DUP5 KECCAK256 SWAP6 SWAP1 SWAP7 AND DUP4 MSTORE SWAP4 DUP5 MSTORE DUP5 DUP3 KECCAK256 SWAP3 DUP3 MSTORE SWAP2 DUP4 MSTORE DUP4 SWAP1 KECCAK256 DUP1 SLOAD PUSH1 0x1 DUP3 ADD SLOAD SWAP2 SWAP1 SWAP3 ADD SLOAD DUP5 MLOAD SWAP3 DUP4 MSTORE SWAP3 DUP3 ADD MSTORE SWAP2 DUP3 ADD MSTORE PUSH1 0x60 SWAP1 RETURN JUMPDEST CALLVALUE PUSH2 0xF8 JUMPI PUSH1 0x20 CALLDATASIZE PUSH1 0x3 NOT ADD SLT PUSH2 0xF8 JUMPI PUSH1 0x4 CALLDATALOAD PUSH2 0xFFFF DUP2 AND DUP1 DUP3 SUB PUSH2 0xF8 JUMPI PUSH2 0x3E8 SWAP1 PUSH2 0xDEB PUSH2 0x20F2 JUMP JUMPDEST GT PUSH2 0xE11 JUMPI PUSH1 0x0 DUP1 SLOAD PUSH2 0xFFFF PUSH1 0xA0 SHL NOT AND PUSH1 0xA0 SWAP3 SWAP1 SWAP3 SHL PUSH2 0xFFFF PUSH1 0xA0 SHL AND SWAP2 SWAP1 SWAP2 OR SWAP1 SSTORE STOP JUMPDEST PUSH1 0x40 MLOAD PUSH3 0x461BCD PUSH1 0xE5 SHL DUP2 MSTORE PUSH1 0x20 PUSH1 0x4 DUP3 ADD MSTORE PUSH1 0xC PUSH1 0x24 DUP3 ADD MSTORE PUSH12 0x8CCACA40E8DEDE40D0D2CED PUSH1 0xA3 SHL PUSH1 0x44 DUP3 ADD MSTORE PUSH1 0x64 SWAP1 REVERT JUMPDEST CALLVALUE PUSH2 0xF8 JUMPI PUSH2 0xE53 CALLDATASIZE PUSH2 0x188F JUMP JUMPDEST PUSH1 0x1 DUP1 PUSH1 0xA0 SWAP6 SWAP4 SWAP5 SWAP6 SHL SUB DUP3 AND SWAP2 DUP3 PUSH1 0x0 MSTORE PUSH1 0x3 PUSH1 0x20 MSTORE PUSH1 0x40 PUSH1 0x0 KECCAK256 PUSH1 0x1 DUP1 PUSH1 0xA0 SHL SUB DUP7 AND PUSH1 0x0 MSTORE PUSH1 0x20 MSTORE PUSH1 0x40 PUSH1 0x0 KECCAK256 DUP5 PUSH1 0x0 MSTORE PUSH1 0x20 MSTORE PUSH1 0x3 PUSH1 0x40 PUSH1 0x0 KECCAK256 ADD DUP3 PUSH1 0x0 MSTORE PUSH1 0x20 MSTORE PUSH2 0xEEB PUSH1 0x20 PUSH2 0xEAE PUSH1 0x1 PUSH1 0x40 PUSH1 0x0 KECCAK256 ADD PUSH2 0x1A4C JUMP JUMPDEST PUSH2 0xEC2 PUSH1 0x1 DUP1 PUSH1 0xA0 SHL SUB DUP3 MLOAD AND CALLER EQ PUSH2 0x1A84 JUMP JUMPDEST ADD MLOAD CALLER PUSH32 0x0 PUSH2 0x1DB3 JUMP JUMPDEST DUP3 PUSH1 0x0 MSTORE PUSH1 0x3 PUSH1 0x20 MSTORE PUSH1 0x40 PUSH1 0x0 KECCAK256 PUSH1 0x1 DUP1 PUSH1 0xA0 SHL SUB DUP7 AND PUSH1 0x0 MSTORE PUSH1 0x20 MSTORE PUSH1 0x40 PUSH1 0x0 KECCAK256 DUP5 PUSH1 0x0 MSTORE PUSH1 0x20 MSTORE PUSH1 0x40 PUSH1 0x0 KECCAK256 PUSH1 0x40 MLOAD SWAP1 PUSH4 0x2014B08B PUSH1 0xE2 SHL DUP3 MSTORE PUSH1 0x4 DUP3 ADD MSTORE DUP3 PUSH1 0x24 DUP3 ADD MSTORE PUSH1 0x20 DUP2 PUSH1 0x44 DUP2 PUSH20 0x0 GAS DELEGATECALL DUP1 ISZERO PUSH2 0x591 JUMPI PUSH2 0xF96 SWAP3 DUP7 SWAP3 DUP9 SWAP3 PUSH2 0xFD2 JUMPI JUMPDEST POP DUP6 PUSH1 0x0 MSTORE PUSH1 0x5 PUSH1 0x20 MSTORE PUSH1 0x40 PUSH1 0x0 KECCAK256 PUSH1 0x1 DUP1 PUSH1 0xA0 SHL SUB DUP4 AND PUSH1 0x0 MSTORE PUSH1 0x20 MSTORE PUSH2 0xF90 DUP6 PUSH1 0x40 PUSH1 0x0 KECCAK256 CALLER SWAP1 PUSH2 0x1DEE JUMP JUMPDEST POP PUSH2 0x1F37 JUMP JUMPDEST PUSH1 0x40 MLOAD SWAP3 DUP4 MSTORE PUSH1 0x20 DUP4 ADD MSTORE PUSH32 0x4D808958216860D10B60C5927CDBBCFF69E2318BE11E150596EAE39DC0D8EA18 PUSH1 0x40 CALLER SWAP5 PUSH1 0x1 DUP1 PUSH1 0xA0 SHL SUB AND SWAP4 LOG4 STOP JUMPDEST PUSH2 0xFEA SWAP1 PUSH1 0x20 RETURNDATASIZE PUSH1 0x20 GT PUSH2 0x58A JUMPI PUSH2 0x57D DUP2 DUP4 PUSH2 0x18E9 JUMP JUMPDEST PUSH2 0xF62 JUMP JUMPDEST CALLVALUE PUSH2 0xF8 JUMPI PUSH2 0xFFD CALLDATASIZE PUSH2 0x188F JUMP JUMPDEST PUSH1 0x40 MLOAD PUSH4 0x37649A6D PUSH1 0xE1 SHL DUP2 MSTORE PUSH1 0x1 PUSH1 0x1 PUSH1 0xA0 SHL SUB DUP1 DUP7 AND PUSH1 0x4 DUP4 ADD DUP2 SWAP1 MSTORE SWAP5 SWAP6 PUSH1 0x0 SWAP6 SWAP4 SWAP5 SWAP1 SWAP4 SWAP3 SWAP1 SWAP2 PUSH32 0x0 AND SWAP1 PUSH1 0x20 DUP2 PUSH1 0x24 DUP2 DUP6 GAS STATICCALL DUP1 ISZERO PUSH2 0x591 JUMPI PUSH2 0x106B SWAP2 PUSH1 0x0 SWAP2 PUSH2 0xAFA JUMPI POP PUSH2 0x1923 JUMP JUMPDEST PUSH1 0x40 MLOAD PUSH4 0xB9249F21 PUSH1 0xE0 SHL DUP2 MSTORE PUSH1 0x4 DUP2 ADD DUP5 SWAP1 MSTORE SWAP1 PUSH1 0x20 DUP3 PUSH1 0x24 DUP2 DUP5 GAS STATICCALL SWAP2 DUP3 ISZERO PUSH2 0x591 JUMPI PUSH1 0x0 SWAP3 PUSH2 0x1765 JUMPI JUMPDEST POP PUSH1 0x1 PUSH1 0x1 PUSH1 0xA0 SHL SUB DUP9 DUP2 AND SWAP3 AND DUP3 EQ DUP1 ISZERO PUSH2 0x1704 JUMPI JUMPDEST PUSH2 0x10B9 SWAP2 POP PUSH2 0x197F JUMP JUMPDEST DUP2 ISZERO SWAP5 PUSH2 0x10C6 DUP7 ISZERO PUSH2 0x19CB JUMP JUMPDEST PUSH2 0x10D1 DUP2 ISZERO ISZERO PUSH2 0x1A0B JUMP JUMPDEST PUSH2 0x10DD DUP2 ADDRESS CALLER DUP6 PUSH2 0x1C55 JUMP JUMPDEST SWAP3 DUP1 PUSH1 0x0 MSTORE PUSH1 0x3 PUSH1 0x20 MSTORE PUSH1 0x40 PUSH1 0x0 KECCAK256 DUP3 PUSH1 0x0 MSTORE PUSH1 0x20 MSTORE PUSH1 0x40 PUSH1 0x0 KECCAK256 DUP4 PUSH1 0x0 MSTORE PUSH1 0x20 MSTORE PUSH1 0x40 PUSH1 0x0 KECCAK256 SLOAD SWAP7 PUSH1 0x0 SWAP5 JUMPDEST DUP9 DUP7 LT DUP1 PUSH2 0x16FB JUMPI JUMPDEST ISZERO PUSH2 0x13A7 JUMPI PUSH1 0x0 DUP4 DUP2 MSTORE PUSH1 0x3 PUSH1 0x20 DUP2 DUP2 MSTORE PUSH1 0x40 DUP1 DUP5 KECCAK256 DUP9 DUP6 MSTORE DUP3 MSTORE DUP1 DUP5 KECCAK256 DUP10 DUP6 MSTORE DUP3 MSTORE DUP1 DUP5 KECCAK256 PUSH1 0x1 DUP2 ADD SLOAD DUP1 DUP7 MSTORE SWAP4 ADD SWAP1 SWAP2 MSTORE SWAP1 SWAP2 KECCAK256 PUSH1 0x2 ADD SLOAD SWAP1 SWAP2 PUSH3 0xF4240 DUP1 DUP4 MUL SWAP1 DUP4 DUP3 DIV EQ DUP4 ISZERO OR ISZERO PUSH2 0x934 JUMPI PUSH1 0x0 DUP12 PUSH2 0x1393 JUMPI POP DUP8 SWAP1 DIV SWAP1 DUP6 PUSH1 0x0 MSTORE PUSH1 0x3 PUSH1 0x20 MSTORE PUSH1 0x40 DUP1 PUSH1 0x0 KECCAK256 PUSH1 0x0 SWAP1 DUP10 DUP3 MSTORE PUSH1 0x20 MSTORE KECCAK256 DUP9 PUSH1 0x0 MSTORE PUSH1 0x20 MSTORE PUSH1 0x3 PUSH1 0x40 PUSH1 0x0 KECCAK256 ADD DUP5 PUSH1 0x0 MSTORE PUSH1 0x20 MSTORE PUSH2 0x11AE PUSH1 0x1 PUSH1 0x40 PUSH1 0x0 KECCAK256 ADD PUSH2 0x1A4C JUMP JUMPDEST DUP8 DUP8 DUP5 DUP5 LT PUSH2 0x12BB JUMPI SWAP1 POP PUSH1 0x0 MSTORE PUSH1 0x3 PUSH1 0x20 MSTORE PUSH1 0x40 DUP1 PUSH1 0x0 KECCAK256 PUSH1 0x0 SWAP1 DUP11 DUP3 MSTORE PUSH1 0x20 MSTORE KECCAK256 DUP10 PUSH1 0x0 MSTORE PUSH1 0x20 MSTORE PUSH1 0x40 PUSH1 0x0 KECCAK256 PUSH1 0x40 MLOAD SWAP1 PUSH4 0xB3D3FB9D PUSH1 0xE0 SHL DUP3 MSTORE PUSH1 0x4 DUP3 ADD MSTORE PUSH1 0x20 DUP2 PUSH1 0x24 DUP2 PUSH20 0x0 GAS DELEGATECALL SWAP5 DUP6 ISZERO PUSH2 0x591 JUMPI DUP16 DUP12 PUSH2 0x125B SWAP2 DUP16 PUSH2 0xF90 PUSH2 0x1299 SWAP12 DUP16 DUP16 SWAP1 PUSH1 0x40 SWAP2 PUSH2 0x509 SWAP11 PUSH2 0x559 SWAP16 PUSH2 0x129F JUMPI JUMPDEST POP PUSH1 0x0 MSTORE PUSH1 0x5 PUSH1 0x20 MSTORE DUP2 PUSH1 0x0 KECCAK256 PUSH1 0x0 SWAP2 DUP3 MSTORE PUSH1 0x20 MSTORE KECCAK256 PUSH1 0x1 DUP1 PUSH1 0xA0 SHL SUB DUP11 MLOAD AND SWAP1 PUSH2 0x1DEE JUMP JUMPDEST DUP3 MLOAD PUSH2 0x1272 SWAP1 DUP7 SWAP1 PUSH1 0x1 PUSH1 0x1 PUSH1 0xA0 SHL SUB AND DUP13 PUSH2 0x1DB3 JUMP JUMPDEST CALLER PUSH32 0x0 PUSH2 0x1DB3 JUMP JUMPDEST SWAP5 PUSH2 0x110A JUMP JUMPDEST PUSH2 0x12B6 SWAP1 PUSH1 0x20 RETURNDATASIZE DUP2 GT PUSH2 0x58A JUMPI PUSH2 0x57D DUP2 DUP4 PUSH2 0x18E9 JUMP JUMPDEST PUSH2 0x1235 JUMP JUMPDEST SWAP4 POP SWAP4 POP PUSH2 0x1385 SWAP1 PUSH2 0x66C DUP4 SWAP7 PUSH2 0x136D DUP13 PUSH3 0xF4240 PUSH2 0x12FB DUP3 PUSH32 0x3CBBC8402F36C579EC0A401DEDA27129168A12E63FCC158DB749AA8BEB3B0379 SWAP10 PUSH2 0x1BA3 JUMP JUMPDEST DIV SWAP3 DUP4 SWAP2 DUP10 PUSH1 0x0 MSTORE PUSH1 0x3 PUSH1 0x20 MSTORE PUSH1 0x40 DUP1 PUSH1 0x0 KECCAK256 PUSH1 0x0 SWAP1 DUP14 DUP3 MSTORE PUSH1 0x20 MSTORE KECCAK256 SWAP1 PUSH1 0x0 MSTORE PUSH1 0x20 MSTORE PUSH1 0x3 PUSH1 0x40 PUSH1 0x0 KECCAK256 ADD DUP2 PUSH1 0x0 MSTORE PUSH1 0x20 MSTORE PUSH1 0x2 PUSH1 0x40 PUSH1 0x0 KECCAK256 ADD PUSH2 0x1341 DUP4 DUP3 SLOAD PUSH2 0x1CAF JUMP JUMPDEST SWAP1 SSTORE PUSH1 0x0 DUP10 DUP2 MSTORE PUSH1 0x5 PUSH1 0x20 SWAP1 DUP2 MSTORE PUSH1 0x40 DUP1 DUP4 KECCAK256 DUP14 DUP5 MSTORE SWAP1 SWAP2 MSTORE SWAP1 KECCAK256 DUP7 MLOAD PUSH1 0x1 PUSH1 0x1 PUSH1 0xA0 SHL SUB AND SWAP1 PUSH2 0x2176 JUMP JUMPDEST POP DUP3 MLOAD PUSH2 0x1272 SWAP1 DUP10 SWAP1 PUSH1 0x1 PUSH1 0x1 PUSH1 0xA0 SHL SUB AND DUP10 PUSH2 0x1DB3 JUMP JUMPDEST SUB SWAP1 LOG4 PUSH2 0x1299 PUSH1 0x0 SWAP6 PUSH2 0x1CA0 JUMP JUMPDEST PUSH4 0x4E487B71 PUSH1 0xE0 SHL DUP2 MSTORE PUSH1 0x12 PUSH1 0x4 MSTORE PUSH1 0x24 SWAP1 REVERT JUMPDEST SWAP4 SWAP1 SWAP3 DUP5 PUSH2 0x13BA JUMPI PUSH1 0x20 DUP5 PUSH1 0x40 MLOAD SWAP1 DUP2 MSTORE RETURN JUMPDEST SWAP1 SWAP2 DUP1 SWAP4 POP PUSH1 0x0 MSTORE PUSH1 0x2 PUSH1 0x20 MSTORE PUSH1 0x40 PUSH1 0x0 KECCAK256 DUP2 PUSH1 0x0 MSTORE PUSH1 0x20 MSTORE PUSH1 0x40 PUSH1 0x0 KECCAK256 DUP3 PUSH1 0x0 MSTORE PUSH1 0x20 MSTORE PUSH1 0x40 PUSH1 0x0 KECCAK256 SLOAD ISZERO PUSH1 0x0 EQ PUSH2 0x164E JUMPI PUSH1 0x0 DUP4 DUP2 MSTORE PUSH1 0x2 PUSH1 0x20 SWAP1 DUP2 MSTORE PUSH1 0x40 DUP1 DUP4 KECCAK256 DUP5 DUP5 MSTORE DUP3 MSTORE DUP1 DUP4 KECCAK256 DUP6 DUP5 MSTORE DUP3 MSTORE SWAP2 DUP3 SWAP1 KECCAK256 SWAP2 MLOAD PUSH4 0xEDE5D87 PUSH1 0xE3 SHL DUP2 MSTORE PUSH1 0x4 DUP2 ADD SWAP3 SWAP1 SWAP3 MSTORE CALLER PUSH1 0x24 DUP4 ADD MSTORE PUSH1 0x44 DUP3 ADD DUP7 SWAP1 MSTORE DUP2 PUSH1 0x64 DUP2 PUSH20 0x0 GAS DELEGATECALL SWAP1 DUP2 ISZERO PUSH2 0x591 JUMPI PUSH1 0x0 SWAP2 PUSH2 0x161C JUMPI JUMPDEST POP SWAP3 DUP1 PUSH1 0x0 MSTORE PUSH1 0x8 PUSH1 0x20 MSTORE PUSH1 0x40 PUSH1 0x0 KECCAK256 DUP3 PUSH1 0x0 MSTORE PUSH1 0x20 MSTORE PUSH1 0x40 PUSH1 0x0 KECCAK256 DUP4 PUSH1 0x0 MSTORE PUSH1 0x20 MSTORE PUSH1 0xFF PUSH1 0x40 PUSH1 0x0 KECCAK256 SLOAD AND ISZERO PUSH2 0x14FB JUMPI JUMPDEST PUSH1 0x20 SWAP5 JUMPDEST DUP2 PUSH1 0x0 MSTORE PUSH1 0x4 DUP7 MSTORE PUSH1 0x40 PUSH1 0x0 KECCAK256 DUP4 PUSH1 0x0 MSTORE DUP7 MSTORE PUSH2 0x14B5 DUP2 DUP6 DUP8 PUSH1 0x40 PUSH1 0x0 KECCAK256 CALLER SWAP1 PUSH2 0x1D0E JUMP JUMPDEST POP PUSH1 0x40 MLOAD SWAP4 DUP5 MSTORE DUP6 DUP5 ADD MSTORE DUP4 PUSH1 0x40 DUP5 ADD MSTORE PUSH1 0x0 PUSH1 0x60 DUP5 ADD MSTORE PUSH32 0x8DF2DFCFAA1D4B132F1ADE3FB5F295CE8FA7D2257ABEF9845734F54D254A770 PUSH1 0x80 CALLER SWAP5 LOG4 DUP3 DUP1 DUP1 PUSH2 0x6AC JUMP JUMPDEST DUP1 PUSH1 0x0 MSTORE PUSH1 0x8 PUSH1 0x20 MSTORE PUSH1 0x40 PUSH1 0x0 KECCAK256 DUP3 PUSH1 0x0 MSTORE PUSH1 0x20 MSTORE PUSH1 0x40 PUSH1 0x0 KECCAK256 DUP4 PUSH1 0x0 MSTORE PUSH1 0x20 MSTORE PUSH1 0x40 PUSH1 0x0 KECCAK256 PUSH1 0x1 PUSH1 0xFF NOT DUP3 SLOAD AND OR SWAP1 SSTORE DUP1 PUSH1 0x0 MSTORE PUSH1 0x6 PUSH1 0x20 MSTORE PUSH1 0x40 DUP1 PUSH1 0x0 KECCAK256 PUSH1 0x0 SWAP1 DUP5 DUP3 MSTORE PUSH1 0x20 MSTORE KECCAK256 SWAP5 PUSH1 0x0 SWAP6 DUP1 SLOAD SWAP7 JUMPDEST DUP8 DUP2 LT DUP1 PUSH2 0x1603 JUMPI JUMPDEST ISZERO PUSH2 0x1569 JUMPI PUSH2 0x1564 SWAP1 PUSH2 0x1CA0 JUMP JUMPDEST PUSH2 0x154D JUMP JUMPDEST SWAP7 POP DUP1 SLOAD PUSH1 0x1 PUSH1 0x40 SHL DUP2 LT ISZERO PUSH2 0x94A JUMPI DUP1 PUSH1 0x1 PUSH2 0x1589 SWAP3 ADD DUP4 SSTORE DUP3 PUSH2 0x1AC2 JUMP JUMPDEST DUP2 SLOAD SWAP1 PUSH1 0x0 NOT SWAP1 PUSH1 0x3 SHL SHL NOT AND SWAP1 SSTORE DUP1 SLOAD PUSH1 0x0 NOT DUP2 ADD SWAP1 DUP2 GT PUSH2 0x934 JUMPI JUMPDEST DUP8 DUP2 GT PUSH2 0x15C8 JUMPI POP PUSH2 0x15BF PUSH2 0x8D8 PUSH1 0x20 SWAP9 DUP8 SWAP4 PUSH2 0x1AC2 JUMP JUMPDEST SWAP1 SSTORE SWAP5 POP PUSH2 0x148C JUMP JUMPDEST PUSH1 0x0 NOT DUP2 ADD DUP2 DUP2 GT PUSH2 0x934 JUMPI PUSH2 0x15DE SWAP1 DUP4 PUSH2 0x1AC2 JUMP JUMPDEST SWAP1 SLOAD SWAP1 PUSH1 0x3 SHL SHR PUSH2 0x15F2 PUSH2 0x8D8 DUP4 DUP6 PUSH2 0x1AC2 JUMP JUMPDEST SWAP1 SSTORE DUP1 ISZERO PUSH2 0x934 JUMPI PUSH1 0x0 NOT ADD PUSH2 0x15A7 JUMP JUMPDEST POP DUP6 PUSH2 0x160F DUP3 DUP5 PUSH2 0x1AC2 JUMP JUMPDEST SWAP1 SLOAD SWAP1 PUSH1 0x3 SHL SHR LT PUSH2 0x1556 JUMP JUMPDEST SWAP1 POP PUSH1 0x20 DUP2 RETURNDATASIZE PUSH1 0x20 GT PUSH2 0x1646 JUMPI JUMPDEST DUP2 PUSH2 0x1637 PUSH1 0x20 SWAP4 DUP4 PUSH2 0x18E9 JUMP JUMPDEST DUP2 ADD SUB SLT PUSH2 0xF8 JUMPI MLOAD DUP6 PUSH2 0x145A JUMP JUMPDEST RETURNDATASIZE SWAP2 POP PUSH2 0x162A JUMP JUMPDEST PUSH1 0x0 DUP4 DUP2 MSTORE PUSH1 0x2 PUSH1 0x20 SWAP1 DUP2 MSTORE PUSH1 0x40 DUP1 DUP4 KECCAK256 DUP5 DUP5 MSTORE DUP3 MSTORE DUP1 DUP4 KECCAK256 DUP6 DUP5 MSTORE DUP3 MSTORE SWAP2 DUP3 SWAP1 KECCAK256 SWAP2 MLOAD PUSH4 0x50FE1577 PUSH1 0xE0 SHL DUP2 MSTORE PUSH1 0x4 DUP2 ADD SWAP3 SWAP1 SWAP3 MSTORE CALLER PUSH1 0x24 DUP4 ADD MSTORE PUSH1 0x44 DUP3 ADD DUP7 SWAP1 MSTORE SWAP1 SWAP5 SWAP4 SWAP1 DUP6 PUSH1 0x64 DUP2 PUSH20 0x0 GAS DELEGATECALL DUP1 ISZERO PUSH2 0x591 JUMPI PUSH1 0x0 SWAP1 PUSH2 0x16C8 JUMPI JUMPDEST PUSH1 0x20 SWAP6 POP SWAP4 PUSH2 0x1490 JUMP JUMPDEST POP PUSH1 0x20 DUP6 RETURNDATASIZE PUSH1 0x20 GT PUSH2 0x16F3 JUMPI JUMPDEST DUP2 PUSH2 0x16E2 PUSH1 0x20 SWAP4 DUP4 PUSH2 0x18E9 JUMP JUMPDEST DUP2 ADD SUB SLT PUSH2 0xF8 JUMPI PUSH1 0x20 SWAP5 MLOAD PUSH2 0x16BE JUMP JUMPDEST RETURNDATASIZE SWAP2 POP PUSH2 0x16D5 JUMP JUMPDEST POP DUP1 ISZERO ISZERO PUSH2 0x1113 JUMP JUMPDEST POP PUSH1 0x20 PUSH1 0x24 SWAP2 PUSH1 0x40 MLOAD SWAP3 DUP4 DUP1 SWAP3 PUSH4 0x31198CAB PUSH1 0xE2 SHL DUP3 MSTORE DUP9 PUSH1 0x4 DUP4 ADD MSTORE GAS STATICCALL DUP1 ISZERO PUSH2 0x591 JUMPI PUSH2 0x10B9 SWAP2 PUSH1 0x0 SWAP2 PUSH2 0x1746 JUMPI JUMPDEST POP PUSH1 0x1 PUSH1 0x1 PUSH1 0xA0 SHL SUB AND DUP3 EQ PUSH2 0x10AF JUMP JUMPDEST PUSH2 0x175F SWAP2 POP PUSH1 0x20 RETURNDATASIZE PUSH1 0x20 GT PUSH2 0xAD2 JUMPI PUSH2 0xAC4 DUP2 DUP4 PUSH2 0x18E9 JUMP JUMPDEST DUP10 PUSH2 0x1735 JUMP JUMPDEST PUSH2 0x177F SWAP2 SWAP3 POP PUSH1 0x20 RETURNDATASIZE PUSH1 0x20 GT PUSH2 0xAD2 JUMPI PUSH2 0xAC4 DUP2 DUP4 PUSH2 0x18E9 JUMP JUMPDEST SWAP1 DUP9 PUSH2 0x1098 JUMP JUMPDEST CALLVALUE PUSH2 0xF8 JUMPI PUSH2 0x1794 CALLDATASIZE PUSH2 0x1855 JUMP JUMPDEST PUSH1 0x1 PUSH1 0x1 PUSH1 0xA0 SHL SUB SWAP3 DUP4 AND PUSH1 0x0 SWAP1 DUP2 MSTORE PUSH1 0x3 PUSH1 0x20 SWAP1 DUP2 MSTORE PUSH1 0x40 DUP1 DUP4 KECCAK256 SWAP5 SWAP1 SWAP6 AND DUP3 MSTORE SWAP3 DUP4 MSTORE DUP4 DUP2 KECCAK256 SWAP2 DUP2 MSTORE SWAP1 DUP3 MSTORE DUP3 SWAP1 KECCAK256 DUP1 SLOAD PUSH1 0x1 DUP3 ADD SLOAD PUSH1 0x2 SWAP1 SWAP3 ADD SLOAD DUP5 MLOAD SWAP2 DUP3 MSTORE SWAP3 DUP2 ADD SWAP2 SWAP1 SWAP2 MSTORE SWAP2 DUP3 ADD MSTORE PUSH1 0x60 SWAP1 RETURN JUMPDEST CALLVALUE PUSH2 0xF8 JUMPI PUSH1 0x0 CALLDATASIZE PUSH1 0x3 NOT ADD SLT PUSH2 0xF8 JUMPI PUSH32 0x0 PUSH1 0x1 PUSH1 0x1 PUSH1 0xA0 SHL SUB AND DUP2 MSTORE PUSH1 0x20 SWAP1 RETURN JUMPDEST PUSH1 0x4 CALLDATALOAD SWAP1 PUSH1 0x1 PUSH1 0x1 PUSH1 0xA0 SHL SUB DUP3 AND DUP3 SUB PUSH2 0xF8 JUMPI JUMP JUMPDEST PUSH1 0x24 CALLDATALOAD SWAP1 PUSH1 0x1 PUSH1 0x1 PUSH1 0xA0 SHL SUB DUP3 AND DUP3 SUB PUSH2 0xF8 JUMPI JUMP JUMPDEST PUSH1 0x60 SWAP1 PUSH1 0x3 NOT ADD SLT PUSH2 0xF8 JUMPI PUSH1 0x4 CALLDATALOAD PUSH1 0x1 PUSH1 0x1 PUSH1 0xA0 SHL SUB DUP2 AND DUP2 SUB PUSH2 0xF8 JUMPI SWAP1 PUSH1 0x24 CALLDATALOAD PUSH1 0x1 PUSH1 0x1 PUSH1 0xA0 SHL SUB DUP2 AND DUP2 SUB PUSH2 0xF8 JUMPI SWAP1 PUSH1 0x44 CALLDATALOAD SWAP1 JUMP JUMPDEST PUSH1 0x80 SWAP1 PUSH1 0x3 NOT ADD SLT PUSH2 0xF8 JUMPI PUSH1 0x4 CALLDATALOAD PUSH1 0x1 PUSH1 0x1 PUSH1 0xA0 SHL SUB DUP2 AND DUP2 SUB PUSH2 0xF8 JUMPI SWAP1 PUSH1 0x24 CALLDATALOAD PUSH1 0x1 PUSH1 0x1 PUSH1 0xA0 SHL SUB DUP2 AND DUP2 SUB PUSH2 0xF8 JUMPI SWAP1 PUSH1 0x44 CALLDATALOAD SWAP1 PUSH1 0x64 CALLDATALOAD SWAP1 JUMP JUMPDEST PUSH1 0x60 DUP2 ADD SWAP1 DUP2 LT PUSH8 0xFFFFFFFFFFFFFFFF DUP3 GT OR PUSH2 0x94A JUMPI PUSH1 0x40 MSTORE JUMP JUMPDEST SWAP1 PUSH1 0x1F DUP1 NOT SWAP2 ADD AND DUP2 ADD SWAP1 DUP2 LT PUSH8 0xFFFFFFFFFFFFFFFF DUP3 GT OR PUSH2 0x94A JUMPI PUSH1 0x40 MSTORE JUMP JUMPDEST SWAP1 DUP2 PUSH1 0x20 SWAP2 SUB SLT PUSH2 0xF8 JUMPI MLOAD DUP1 ISZERO ISZERO DUP2 SUB PUSH2 0xF8 JUMPI SWAP1 JUMP JUMPDEST ISZERO PUSH2 0x192A JUMPI JUMP JUMPDEST PUSH1 0x40 MLOAD PUSH3 0x461BCD PUSH1 0xE5 SHL DUP2 MSTORE PUSH1 0x20 PUSH1 0x4 DUP3 ADD MSTORE PUSH1 0xE PUSH1 0x24 DUP3 ADD MSTORE PUSH14 0x125B9D985B1A59081B585C9AD95D PUSH1 0x92 SHL PUSH1 0x44 DUP3 ADD MSTORE PUSH1 0x64 SWAP1 REVERT JUMPDEST SWAP1 DUP2 PUSH1 0x20 SWAP2 SUB SLT PUSH2 0xF8 JUMPI MLOAD PUSH1 0x1 PUSH1 0x1 PUSH1 0xA0 SHL SUB DUP2 AND DUP2 SUB PUSH2 0xF8 JUMPI SWAP1 JUMP JUMPDEST ISZERO PUSH2 0x1986 JUMPI JUMP JUMPDEST PUSH1 0x40 MLOAD PUSH3 0x461BCD PUSH1 0xE5 SHL DUP2 MSTORE PUSH1 0x20 PUSH1 0x4 DUP3 ADD MSTORE PUSH1 0x18 PUSH1 0x24 DUP3 ADD MSTORE PUSH32 0x496E76616C696420746F6B656E20666F72206D61726B65740000000000000000 PUSH1 0x44 DUP3 ADD MSTORE PUSH1 0x64 SWAP1 REVERT JUMPDEST ISZERO PUSH2 0x19D2 JUMPI JUMP JUMPDEST PUSH1 0x40 MLOAD PUSH3 0x461BCD PUSH1 0xE5 SHL DUP2 MSTORE PUSH1 0x20 PUSH1 0x4 DUP3 ADD MSTORE PUSH1 0x11 PUSH1 0x24 DUP3 ADD MSTORE PUSH17 0x5072696365206D757374206265203E203 PUSH1 0x7C SHL PUSH1 0x44 DUP3 ADD MSTORE PUSH1 0x64 SWAP1 REVERT JUMPDEST ISZERO PUSH2 0x1A12 JUMPI JUMP JUMPDEST PUSH1 0x40 MLOAD PUSH3 0x461BCD PUSH1 0xE5 SHL DUP2 MSTORE PUSH1 0x20 PUSH1 0x4 DUP3 ADD MSTORE PUSH1 0x12 PUSH1 0x24 DUP3 ADD MSTORE PUSH18 0x416D6F756E74206D757374206265203E203 PUSH1 0x74 SHL PUSH1 0x44 DUP3 ADD MSTORE PUSH1 0x64 SWAP1 REVERT JUMPDEST SWAP1 PUSH1 0x40 MLOAD PUSH1 0x40 DUP2 ADD DUP2 DUP2 LT PUSH8 0xFFFFFFFFFFFFFFFF DUP3 GT OR PUSH2 0x94A JUMPI PUSH1 0x40 MSTORE DUP3 SLOAD PUSH1 0x1 PUSH1 0x1 PUSH1 0xA0 SHL SUB AND DUP2 MSTORE PUSH1 0x1 SWAP1 SWAP3 ADD SLOAD PUSH1 0x20 DUP4 ADD MSTORE JUMP JUMPDEST ISZERO PUSH2 0x1A8B JUMPI JUMP JUMPDEST PUSH1 0x40 MLOAD PUSH3 0x461BCD PUSH1 0xE5 SHL DUP2 MSTORE PUSH1 0x20 PUSH1 0x4 DUP3 ADD MSTORE PUSH1 0xF PUSH1 0x24 DUP3 ADD MSTORE PUSH15 0x2737BA1037B93232B91037BBB732B9 PUSH1 0x89 SHL PUSH1 0x44 DUP3 ADD MSTORE PUSH1 0x64 SWAP1 REVERT JUMPDEST DUP1 SLOAD DUP3 LT ISZERO PUSH2 0x1ADA JUMPI PUSH1 0x0 MSTORE PUSH1 0x20 PUSH1 0x0 KECCAK256 ADD SWAP1 PUSH1 0x0 SWAP1 JUMP JUMPDEST PUSH4 0x4E487B71 PUSH1 0xE0 SHL PUSH1 0x0 MSTORE PUSH1 0x32 PUSH1 0x4 MSTORE PUSH1 0x24 PUSH1 0x0 REVERT JUMPDEST PUSH1 0x1 DUP1 PUSH1 0xA0 SHL SUB AND DUP1 PUSH1 0x0 MSTORE PUSH1 0x6 PUSH1 0x20 MSTORE PUSH1 0x40 DUP1 PUSH1 0x0 KECCAK256 PUSH1 0x0 SWAP1 PUSH1 0x1 DUP1 PUSH1 0xA0 SHL SUB DUP6 AND DUP3 MSTORE PUSH1 0x20 MSTORE KECCAK256 SWAP1 DUP2 SLOAD SWAP3 DUP4 ISZERO PUSH2 0x1B9A JUMPI PUSH1 0x0 JUMPDEST DUP5 DUP2 LT PUSH2 0x1B37 JUMPI POP POP POP POP POP PUSH1 0x0 SWAP1 JUMP JUMPDEST PUSH1 0x0 DUP4 DUP2 MSTORE PUSH1 0x2 PUSH1 0x20 SWAP1 DUP2 MSTORE PUSH1 0x40 DUP1 DUP4 KECCAK256 PUSH1 0x1 PUSH1 0x1 PUSH1 0xA0 SHL SUB DUP7 AND DUP5 MSTORE SWAP1 SWAP2 MSTORE SWAP1 KECCAK256 PUSH2 0x1B63 DUP3 DUP7 PUSH2 0x1AC2 JUMP JUMPDEST SWAP1 SLOAD SWAP1 PUSH1 0x3 SHL SHR PUSH1 0x0 MSTORE PUSH1 0x20 MSTORE PUSH1 0x40 PUSH1 0x0 KECCAK256 SLOAD PUSH2 0x1B82 JUMPI PUSH1 0x1 ADD PUSH2 0x1B26 JUMP JUMPDEST SWAP3 SWAP2 POP POP PUSH2 0x1B90 SWAP3 POP PUSH2 0x1AC2 JUMP JUMPDEST SWAP1 SLOAD SWAP1 PUSH1 0x3 SHL SHR SWAP1 JUMP JUMPDEST POP POP POP POP PUSH1 0x0 SWAP1 JUMP JUMPDEST DUP2 DUP2 MUL SWAP3 SWAP2 DUP2 ISZERO SWAP2 DUP5 DIV EQ OR ISZERO PUSH2 0x934 JUMPI JUMP JUMPDEST SWAP2 SWAP1 DUP3 ADD DUP1 SWAP3 GT PUSH2 0x934 JUMPI JUMP JUMPDEST PUSH1 0x1 DUP1 PUSH1 0xA0 SHL SUB AND DUP1 PUSH1 0x0 MSTORE PUSH1 0x7 PUSH1 0x20 MSTORE PUSH1 0x40 DUP1 PUSH1 0x0 KECCAK256 PUSH1 0x0 SWAP1 PUSH1 0x1 DUP1 PUSH1 0xA0 SHL SUB DUP6 AND DUP3 MSTORE PUSH1 0x20 MSTORE KECCAK256 SWAP1 DUP2 SLOAD SWAP3 DUP4 ISZERO PUSH2 0x1B9A JUMPI PUSH1 0x0 JUMPDEST DUP5 DUP2 LT PUSH2 0x1C0A JUMPI POP POP POP POP POP PUSH1 0x0 SWAP1 JUMP JUMPDEST PUSH1 0x0 DUP4 DUP2 MSTORE PUSH1 0x3 PUSH1 0x20 SWAP1 DUP2 MSTORE PUSH1 0x40 DUP1 DUP4 KECCAK256 PUSH1 0x1 PUSH1 0x1 PUSH1 0xA0 SHL SUB DUP7 AND DUP5 MSTORE SWAP1 SWAP2 MSTORE SWAP1 KECCAK256 PUSH2 0x1C36 DUP3 DUP7 PUSH2 0x1AC2 JUMP JUMPDEST SWAP1 SLOAD SWAP1 PUSH1 0x3 SHL SHR PUSH1 0x0 MSTORE PUSH1 0x20 MSTORE PUSH1 0x40 PUSH1 0x0 KECCAK256 SLOAD PUSH2 0x1B82 JUMPI PUSH1 0x1 ADD PUSH2 0x1BF9 JUMP JUMPDEST PUSH1 0x40 MLOAD PUSH4 0x23B872DD PUSH1 0xE0 SHL PUSH1 0x20 DUP3 ADD MSTORE PUSH1 0x1 PUSH1 0x1 PUSH1 0xA0 SHL SUB SWAP3 DUP4 AND PUSH1 0x24 DUP3 ADD MSTORE SWAP3 SWAP1 SWAP2 AND PUSH1 0x44 DUP4 ADD MSTORE PUSH1 0x64 DUP1 DUP4 ADD SWAP4 SWAP1 SWAP4 MSTORE SWAP2 DUP2 MSTORE PUSH2 0x1C9E SWAP2 PUSH2 0x1C99 PUSH1 0x84 DUP4 PUSH2 0x18E9 JUMP JUMPDEST PUSH2 0x211B JUMP JUMPDEST JUMP JUMPDEST PUSH1 0x0 NOT DUP2 EQ PUSH2 0x934 JUMPI PUSH1 0x1 ADD SWAP1 JUMP JUMPDEST SWAP2 SWAP1 DUP3 SUB SWAP2 DUP3 GT PUSH2 0x934 JUMPI JUMP JUMPDEST DUP1 SLOAD DUP3 LT ISZERO PUSH2 0x1ADA JUMPI PUSH1 0x0 MSTORE PUSH1 0x3 PUSH1 0x20 PUSH1 0x0 KECCAK256 SWAP2 MUL ADD SWAP1 PUSH1 0x0 SWAP1 JUMP JUMPDEST SWAP2 SWAP1 PUSH2 0x1CF8 JUMPI PUSH1 0x40 DUP2 PUSH1 0x2 SWAP3 MLOAD DUP5 SSTORE PUSH1 0x20 DUP2 ADD MLOAD PUSH1 0x1 DUP6 ADD SSTORE ADD MLOAD SWAP2 ADD SSTORE JUMP JUMPDEST PUSH4 0x4E487B71 PUSH1 0xE0 SHL PUSH1 0x0 MSTORE PUSH1 0x0 PUSH1 0x4 MSTORE PUSH1 0x24 PUSH1 0x0 REVERT JUMPDEST SWAP2 SWAP4 PUSH1 0x1 DUP4 ADD SWAP4 DUP6 PUSH1 0x0 MSTORE DUP5 PUSH1 0x20 MSTORE PUSH1 0x40 PUSH1 0x0 KECCAK256 SLOAD ISZERO PUSH1 0x0 EQ PUSH2 0x1DA8 JUMPI PUSH1 0x40 PUSH1 0x0 PUSH1 0x1 DUP1 PUSH1 0xA0 SHL SUB DUP6 AND DUP2 MSTORE DUP6 PUSH1 0x20 MSTORE KECCAK256 SWAP2 PUSH1 0x40 MLOAD SWAP2 PUSH2 0x1D4D DUP4 PUSH2 0x18CD JUMP JUMPDEST DUP8 DUP4 MSTORE PUSH1 0x20 DUP4 ADD MSTORE PUSH1 0x40 DUP3 ADD MSTORE DUP2 SLOAD SWAP2 PUSH1 0x1 PUSH1 0x40 SHL DUP4 LT ISZERO PUSH2 0x94A JUMPI DUP3 PUSH2 0x1D7C SWAP2 PUSH1 0x1 PUSH2 0x1D82 SWAP6 ADD DUP2 SSTORE PUSH2 0x1CBC JUMP JUMPDEST SWAP1 PUSH2 0x1CD8 JUMP JUMPDEST PUSH1 0x1 DUP1 PUSH1 0xA0 SHL SUB AND PUSH1 0x0 MSTORE PUSH1 0x20 MSTORE PUSH1 0x40 PUSH1 0x0 KECCAK256 SLOAD SWAP2 PUSH1 0x0 MSTORE PUSH1 0x20 MSTORE PUSH1 0x40 PUSH1 0x0 KECCAK256 SSTORE PUSH1 0x1 SWAP1 JUMP JUMPDEST POP POP POP POP POP POP PUSH1 0x0 SWAP1 JUMP JUMPDEST PUSH1 0x40 MLOAD PUSH4 0xA9059CBB PUSH1 0xE0 SHL PUSH1 0x20 DUP3 ADD MSTORE PUSH1 0x1 PUSH1 0x1 PUSH1 0xA0 SHL SUB SWAP1 SWAP3 AND PUSH1 0x24 DUP4 ADD MSTORE PUSH1 0x44 DUP1 DUP4 ADD SWAP4 SWAP1 SWAP4 MSTORE SWAP2 DUP2 MSTORE PUSH2 0x1C9E SWAP2 PUSH2 0x1C99 PUSH1 0x64 DUP4 PUSH2 0x18E9 JUMP JUMPDEST SWAP2 SWAP1 SWAP2 PUSH1 0x1 DUP2 ADD SWAP3 DUP3 PUSH1 0x0 MSTORE DUP4 PUSH1 0x20 MSTORE PUSH1 0x40 PUSH1 0x0 KECCAK256 SLOAD SWAP2 DUP3 ISZERO ISZERO PUSH1 0x0 EQ PUSH2 0x1F2D JUMPI PUSH1 0x0 NOT DUP4 ADD SWAP3 DUP1 DUP5 GT PUSH2 0x934 JUMPI PUSH1 0x1 PUSH1 0x1 PUSH1 0xA0 SHL SUB DUP4 AND PUSH1 0x0 SWAP1 DUP2 MSTORE PUSH1 0x20 DUP4 SWAP1 MSTORE PUSH1 0x40 SWAP1 KECCAK256 SLOAD PUSH1 0x0 NOT DUP2 ADD SWAP5 SWAP1 DUP6 GT PUSH2 0x934 JUMPI DUP5 DUP2 PUSH1 0x40 SWAP7 SUB PUSH2 0x1EB5 JUMPI JUMPDEST POP POP POP PUSH1 0x0 SWAP2 PUSH1 0x1 DUP1 PUSH1 0xA0 SHL SUB AND DUP3 MSTORE PUSH1 0x20 MSTORE KECCAK256 DUP1 SLOAD DUP1 ISZERO PUSH2 0x1E9F JUMPI PUSH1 0x0 NOT ADD SWAP1 PUSH2 0x1E78 DUP3 DUP3 PUSH2 0x1CBC JUMP JUMPDEST PUSH2 0x1CF8 JUMPI PUSH1 0x2 PUSH1 0x0 SWAP2 DUP3 DUP2 SSTORE DUP3 PUSH1 0x1 DUP3 ADD SSTORE ADD SSTORE SSTORE PUSH1 0x0 MSTORE PUSH1 0x20 MSTORE PUSH1 0x0 PUSH1 0x40 DUP2 KECCAK256 SSTORE PUSH1 0x1 SWAP1 JUMP JUMPDEST PUSH4 0x4E487B71 PUSH1 0xE0 SHL PUSH1 0x0 MSTORE PUSH1 0x31 PUSH1 0x4 MSTORE PUSH1 0x24 PUSH1 0x0 REVERT JUMPDEST PUSH1 0x2 SWAP2 PUSH2 0x1D7C PUSH2 0x1EDB PUSH2 0x1F18 SWAP4 PUSH1 0x1 DUP1 PUSH1 0xA0 SHL SUB DUP10 AND PUSH1 0x0 MSTORE DUP8 PUSH1 0x20 MSTORE DUP10 PUSH1 0x0 KECCAK256 PUSH2 0x1CBC JUMP JUMPDEST POP SWAP2 DUP9 MLOAD SWAP5 DUP6 SWAP4 PUSH2 0x1EEB DUP6 PUSH2 0x18CD JUMP JUMPDEST DUP1 SLOAD DUP6 MSTORE PUSH1 0x1 DUP2 ADD SLOAD PUSH1 0x20 DUP7 ADD MSTORE ADD SLOAD DUP10 DUP5 ADD MSTORE PUSH1 0x1 DUP1 PUSH1 0xA0 SHL SUB DUP9 AND PUSH1 0x0 MSTORE DUP7 PUSH1 0x20 MSTORE DUP9 PUSH1 0x0 KECCAK256 PUSH2 0x1CBC JUMP JUMPDEST MLOAD PUSH1 0x0 MSTORE DUP6 PUSH1 0x20 MSTORE DUP4 PUSH1 0x0 KECCAK256 SSTORE CODESIZE DUP1 DUP1 PUSH2 0x1E4D JUMP JUMPDEST POP POP POP POP POP PUSH1 0x0 SWAP1 JUMP JUMPDEST PUSH1 0x1 PUSH1 0x1 PUSH1 0xA0 SHL SUB SWAP1 DUP2 AND PUSH1 0x0 DUP2 DUP2 MSTORE PUSH1 0x2 PUSH1 0x20 SWAP1 DUP2 MSTORE PUSH1 0x40 DUP1 DUP4 KECCAK256 SWAP5 DUP7 AND DUP4 MSTORE SWAP4 DUP2 MSTORE DUP4 DUP3 KECCAK256 DUP7 DUP4 MSTORE SWAP1 MSTORE SWAP2 DUP3 KECCAK256 SLOAD SWAP2 SWAP4 SWAP3 SWAP2 ISZERO DUP1 PUSH2 0x1FE1 JUMPI JUMPDEST PUSH2 0x1F7D JUMPI JUMPDEST POP POP POP POP JUMP JUMPDEST DUP4 DUP2 PUSH2 0x1FD8 SWAP6 MSTORE PUSH1 0x8 PUSH1 0x20 MSTORE PUSH1 0x40 DUP2 KECCAK256 PUSH1 0x1 DUP1 PUSH1 0xA0 SHL SUB DUP5 AND DUP3 MSTORE PUSH1 0x20 MSTORE PUSH1 0x40 DUP2 KECCAK256 DUP5 DUP3 MSTORE PUSH1 0x20 MSTORE PUSH1 0x40 DUP2 KECCAK256 PUSH1 0xFF NOT DUP2 SLOAD AND SWAP1 SSTORE POP PUSH1 0x0 MSTORE PUSH1 0x7 PUSH1 0x20 MSTORE PUSH1 0x40 PUSH1 0x0 KECCAK256 SWAP1 PUSH1 0x1 DUP1 PUSH1 0xA0 SHL SUB AND PUSH1 0x0 MSTORE PUSH1 0x20 MSTORE PUSH1 0x40 PUSH1 0x0 KECCAK256 PUSH2 0x21D0 JUMP JUMPDEST CODESIZE DUP1 DUP1 DUP1 PUSH2 0x1F77 JUMP JUMPDEST POP DUP1 DUP5 MSTORE PUSH1 0x3 PUSH1 0x20 SWAP1 DUP2 MSTORE PUSH1 0x40 DUP1 DUP7 KECCAK256 PUSH1 0x1 PUSH1 0x1 PUSH1 0xA0 SHL SUB DUP6 AND DUP8 MSTORE DUP3 MSTORE DUP1 DUP7 KECCAK256 DUP6 DUP8 MSTORE SWAP1 SWAP2 MSTORE DUP5 KECCAK256 SLOAD ISZERO PUSH2 0x1F72 JUMP JUMPDEST SWAP2 SWAP1 SWAP2 PUSH1 0x1 DUP1 PUSH1 0xA0 SHL SUB AND SWAP2 DUP3 PUSH1 0x0 MSTORE PUSH1 0x2 PUSH1 0x20 MSTORE PUSH1 0x40 PUSH1 0x0 KECCAK256 PUSH1 0x1 DUP1 PUSH1 0xA0 SHL SUB DUP3 AND PUSH1 0x0 MSTORE PUSH1 0x20 MSTORE PUSH1 0x40 PUSH1 0x0 KECCAK256 DUP3 PUSH1 0x0 MSTORE PUSH1 0x20 MSTORE PUSH1 0x40 PUSH1 0x0 KECCAK256 SLOAD ISZERO DUP1 PUSH2 0x20BC JUMPI JUMPDEST PUSH2 0x205C JUMPI POP POP POP JUMP JUMPDEST DUP3 PUSH2 0x1C9E SWAP4 PUSH1 0x0 MSTORE PUSH1 0x8 PUSH1 0x20 MSTORE PUSH1 0x40 PUSH1 0x0 KECCAK256 PUSH1 0x1 DUP1 PUSH1 0xA0 SHL SUB DUP4 AND PUSH1 0x0 MSTORE PUSH1 0x20 MSTORE PUSH1 0x40 PUSH1 0x0 KECCAK256 DUP4 PUSH1 0x0 MSTORE PUSH1 0x20 MSTORE PUSH1 0x40 PUSH1 0x0 KECCAK256 PUSH1 0xFF NOT DUP2 SLOAD AND SWAP1 SSTORE PUSH1 0x0 MSTORE PUSH1 0x6 PUSH1 0x20 MSTORE PUSH1 0x40 PUSH1 0x0 KECCAK256 SWAP1 PUSH1 0x1 DUP1 PUSH1 0xA0 SHL SUB AND PUSH1 0x0 MSTORE PUSH1 0x20 MSTORE PUSH1 0x40 PUSH1 0x0 KECCAK256 PUSH2 0x21D0 JUMP JUMPDEST POP DUP3 PUSH1 0x0 MSTORE PUSH1 0x3 PUSH1 0x20 MSTORE PUSH1 0x40 PUSH1 0x0 KECCAK256 PUSH1 0x1 DUP1 PUSH1 0xA0 SHL SUB DUP3 AND PUSH1 0x0 MSTORE PUSH1 0x20 MSTORE PUSH1 0x40 PUSH1 0x0 KECCAK256 DUP3 PUSH1 0x0 MSTORE PUSH1 0x20 MSTORE PUSH1 0x40 PUSH1 0x0 KECCAK256 SLOAD ISZERO PUSH2 0x2053 JUMP JUMPDEST PUSH1 0x0 SLOAD PUSH1 0x1 PUSH1 0x1 PUSH1 0xA0 SHL SUB AND CALLER SUB PUSH2 0x2106 JUMPI JUMP JUMPDEST PUSH4 0x118CDAA7 PUSH1 0xE0 SHL PUSH1 0x0 MSTORE CALLER PUSH1 0x4 MSTORE PUSH1 0x24 PUSH1 0x0 REVERT JUMPDEST SWAP1 PUSH1 0x0 PUSH1 0x20 SWAP2 DUP3 DUP2 MLOAD SWAP2 ADD DUP3 DUP6 GAS CALL ISZERO PUSH2 0x591 JUMPI PUSH1 0x0 MLOAD RETURNDATASIZE PUSH2 0x216D JUMPI POP PUSH1 0x1 PUSH1 0x1 PUSH1 0xA0 SHL SUB DUP2 AND EXTCODESIZE ISZERO JUMPDEST PUSH2 0x214C JUMPI POP JUMP JUMPDEST PUSH4 0x5274AFE7 PUSH1 0xE0 SHL PUSH1 0x0 SWAP1 DUP2 MSTORE PUSH1 0x1 PUSH1 0x1 PUSH1 0xA0 SHL SUB SWAP2 SWAP1 SWAP2 AND PUSH1 0x4 MSTORE PUSH1 0x24 SWAP1 REVERT JUMPDEST PUSH1 0x1 EQ ISZERO PUSH2 0x2145 JUMP JUMPDEST PUSH1 0x0 SWAP3 DUP4 MSTORE PUSH1 0x1 DUP2 ADD PUSH1 0x20 MSTORE PUSH1 0x40 SWAP1 SWAP3 KECCAK256 SLOAD SWAP2 SWAP1 DUP3 ISZERO PUSH2 0x1B9A JUMPI PUSH1 0x1 DUP1 PUSH1 0xA0 SHL SUB AND PUSH1 0x0 MSTORE PUSH1 0x20 MSTORE PUSH1 0x40 PUSH1 0x0 KECCAK256 SWAP1 PUSH1 0x0 NOT DUP2 ADD SWAP1 DUP2 GT PUSH2 0x934 JUMPI PUSH2 0x21BF PUSH1 0x2 SWAP2 PUSH2 0x21C9 SWAP4 PUSH2 0x1CBC JUMP JUMPDEST POP ADD SWAP2 DUP3 SLOAD PUSH2 0x1CAF JUMP JUMPDEST SWAP1 SSTORE PUSH1 0x1 SWAP1 JUMP JUMPDEST PUSH1 0x0 JUMPDEST DUP2 SLOAD DUP1 DUP3 LT ISZERO PUSH2 0x1F77 JUMPI DUP4 PUSH2 0x21E8 DUP4 DUP6 PUSH2 0x1AC2 JUMP JUMPDEST SWAP1 SLOAD SWAP1 PUSH1 0x3 SHL SHR EQ PUSH2 0x21FD JUMPI POP PUSH1 0x1 ADD PUSH2 0x21D3 JUMP JUMPDEST SWAP2 SWAP3 POP SWAP1 PUSH1 0x0 NOT DUP2 ADD SWAP1 DUP2 GT PUSH2 0x934 JUMPI PUSH2 0x8D8 PUSH2 0x221D PUSH2 0x222B SWAP3 DUP6 PUSH2 0x1AC2 JUMP JUMPDEST SWAP1 SLOAD SWAP1 PUSH1 0x3 SHL SHR SWAP3 DUP5 PUSH2 0x1AC2 JUMP JUMPDEST SWAP1 SSTORE DUP1 SLOAD DUP1 ISZERO PUSH2 0x1E9F JUMPI PUSH1 0x0 NOT ADD SWAP1 PUSH2 0x2244 DUP3 DUP3 PUSH2 0x1AC2 JUMP JUMPDEST DUP2 SLOAD SWAP1 PUSH1 0x0 NOT SWAP1 PUSH1 0x3 SHL SHL NOT AND SWAP1 SSTORE SSTORE JUMP INVALID LOG2 PUSH5 0x6970667358 0x22 SLT KECCAK256 PUSH26 0xE8E9663E679E6657B3FF998742E4CB5F39B6C2BAD77B61DF43D 0xC3 SWAP8 0xD9 NOT SWAP2 PUSH5 0x736F6C6343 STOP ADDMOD 0x1E STOP CALLER "},"methodIdentifiers":{"accumulatedFee()":"f8ce3164","buyOrderBook(address,address,uint256)":"0933b2ae","cancelBuyOrder(address,address,uint256,bytes32)":"117c0bc0","cancelSellOrder(address,address,uint256,bytes32)":"99db37c5","collateralToken()":"b2016bd4","collectFees()":"c8796572","feeRate()":"978bbdb9","getBestAsk(address,address)":"5671eed2","getBestBid(address,address)":"b9f8b5aa","marketFactory()":"06ae7095","owner()":"8da5cb5b","placeBuyOrder(address,address,uint256,uint256)":"a05118c2","placeSellOrder(address,address,uint256,uint256)":"10d16b59","renounceOwnership()":"715018a6","sellOrderBook(address,address,uint256)":"49268191","setFeeRate(uint16)":"29ff0773","transferOwnership(address)":"f2fde38b"}}}}}