{"contracts/BrimdexParimutuelMarket.sol":{"BrimdexParimutuelMarket":{"abi":[{"inputs":[{"internalType":"address","name":"_collateralToken","type":"address"},{"internalType":"address","name":"_boundToken","type":"address"},{"internalType":"address","name":"_breakToken","type":"address"},{"internalType":"address","name":"_owner","type":"address"},{"internalType":"address","name":"_factory","type":"address"}],"stateMutability":"nonpayable","type":"constructor"},{"inputs":[{"internalType":"address","name":"owner","type":"address"}],"name":"OwnableInvalidOwner","type":"error"},{"inputs":[{"internalType":"address","name":"account","type":"address"}],"name":"OwnableUnauthorizedAccount","type":"error"},{"inputs":[{"internalType":"address","name":"token","type":"address"}],"name":"SafeERC20FailedOperation","type":"error"},{"anonymous":false,"inputs":[{"indexed":true,"internalType":"address","name":"buyer","type":"address"},{"indexed":false,"internalType":"uint256","name":"amount","type":"uint256"},{"indexed":false,"internalType":"uint256","name":"tokens","type":"uint256"},{"indexed":false,"internalType":"uint256","name":"price","type":"uint256"}],"name":"BoundPurchased","type":"event"},{"anonymous":false,"inputs":[{"indexed":true,"internalType":"address","name":"buyer","type":"address"},{"indexed":false,"internalType":"uint256","name":"amount","type":"uint256"},{"indexed":false,"internalType":"uint256","name":"tokens","type":"uint256"},{"indexed":false,"internalType":"uint256","name":"price","type":"uint256"}],"name":"BreakPurchased","type":"event"},{"anonymous":false,"inputs":[{"indexed":false,"internalType":"string","name":"name","type":"string"},{"indexed":false,"internalType":"uint256","name":"lowerBound","type":"uint256"},{"indexed":false,"internalType":"uint256","name":"upperBound","type":"uint256"},{"indexed":false,"internalType":"uint256","name":"expiryTimestamp","type":"uint256"}],"name":"MarketInitialized","type":"event"},{"anonymous":false,"inputs":[{"indexed":false,"internalType":"bool","name":"boundWins","type":"bool"},{"indexed":false,"internalType":"uint256","name":"totalPool","type":"uint256"},{"indexed":false,"internalType":"uint256","name":"winnings","type":"uint256"}],"name":"MarketSettled","type":"event"},{"anonymous":false,"inputs":[{"indexed":true,"internalType":"address","name":"previousOwner","type":"address"},{"indexed":true,"internalType":"address","name":"newOwner","type":"address"}],"name":"OwnershipTransferred","type":"event"},{"anonymous":false,"inputs":[{"indexed":true,"internalType":"address","name":"user","type":"address"},{"indexed":false,"internalType":"uint256","name":"tokens","type":"uint256"},{"indexed":false,"internalType":"uint256","name":"payout","type":"uint256"}],"name":"TokensRedeemed","type":"event"},{"inputs":[],"name":"BOOTSTRAP_BOUND","outputs":[{"internalType":"uint256","name":"","type":"uint256"}],"stateMutability":"view","type":"function"},{"inputs":[],"name":"BOOTSTRAP_BREAK","outputs":[{"internalType":"uint256","name":"","type":"uint256"}],"stateMutability":"view","type":"function"},{"inputs":[],"name":"BPS_DENOMINATOR","outputs":[{"internalType":"uint256","name":"","type":"uint256"}],"stateMutability":"view","type":"function"},{"inputs":[],"name":"FEE_BPS","outputs":[{"internalType":"uint256","name":"","type":"uint256"}],"stateMutability":"view","type":"function"},{"inputs":[],"name":"boundPool","outputs":[{"internalType":"uint256","name":"","type":"uint256"}],"stateMutability":"view","type":"function"},{"inputs":[],"name":"boundToken","outputs":[{"internalType":"contract BrimdexParimutuelToken","name":"","type":"address"}],"stateMutability":"view","type":"function"},{"inputs":[],"name":"boundWins","outputs":[{"internalType":"bool","name":"","type":"bool"}],"stateMutability":"view","type":"function"},{"inputs":[],"name":"breakPool","outputs":[{"internalType":"uint256","name":"","type":"uint256"}],"stateMutability":"view","type":"function"},{"inputs":[],"name":"breakToken","outputs":[{"internalType":"contract BrimdexParimutuelToken","name":"","type":"address"}],"stateMutability":"view","type":"function"},{"inputs":[{"internalType":"uint256","name":"amount","type":"uint256"}],"name":"buyBound","outputs":[],"stateMutability":"nonpayable","type":"function"},{"inputs":[{"internalType":"uint256","name":"amount","type":"uint256"}],"name":"buyBreak","outputs":[],"stateMutability":"nonpayable","type":"function"},{"inputs":[],"name":"collateralToken","outputs":[{"internalType":"contract IERC20","name":"","type":"address"}],"stateMutability":"view","type":"function"},{"inputs":[],"name":"factory","outputs":[{"internalType":"address","name":"","type":"address"}],"stateMutability":"view","type":"function"},{"inputs":[],"name":"getBoundPrice","outputs":[{"internalType":"uint256","name":"","type":"uint256"}],"stateMutability":"view","type":"function"},{"inputs":[],"name":"getBreakPrice","outputs":[{"internalType":"uint256","name":"","type":"uint256"}],"stateMutability":"view","type":"function"},{"inputs":[{"internalType":"bool","name":"isBound","type":"bool"},{"internalType":"uint256","name":"tokens","type":"uint256"}],"name":"getEstimatedPayout","outputs":[{"internalType":"uint256","name":"","type":"uint256"}],"stateMutability":"view","type":"function"},{"inputs":[{"internalType":"bool","name":"isBound","type":"bool"},{"internalType":"uint256","name":"amount","type":"uint256"}],"name":"getEstimatedTokens","outputs":[{"internalType":"uint256","name":"","type":"uint256"}],"stateMutability":"view","type":"function"},{"inputs":[{"internalType":"string","name":"_name","type":"string"},{"internalType":"uint256","name":"_lowerBound","type":"uint256"},{"internalType":"uint256","name":"_upperBound","type":"uint256"},{"internalType":"uint256","name":"_expiryTimestamp","type":"uint256"},{"internalType":"uint256","name":"_startPrice","type":"uint256"}],"name":"initialize","outputs":[],"stateMutability":"nonpayable","type":"function"},{"inputs":[],"name":"marketConfig","outputs":[{"internalType":"string","name":"name","type":"string"},{"internalType":"uint256","name":"lowerBound","type":"uint256"},{"internalType":"uint256","name":"upperBound","type":"uint256"},{"internalType":"uint256","name":"expiryTimestamp","type":"uint256"},{"internalType":"uint256","name":"creationTimestamp","type":"uint256"},{"internalType":"uint256","name":"startPrice","type":"uint256"},{"internalType":"bool","name":"initialized","type":"bool"},{"internalType":"bool","name":"settled","type":"bool"}],"stateMutability":"view","type":"function"},{"inputs":[],"name":"owner","outputs":[{"internalType":"address","name":"","type":"address"}],"stateMutability":"view","type":"function"},{"inputs":[{"internalType":"bool","name":"isBound","type":"bool"},{"internalType":"uint256","name":"amount","type":"uint256"}],"name":"redeem","outputs":[],"stateMutability":"nonpayable","type":"function"},{"inputs":[],"name":"redemptionRate","outputs":[{"internalType":"uint256","name":"","type":"uint256"}],"stateMutability":"view","type":"function"},{"inputs":[],"name":"renounceOwnership","outputs":[],"stateMutability":"nonpayable","type":"function"},{"inputs":[{"internalType":"uint256","name":"finalPrice","type":"uint256"}],"name":"settle","outputs":[],"stateMutability":"nonpayable","type":"function"},{"inputs":[{"internalType":"address","name":"newOwner","type":"address"}],"name":"transferOwnership","outputs":[],"stateMutability":"nonpayable","type":"function"}],"evm":{"bytecode":{"linkReferences":{},"object":"610100346101a557601f611fc538819003918201601f19168301916001600160401b038311848410176101aa5780849260a0946040528339810103126101a557610048816101c0565b90610055602082016101c0565b610061604083016101c0565b9061007a6080610073606086016101c0565b94016101c0565b6001600160a01b0390931693841561018f57600080546001600160a01b031981168717825560405196916001600160a01b03909116907f8be0079c531659141344cd1fd0a4f28419497f9722a3daafe3b4186f6b6457e09080a36001600160a01b0390811660805290811660a0521660c05260e052611df090816101d58239608051818181610232015281816106c7015281816108e501528181610a7301528181610be60152611272015260a0518181816101890152818161097901528181610b5b015281816112b00152818161171a0152611a12015260c0518181816103b60152818161075c01528181610cc101528181610ec5015281816113160152611ac2015260e05181818161086d01526111060152f35b631e4fbdf760e01b600052600060045260246000fd5b600080fd5b634e487b7160e01b600052604160045260246000fd5b51906001600160a01b03821682036101a55756fe608080604052600436101561001357600080fd5b600090813560e01c90816314445acd14611749575080631c787f8a146117045780631e7fea201461107d57806322069f821461106257806323c113dc14610f46578063295ce5e514610f2c5780632a3c59b414610f0e5780632c18234a146108525780633e4ff03a14610ef45780634c2ccf7414610eaf578063540385a314610e91578063715018a614610e375780638da5cb5b14610e105780638df8280014610aa2578063b2016bd414610a5d578063bf333f2c14610a41578063c3d3ad011461089c578063c45a015514610857578063c6d73b6d14610852578063ced2502c14610674578063e1a4521814610657578063f2fde38b146105cd578063f70e9066146105aa578063f8f6e9a2146105875763fb3c967f1461013457600080fd5b346105845761014236611818565b9060ff60075460081c161561055157600a541561051357610164821515611c1f565b156103975760ff600b54161561035e576040516370a0823160e01b81523360048201527f00000000000000000000000000000000000000000000000000000000000000006001600160a01b031690602081602481855afa80156103535783918591610319575b50106102df578083913b156102d05760405163079cc67960e41b8152336004820152602481018490529082908290604490829084905af180156102d4576102bb575b5050670de0b6b3a7640000610223600a5483611878565b045b801561028a5761025681337f0000000000000000000000000000000000000000000000000000000000000000611c98565b60405191825260208201527fd171fb179b26c49e23fe46eddd44d3048a1ad277b62144ac0725fbcf1dbf6d5260403392a280f35b60405162461bcd60e51b8152602060048201526009602482015268139bc81c185e5bdd5d60ba1b6044820152606490fd5b816102c591611765565b6102d057813861020c565b5080fd5b6040513d84823e3d90fd5b60405162461bcd60e51b8152602060048201526012602482015271125b9cdd59999a58da595b9d081093d5539160721b6044820152606490fd5b9150506020813d60201161034b575b8161033560209383611765565b8101031261034657829051386101ca565b600080fd5b3d9150610328565b6040513d86823e3d90fd5b60405162461bcd60e51b81526020600482015260116024820152702127aaa722103234b2103737ba103bb4b760791b6044820152606490fd5b60ff600b54166104da576040516370a0823160e01b81523360048201527f00000000000000000000000000000000000000000000000000000000000000006001600160a01b031690602081602481855afa801561035357839185916104a5575b501061046b578083913b156102d05760405163079cc67960e41b8152336004820152602481018490529082908290604490829084905af180156102d457610456575b5050670de0b6b3a7640000610450600a5483611878565b04610225565b8161046091611765565b6102d0578138610439565b60405162461bcd60e51b8152602060048201526012602482015271496e73756666696369656e7420425245414b60701b6044820152606490fd5b9150506020813d6020116104d2575b816104c160209383611765565b8101031261034657829051386103f7565b3d91506104b4565b60405162461bcd60e51b8152602060048201526011602482015270212922a0a5903234b2103737ba103bb4b760791b6044820152606490fd5b60405162461bcd60e51b8152602060048201526016602482015275139bc81c9959195b5c1d1a5bdb881c985d19481cd95d60521b6044820152606490fd5b60405162461bcd60e51b815260206004820152600b60248201526a139bdd081cd95d1d1b195960aa1b6044820152606490fd5b80fd5b503461058457806003193601126105845760206105a2611c60565b604051908152f35b5034610584578060031936011261058457602060ff600b54166040519015158152f35b5034610584576020366003190112610584576004356001600160a01b038116908190036102d0576105fc611c6f565b80156106435781546001600160a01b03198116821783556001600160a01b03167f8be0079c531659141344cd1fd0a4f28419497f9722a3daafe3b4186f6b6457e08380a380f35b631e4fbdf760e01b82526004829052602482fd5b503461058457806003193601126105845760206040516127108152f35b5034610584576020366003190112610584576004356106a660ff60075461069c828216611b67565b60081c1615611ba5565b6106b36004544210611be2565b80156106bf8115611c1f565b6106eb8230337f0000000000000000000000000000000000000000000000000000000000000000611cdb565b6008546106fb6009548092611855565b90670de0b6b3a7640000810290808204670de0b6b3a7640000149015171561083e57906107279161188b565b90670de0b6b3a7640000830290838204670de0b6b3a764000014171561082a576107578264e8d4a510009261188b565b0490837f00000000000000000000000000000000000000000000000000000000000000006001600160a01b0316803b156102d0576040516340c10f1960e01b8152336004820152602481018590529082908290604490829084905af180156102d457610811575b50507f3e76c10d8f0390ab59ba604608ca53dd4b0ec88e263c96e4070b3f3b7f36d92f916107ee84600954611855565b600955604080519485526020850191909152830152339180606081015b0390a280f35b8161081b91611765565b6108265783386107be565b8380fd5b634e487b7160e01b84526011600452602484fd5b634e487b7160e01b85526011600452602485fd5b611837565b50346105845780600319360112610584576040517f00000000000000000000000000000000000000000000000000000000000000006001600160a01b03168152602090f35b5034610584576020366003190112610584576004356108c460ff60075461069c828216611b67565b6108d16004544210611be2565b80156108dd8115611c1f565b6109098230337f0000000000000000000000000000000000000000000000000000000000000000611cdb565b60085461091860095482611855565b90670de0b6b3a7640000810290808204670de0b6b3a7640000149015171561083e57906109449161188b565b90670de0b6b3a7640000830290838204670de0b6b3a764000014171561082a576109748264e8d4a510009261188b565b0490837f00000000000000000000000000000000000000000000000000000000000000006001600160a01b0316803b156102d0576040516340c10f1960e01b8152336004820152602481018590529082908290604490829084905af180156102d457610a2c575b50507f3a0e536fe3b9046ba1af260950d928ecb66cd524b0fee6ccecd92cd94747a74091610a0b84600854611855565b6008556040805194855260208501919091528301523391806060810161080b565b81610a3691611765565b6108265783386109db565b5034610584578060031936011261058457602060405160c88152f35b50346105845780600319360112610584576040517f00000000000000000000000000000000000000000000000000000000000000006001600160a01b03168152602090f35b503461058457602036600319011261058457600435610abf611c6f565b600754610ace60ff8216611b67565b60ff8160081c16610dd9576004544210610da6576002548210159182610d97575b506101009060ff8019600b541693151516809317600b5561ff00191617600755610b1e60085460095490611855565b9060c8820282810460c8148315171561082a5761271090048083039183831161083e5715610cac576040516318160ddd60e01b81526020816004817f00000000000000000000000000000000000000000000000000000000000000006001600160a01b03165afa908115610ca1578591610c6f575b5080610c10575b5091606091600080516020611d7b833981519152935b80610bd4575b5060ff600b541691604051921515835260208301526040820152a180f35b8554610c0a91906001600160a01b03167f0000000000000000000000000000000000000000000000000000000000000000611c98565b38610bb6565b670de0b6b3a76400008302838104670de0b6b3a7640000148386141715610c5b5791610c4f60609492600080516020611d7b833981519152969461188b565b600a5591935091610b9a565b634e487b7160e01b86526011600452602486fd5b90506020813d602011610c99575b81610c8a60209383611765565b81010312610346575138610b93565b3d9150610c7d565b6040513d87823e3d90fd5b6040516318160ddd60e01b81526020816004817f00000000000000000000000000000000000000000000000000000000000000006001600160a01b03165afa908115610ca1578591610d65575b5080610d1a575b5091606091600080516020611d7b83398151915293610bb0565b670de0b6b3a76400008302838104670de0b6b3a7640000148386141715610c5b5791610d5960609492600080516020611d7b833981519152969461188b565b600a5591935091610d00565b90506020813d602011610d8f575b81610d8060209383611765565b81010312610346575138610cf9565b3d9150610d73565b60035410159150610100610aef565b60405162461bcd60e51b815260206004820152600b60248201526a139bdd08195e1c1a5c995960aa1b6044820152606490fd5b60405162461bcd60e51b815260206004820152600f60248201526e105b1c9958591e481cd95d1d1b1959608a1b6044820152606490fd5b5034610584578060031936011261058457546040516001600160a01b039091168152602090f35b5034610584578060031936011261058457610e50611c6f565b80546001600160a01b03198116825581906001600160a01b03167f8be0079c531659141344cd1fd0a4f28419497f9722a3daafe3b4186f6b6457e08280a380f35b50346105845780600319360112610584576020600a54604051908152f35b50346105845780600319360112610584576040517f00000000000000000000000000000000000000000000000000000000000000006001600160a01b03168152602090f35b50346105845760206105a2610f0836611818565b906119be565b50346105845780600319360112610584576020600854604051908152f35b50346105845760206105a2610f4036611818565b906118fc565b5034610584578060031936011261058457604051908060015490610f698261179d565b808552916001811690811561103b5750600114610ff0575b610fbd84610f9181860382611765565b60025460ff60035460045460055460065491600754936040519889986101008a526101008a01906117d7565b96602089015260408801526060870152608086015260a0850152818116151560c085015260081c16151560e08301520390f35b60018152600080516020611d9b833981519152939250905b80821061102157509091508101602001610f9182610f81565b919260018160209254838588010152019101909291611008565b60ff191660208087019190915292151560051b85019092019250610f919150839050610f81565b503461058457806003193601126105845760206105a26118ab565b50346105845760a03660031901126105845760043567ffffffffffffffff81116102d057366023820112156102d05780600401359067ffffffffffffffff82116116f0578290604051926110db6020601f19601f8401160185611765565b80845236602482840101116116ec5780602460209301838601378301015260643590602435604435337f00000000000000000000000000000000000000000000000000000000000000006001600160a01b03161480156116d9575b156116a35760ff60075416611668574284111561163257808210156115fc57825180151590816115f0575b50156115ab57604051610100810181811067ffffffffffffffff8211176115975760405283815260208101908382526040810183815260608201878152608083019042825260a0840192608435845260e060c08601956001875201958b8752895167ffffffffffffffff8111611583576111dc60015461179d565b8d601f8211611514575b5081905060208e6001601f8411146114a25791611497575b508160011b916000199060031b1c1916176001555b516002555160035551600455516005555160065551151560ff80196007541691161760075551151561ff006007549160081b169061ff001916176007556040516370a0823160e01b815230600482015260208160248160018060a01b037f0000000000000000000000000000000000000000000000000000000000000000165afa801561140d57869061145d575b6301312d0091501061141857847f00000000000000000000000000000000000000000000000000000000000000006001600160a01b0316803b156102d05781906044604051809481936340c10f1960e01b835261dead60048401526298968060248401525af1801561140d576113f9575b50847f00000000000000000000000000000000000000000000000000000000000000006001600160a01b0316803b156102d0578180916044604051809481936340c10f1960e01b835261dead60048401526298968060248401525af180156102d4576113da575b50927fed39e1c72aedc6b7c401cd26bf78ad00977be2331d1ac8766efa2be79994bd7492856113c49362989680600855629896806009556040519485946080865260808601906117d7565b926020850152604084015260608301520390a180f35b816113e89195949395611765565b6113f55790918438611379565b8480fd5b8561140691969296611765565b9338611312565b6040513d88823e3d90fd5b60405162461bcd60e51b815260206004820152601c60248201527f496e73756666696369656e7420626f6f7473747261702066756e6473000000006044820152606490fd5b506020813d60201161148f575b8161147760209383611765565b8101031261148b576301312d0090516112a1565b8580fd5b3d915061146a565b90508b0151386111fe565b60018152600080516020611d9b8339815191529250601f198416908e5b8282106114fb57505090836001949392106114e2575b5050811b01600155611213565b8d015160001960f88460031b161c1916905538806114d5565b600184956020939584930151815501940192018e6114bf565b60019052601f820160051c600080516020611d9b83398151915201906020831061156d575b601f8f910160051c600080516020611d9b83398151915201915b82811061156057506111e6565b6001918155018e90611553565b600080516020611d9b8339815191529150611539565b634e487b7160e01b8d52604160045260248dfd5b634e487b7160e01b87526041600452602487fd5b60405162461bcd60e51b815260206004820152601b60248201527f4e616d65206d75737420626520312d38206368617261637465727300000000006044820152606490fd5b60089150111538611161565b60405162461bcd60e51b815260206004820152600e60248201526d496e76616c696420626f756e647360901b6044820152606490fd5b60405162461bcd60e51b815260206004820152600e60248201526d496e76616c69642065787069727960901b6044820152606490fd5b60405162461bcd60e51b8152602060048201526013602482015272105b1c9958591e481a5b9a5d1a585b1a5e9959606a1b6044820152606490fd5b60405162461bcd60e51b815260206004820152600e60248201526d139bdd08185d5d1a1bdc9a5e995960921b6044820152606490fd5b5084546001600160a01b03163314611136565b8280fd5b634e487b7160e01b83526041600452602483fd5b50346105845780600319360112610584576040517f00000000000000000000000000000000000000000000000000000000000000006001600160a01b03168152602090f35b9050346102d057816003193601126102d0576020906009548152f35b90601f8019910116810190811067ffffffffffffffff82111761178757604052565b634e487b7160e01b600052604160045260246000fd5b90600182811c921680156117cd575b60208310146117b757565b634e487b7160e01b600052602260045260246000fd5b91607f16916117ac565b919082519283825260005b848110611803575050826000602080949584010152601f8019910116010190565b806020809284010151828286010152016117e2565b6040906003190112610346576004358015158103610346579060243590565b34610346576000366003190112610346576020604051629896808152f35b9190820180921161186257565b634e487b7160e01b600052601160045260246000fd5b8181029291811591840414171561186257565b8115611895570490565b634e487b7160e01b600052601260045260246000fd5b6008546118bb6009548092611855565b80156118ee57670de0b6b3a7640000820291808304670de0b6b3a76400001490151715611862576118eb9161188b565b90565b50506706f05b59d3b2000090565b6008549060095461190d8184611855565b9182156119a4571561197b5750670de0b6b3a7640000820291808304670de0b6b3a76400001490151715611862576119449161188b565b905b670de0b6b3a7640000810290808204670de0b6b3a764000014901517156118625764e8d4a51000916119779161188b565b0490565b670de0b6b3a7640000808202935081159184041417156118625761199e9161188b565b90611946565b505050508060011b90808204600214901517156118625790565b9060ff60075460081c16611b0e576119db60085460095490611855565b8015611a64576126488102908104612648036118625761271090049115611aac576040516318160ddd60e01b8152906020826004817f00000000000000000000000000000000000000000000000000000000000000006001600160a01b03165afa918215611aa057600092611a6c575b508115611a64576118eb92611a5f91611878565b61188b565b505050600090565b90916020823d602011611a98575b81611a8760209383611765565b810103126105845750519038611a4b565b3d9150611a7a565b6040513d6000823e3d90fd5b6040516318160ddd60e01b8152906020826004817f00000000000000000000000000000000000000000000000000000000000000006001600160a01b03165afa918215611aa057600092611a6c57508115611a64576118eb92611a5f91611878565b908080611b5a575b8115611b3e575b50611b285750600090565b611977670de0b6b3a764000091600a5490611878565b90501580611b4d575b38611b1d565b5060ff600b541615611b47565b600b5460ff169150611b16565b15611b6e57565b60405162461bcd60e51b815260206004820152600f60248201526e139bdd081a5b9a5d1a585b1a5e9959608a1b6044820152606490fd5b15611bac57565b60405162461bcd60e51b815260206004820152600e60248201526d13585c9ad95d081cd95d1d1b195960921b6044820152606490fd5b15611be957565b60405162461bcd60e51b815260206004820152600e60248201526d13585c9ad95d08195e1c1a5c995960921b6044820152606490fd5b15611c2657565b60405162461bcd60e51b81526020600482015260126024820152710416d6f756e74206d757374206265203e20360741b6044820152606490fd5b6008546118bb60095482611855565b6000546001600160a01b03163303611c8357565b63118cdaa760e01b6000523360045260246000fd5b60405163a9059cbb60e01b60208201526001600160a01b03929092166024830152604480830193909352918152611cd991611cd4606483611765565b611d1f565b565b6040516323b872dd60e01b60208201526001600160a01b039283166024820152929091166044830152606480830193909352918152611cd991611cd4608483611765565b906000602091828151910182855af115611aa0576000513d611d7157506001600160a01b0381163b155b611d505750565b635274afe760e01b60009081526001600160a01b0391909116600452602490fd5b60011415611d4956fe7adf19c920ce2e6ab865378ed1351c2323bb77bc208340a1482f9c1d3bb11a8bb10e2d527612073b26eecdfd717e6a320cf44b4afac2b0732d9fcbe2b7fa0cf6a2646970667358221220bce229063376b7671ace1461c719173d44db95e3a1979094c6ac26c60bfe98dd64736f6c634300081e0033","opcodes":"PUSH2 0x100 CALLVALUE PUSH2 0x1A5 JUMPI PUSH1 0x1F PUSH2 0x1FC5 CODESIZE DUP2 SWAP1 SUB SWAP2 DUP3 ADD PUSH1 0x1F NOT AND DUP4 ADD SWAP2 PUSH1 0x1 PUSH1 0x1 PUSH1 0x40 SHL SUB DUP4 GT DUP5 DUP5 LT OR PUSH2 0x1AA JUMPI DUP1 DUP5 SWAP3 PUSH1 0xA0 SWAP5 PUSH1 0x40 MSTORE DUP4 CODECOPY DUP2 ADD SUB SLT PUSH2 0x1A5 JUMPI PUSH2 0x48 DUP2 PUSH2 0x1C0 JUMP JUMPDEST SWAP1 PUSH2 0x55 PUSH1 0x20 DUP3 ADD PUSH2 0x1C0 JUMP JUMPDEST PUSH2 0x61 PUSH1 0x40 DUP4 ADD PUSH2 0x1C0 JUMP JUMPDEST SWAP1 PUSH2 0x7A PUSH1 0x80 PUSH2 0x73 PUSH1 0x60 DUP7 ADD PUSH2 0x1C0 JUMP JUMPDEST SWAP5 ADD PUSH2 0x1C0 JUMP JUMPDEST PUSH1 0x1 PUSH1 0x1 PUSH1 0xA0 SHL SUB SWAP1 SWAP4 AND SWAP4 DUP5 ISZERO PUSH2 0x18F JUMPI PUSH1 0x0 DUP1 SLOAD PUSH1 0x1 PUSH1 0x1 PUSH1 0xA0 SHL SUB NOT DUP2 AND DUP8 OR DUP3 SSTORE PUSH1 0x40 MLOAD SWAP7 SWAP2 PUSH1 0x1 PUSH1 0x1 PUSH1 0xA0 SHL SUB SWAP1 SWAP2 AND SWAP1 PUSH32 0x8BE0079C531659141344CD1FD0A4F28419497F9722A3DAAFE3B4186F6B6457E0 SWAP1 DUP1 LOG3 PUSH1 0x1 PUSH1 0x1 PUSH1 0xA0 SHL SUB SWAP1 DUP2 AND PUSH1 0x80 MSTORE SWAP1 DUP2 AND PUSH1 0xA0 MSTORE AND PUSH1 0xC0 MSTORE PUSH1 0xE0 MSTORE PUSH2 0x1DF0 SWAP1 DUP2 PUSH2 0x1D5 DUP3 CODECOPY PUSH1 0x80 MLOAD DUP2 DUP2 DUP2 PUSH2 0x232 ADD MSTORE DUP2 DUP2 PUSH2 0x6C7 ADD MSTORE DUP2 DUP2 PUSH2 0x8E5 ADD MSTORE DUP2 DUP2 PUSH2 0xA73 ADD MSTORE DUP2 DUP2 PUSH2 0xBE6 ADD MSTORE PUSH2 0x1272 ADD MSTORE PUSH1 0xA0 MLOAD DUP2 DUP2 DUP2 PUSH2 0x189 ADD MSTORE DUP2 DUP2 PUSH2 0x979 ADD MSTORE DUP2 DUP2 PUSH2 0xB5B ADD MSTORE DUP2 DUP2 PUSH2 0x12B0 ADD MSTORE DUP2 DUP2 PUSH2 0x171A ADD MSTORE PUSH2 0x1A12 ADD MSTORE PUSH1 0xC0 MLOAD DUP2 DUP2 DUP2 PUSH2 0x3B6 ADD MSTORE DUP2 DUP2 PUSH2 0x75C ADD MSTORE DUP2 DUP2 PUSH2 0xCC1 ADD MSTORE DUP2 DUP2 PUSH2 0xEC5 ADD MSTORE DUP2 DUP2 PUSH2 0x1316 ADD MSTORE PUSH2 0x1AC2 ADD MSTORE PUSH1 0xE0 MLOAD DUP2 DUP2 DUP2 PUSH2 0x86D ADD MSTORE PUSH2 0x1106 ADD MSTORE RETURN JUMPDEST PUSH4 0x1E4FBDF7 PUSH1 0xE0 SHL PUSH1 0x0 MSTORE PUSH1 0x0 PUSH1 0x4 MSTORE PUSH1 0x24 PUSH1 0x0 REVERT JUMPDEST PUSH1 0x0 DUP1 REVERT JUMPDEST PUSH4 0x4E487B71 PUSH1 0xE0 SHL PUSH1 0x0 MSTORE PUSH1 0x41 PUSH1 0x4 MSTORE PUSH1 0x24 PUSH1 0x0 REVERT JUMPDEST MLOAD SWAP1 PUSH1 0x1 PUSH1 0x1 PUSH1 0xA0 SHL SUB DUP3 AND DUP3 SUB PUSH2 0x1A5 JUMPI JUMP INVALID PUSH1 0x80 DUP1 PUSH1 0x40 MSTORE PUSH1 0x4 CALLDATASIZE LT ISZERO PUSH2 0x13 JUMPI PUSH1 0x0 DUP1 REVERT JUMPDEST PUSH1 0x0 SWAP1 DUP2 CALLDATALOAD PUSH1 0xE0 SHR SWAP1 DUP2 PUSH4 0x14445ACD EQ PUSH2 0x1749 JUMPI POP DUP1 PUSH4 0x1C787F8A EQ PUSH2 0x1704 JUMPI DUP1 PUSH4 0x1E7FEA20 EQ PUSH2 0x107D JUMPI DUP1 PUSH4 0x22069F82 EQ PUSH2 0x1062 JUMPI DUP1 PUSH4 0x23C113DC EQ PUSH2 0xF46 JUMPI DUP1 PUSH4 0x295CE5E5 EQ PUSH2 0xF2C JUMPI DUP1 PUSH4 0x2A3C59B4 EQ PUSH2 0xF0E JUMPI DUP1 PUSH4 0x2C18234A EQ PUSH2 0x852 JUMPI DUP1 PUSH4 0x3E4FF03A EQ PUSH2 0xEF4 JUMPI DUP1 PUSH4 0x4C2CCF74 EQ PUSH2 0xEAF JUMPI DUP1 PUSH4 0x540385A3 EQ PUSH2 0xE91 JUMPI DUP1 PUSH4 0x715018A6 EQ PUSH2 0xE37 JUMPI DUP1 PUSH4 0x8DA5CB5B EQ PUSH2 0xE10 JUMPI DUP1 PUSH4 0x8DF82800 EQ PUSH2 0xAA2 JUMPI DUP1 PUSH4 0xB2016BD4 EQ PUSH2 0xA5D JUMPI DUP1 PUSH4 0xBF333F2C EQ PUSH2 0xA41 JUMPI DUP1 PUSH4 0xC3D3AD01 EQ PUSH2 0x89C JUMPI DUP1 PUSH4 0xC45A0155 EQ PUSH2 0x857 JUMPI DUP1 PUSH4 0xC6D73B6D EQ PUSH2 0x852 JUMPI DUP1 PUSH4 0xCED2502C EQ PUSH2 0x674 JUMPI DUP1 PUSH4 0xE1A45218 EQ PUSH2 0x657 JUMPI DUP1 PUSH4 0xF2FDE38B EQ PUSH2 0x5CD JUMPI DUP1 PUSH4 0xF70E9066 EQ PUSH2 0x5AA JUMPI DUP1 PUSH4 0xF8F6E9A2 EQ PUSH2 0x587 JUMPI PUSH4 0xFB3C967F EQ PUSH2 0x134 JUMPI PUSH1 0x0 DUP1 REVERT JUMPDEST CALLVALUE PUSH2 0x584 JUMPI PUSH2 0x142 CALLDATASIZE PUSH2 0x1818 JUMP JUMPDEST SWAP1 PUSH1 0xFF PUSH1 0x7 SLOAD PUSH1 0x8 SHR AND ISZERO PUSH2 0x551 JUMPI PUSH1 0xA SLOAD ISZERO PUSH2 0x513 JUMPI PUSH2 0x164 DUP3 ISZERO ISZERO PUSH2 0x1C1F JUMP JUMPDEST ISZERO PUSH2 0x397 JUMPI PUSH1 0xFF PUSH1 0xB SLOAD AND ISZERO PUSH2 0x35E JUMPI PUSH1 0x40 MLOAD PUSH4 0x70A08231 PUSH1 0xE0 SHL DUP2 MSTORE CALLER PUSH1 0x4 DUP3 ADD MSTORE PUSH32 0x0 PUSH1 0x1 PUSH1 0x1 PUSH1 0xA0 SHL SUB AND SWAP1 PUSH1 0x20 DUP2 PUSH1 0x24 DUP2 DUP6 GAS STATICCALL DUP1 ISZERO PUSH2 0x353 JUMPI DUP4 SWAP2 DUP6 SWAP2 PUSH2 0x319 JUMPI JUMPDEST POP LT PUSH2 0x2DF JUMPI DUP1 DUP4 SWAP2 EXTCODESIZE ISZERO PUSH2 0x2D0 JUMPI PUSH1 0x40 MLOAD PUSH4 0x79CC679 PUSH1 0xE4 SHL DUP2 MSTORE CALLER PUSH1 0x4 DUP3 ADD MSTORE PUSH1 0x24 DUP2 ADD DUP5 SWAP1 MSTORE SWAP1 DUP3 SWAP1 DUP3 SWAP1 PUSH1 0x44 SWAP1 DUP3 SWAP1 DUP5 SWAP1 GAS CALL DUP1 ISZERO PUSH2 0x2D4 JUMPI PUSH2 0x2BB JUMPI JUMPDEST POP POP PUSH8 0xDE0B6B3A7640000 PUSH2 0x223 PUSH1 0xA SLOAD DUP4 PUSH2 0x1878 JUMP JUMPDEST DIV JUMPDEST DUP1 ISZERO PUSH2 0x28A JUMPI PUSH2 0x256 DUP2 CALLER PUSH32 0x0 PUSH2 0x1C98 JUMP JUMPDEST PUSH1 0x40 MLOAD SWAP2 DUP3 MSTORE PUSH1 0x20 DUP3 ADD MSTORE PUSH32 0xD171FB179B26C49E23FE46EDDD44D3048A1AD277B62144AC0725FBCF1DBF6D52 PUSH1 0x40 CALLER SWAP3 LOG2 DUP1 RETURN JUMPDEST PUSH1 0x40 MLOAD PUSH3 0x461BCD PUSH1 0xE5 SHL DUP2 MSTORE PUSH1 0x20 PUSH1 0x4 DUP3 ADD MSTORE PUSH1 0x9 PUSH1 0x24 DUP3 ADD MSTORE PUSH9 0x139BC81C185E5BDD5D PUSH1 0xBA SHL PUSH1 0x44 DUP3 ADD MSTORE PUSH1 0x64 SWAP1 REVERT JUMPDEST DUP2 PUSH2 0x2C5 SWAP2 PUSH2 0x1765 JUMP JUMPDEST PUSH2 0x2D0 JUMPI DUP2 CODESIZE PUSH2 0x20C JUMP JUMPDEST POP DUP1 REVERT JUMPDEST PUSH1 0x40 MLOAD RETURNDATASIZE DUP5 DUP3 RETURNDATACOPY RETURNDATASIZE SWAP1 REVERT JUMPDEST PUSH1 0x40 MLOAD PUSH3 0x461BCD PUSH1 0xE5 SHL DUP2 MSTORE PUSH1 0x20 PUSH1 0x4 DUP3 ADD MSTORE PUSH1 0x12 PUSH1 0x24 DUP3 ADD MSTORE PUSH18 0x125B9CDD59999A58DA595B9D081093D55391 PUSH1 0x72 SHL PUSH1 0x44 DUP3 ADD MSTORE PUSH1 0x64 SWAP1 REVERT JUMPDEST SWAP2 POP POP PUSH1 0x20 DUP2 RETURNDATASIZE PUSH1 0x20 GT PUSH2 0x34B JUMPI JUMPDEST DUP2 PUSH2 0x335 PUSH1 0x20 SWAP4 DUP4 PUSH2 0x1765 JUMP JUMPDEST DUP2 ADD SUB SLT PUSH2 0x346 JUMPI DUP3 SWAP1 MLOAD CODESIZE PUSH2 0x1CA JUMP JUMPDEST PUSH1 0x0 DUP1 REVERT JUMPDEST RETURNDATASIZE SWAP2 POP PUSH2 0x328 JUMP JUMPDEST PUSH1 0x40 MLOAD RETURNDATASIZE DUP7 DUP3 RETURNDATACOPY RETURNDATASIZE SWAP1 REVERT JUMPDEST PUSH1 0x40 MLOAD PUSH3 0x461BCD PUSH1 0xE5 SHL DUP2 MSTORE PUSH1 0x20 PUSH1 0x4 DUP3 ADD MSTORE PUSH1 0x11 PUSH1 0x24 DUP3 ADD MSTORE PUSH17 0x2127AAA722103234B2103737BA103BB4B7 PUSH1 0x79 SHL PUSH1 0x44 DUP3 ADD MSTORE PUSH1 0x64 SWAP1 REVERT JUMPDEST PUSH1 0xFF PUSH1 0xB SLOAD AND PUSH2 0x4DA JUMPI PUSH1 0x40 MLOAD PUSH4 0x70A08231 PUSH1 0xE0 SHL DUP2 MSTORE CALLER PUSH1 0x4 DUP3 ADD MSTORE PUSH32 0x0 PUSH1 0x1 PUSH1 0x1 PUSH1 0xA0 SHL SUB AND SWAP1 PUSH1 0x20 DUP2 PUSH1 0x24 DUP2 DUP6 GAS STATICCALL DUP1 ISZERO PUSH2 0x353 JUMPI DUP4 SWAP2 DUP6 SWAP2 PUSH2 0x4A5 JUMPI JUMPDEST POP LT PUSH2 0x46B JUMPI DUP1 DUP4 SWAP2 EXTCODESIZE ISZERO PUSH2 0x2D0 JUMPI PUSH1 0x40 MLOAD PUSH4 0x79CC679 PUSH1 0xE4 SHL DUP2 MSTORE CALLER PUSH1 0x4 DUP3 ADD MSTORE PUSH1 0x24 DUP2 ADD DUP5 SWAP1 MSTORE SWAP1 DUP3 SWAP1 DUP3 SWAP1 PUSH1 0x44 SWAP1 DUP3 SWAP1 DUP5 SWAP1 GAS CALL DUP1 ISZERO PUSH2 0x2D4 JUMPI PUSH2 0x456 JUMPI JUMPDEST POP POP PUSH8 0xDE0B6B3A7640000 PUSH2 0x450 PUSH1 0xA SLOAD DUP4 PUSH2 0x1878 JUMP JUMPDEST DIV PUSH2 0x225 JUMP JUMPDEST DUP2 PUSH2 0x460 SWAP2 PUSH2 0x1765 JUMP JUMPDEST PUSH2 0x2D0 JUMPI DUP2 CODESIZE PUSH2 0x439 JUMP JUMPDEST PUSH1 0x40 MLOAD PUSH3 0x461BCD PUSH1 0xE5 SHL DUP2 MSTORE PUSH1 0x20 PUSH1 0x4 DUP3 ADD MSTORE PUSH1 0x12 PUSH1 0x24 DUP3 ADD MSTORE PUSH18 0x496E73756666696369656E7420425245414B PUSH1 0x70 SHL PUSH1 0x44 DUP3 ADD MSTORE PUSH1 0x64 SWAP1 REVERT JUMPDEST SWAP2 POP POP PUSH1 0x20 DUP2 RETURNDATASIZE PUSH1 0x20 GT PUSH2 0x4D2 JUMPI JUMPDEST DUP2 PUSH2 0x4C1 PUSH1 0x20 SWAP4 DUP4 PUSH2 0x1765 JUMP JUMPDEST DUP2 ADD SUB SLT PUSH2 0x346 JUMPI DUP3 SWAP1 MLOAD CODESIZE PUSH2 0x3F7 JUMP JUMPDEST RETURNDATASIZE SWAP2 POP PUSH2 0x4B4 JUMP JUMPDEST PUSH1 0x40 MLOAD PUSH3 0x461BCD PUSH1 0xE5 SHL DUP2 MSTORE PUSH1 0x20 PUSH1 0x4 DUP3 ADD MSTORE PUSH1 0x11 PUSH1 0x24 DUP3 ADD MSTORE PUSH17 0x212922A0A5903234B2103737BA103BB4B7 PUSH1 0x79 SHL PUSH1 0x44 DUP3 ADD MSTORE PUSH1 0x64 SWAP1 REVERT JUMPDEST PUSH1 0x40 MLOAD PUSH3 0x461BCD PUSH1 0xE5 SHL DUP2 MSTORE PUSH1 0x20 PUSH1 0x4 DUP3 ADD MSTORE PUSH1 0x16 PUSH1 0x24 DUP3 ADD MSTORE PUSH22 0x139BC81C9959195B5C1D1A5BDB881C985D19481CD95D PUSH1 0x52 SHL PUSH1 0x44 DUP3 ADD MSTORE PUSH1 0x64 SWAP1 REVERT JUMPDEST PUSH1 0x40 MLOAD PUSH3 0x461BCD PUSH1 0xE5 SHL DUP2 MSTORE PUSH1 0x20 PUSH1 0x4 DUP3 ADD MSTORE PUSH1 0xB PUSH1 0x24 DUP3 ADD MSTORE PUSH11 0x139BDD081CD95D1D1B1959 PUSH1 0xAA SHL PUSH1 0x44 DUP3 ADD MSTORE PUSH1 0x64 SWAP1 REVERT JUMPDEST DUP1 REVERT JUMPDEST POP CALLVALUE PUSH2 0x584 JUMPI DUP1 PUSH1 0x3 NOT CALLDATASIZE ADD SLT PUSH2 0x584 JUMPI PUSH1 0x20 PUSH2 0x5A2 PUSH2 0x1C60 JUMP JUMPDEST PUSH1 0x40 MLOAD SWAP1 DUP2 MSTORE RETURN JUMPDEST POP CALLVALUE PUSH2 0x584 JUMPI DUP1 PUSH1 0x3 NOT CALLDATASIZE ADD SLT PUSH2 0x584 JUMPI PUSH1 0x20 PUSH1 0xFF PUSH1 0xB SLOAD AND PUSH1 0x40 MLOAD SWAP1 ISZERO ISZERO DUP2 MSTORE RETURN JUMPDEST POP CALLVALUE PUSH2 0x584 JUMPI PUSH1 0x20 CALLDATASIZE PUSH1 0x3 NOT ADD SLT PUSH2 0x584 JUMPI PUSH1 0x4 CALLDATALOAD PUSH1 0x1 PUSH1 0x1 PUSH1 0xA0 SHL SUB DUP2 AND SWAP1 DUP2 SWAP1 SUB PUSH2 0x2D0 JUMPI PUSH2 0x5FC PUSH2 0x1C6F JUMP JUMPDEST DUP1 ISZERO PUSH2 0x643 JUMPI DUP2 SLOAD PUSH1 0x1 PUSH1 0x1 PUSH1 0xA0 SHL SUB NOT DUP2 AND DUP3 OR DUP4 SSTORE PUSH1 0x1 PUSH1 0x1 PUSH1 0xA0 SHL SUB AND PUSH32 0x8BE0079C531659141344CD1FD0A4F28419497F9722A3DAAFE3B4186F6B6457E0 DUP4 DUP1 LOG3 DUP1 RETURN JUMPDEST PUSH4 0x1E4FBDF7 PUSH1 0xE0 SHL DUP3 MSTORE PUSH1 0x4 DUP3 SWAP1 MSTORE PUSH1 0x24 DUP3 REVERT JUMPDEST POP CALLVALUE PUSH2 0x584 JUMPI DUP1 PUSH1 0x3 NOT CALLDATASIZE ADD SLT PUSH2 0x584 JUMPI PUSH1 0x20 PUSH1 0x40 MLOAD PUSH2 0x2710 DUP2 MSTORE RETURN JUMPDEST POP CALLVALUE PUSH2 0x584 JUMPI PUSH1 0x20 CALLDATASIZE PUSH1 0x3 NOT ADD SLT PUSH2 0x584 JUMPI PUSH1 0x4 CALLDATALOAD PUSH2 0x6A6 PUSH1 0xFF PUSH1 0x7 SLOAD PUSH2 0x69C DUP3 DUP3 AND PUSH2 0x1B67 JUMP JUMPDEST PUSH1 0x8 SHR AND ISZERO PUSH2 0x1BA5 JUMP JUMPDEST PUSH2 0x6B3 PUSH1 0x4 SLOAD TIMESTAMP LT PUSH2 0x1BE2 JUMP JUMPDEST DUP1 ISZERO PUSH2 0x6BF DUP2 ISZERO PUSH2 0x1C1F JUMP JUMPDEST PUSH2 0x6EB DUP3 ADDRESS CALLER PUSH32 0x0 PUSH2 0x1CDB JUMP JUMPDEST PUSH1 0x8 SLOAD PUSH2 0x6FB PUSH1 0x9 SLOAD DUP1 SWAP3 PUSH2 0x1855 JUMP JUMPDEST SWAP1 PUSH8 0xDE0B6B3A7640000 DUP2 MUL SWAP1 DUP1 DUP3 DIV PUSH8 0xDE0B6B3A7640000 EQ SWAP1 ISZERO OR ISZERO PUSH2 0x83E JUMPI SWAP1 PUSH2 0x727 SWAP2 PUSH2 0x188B JUMP JUMPDEST SWAP1 PUSH8 0xDE0B6B3A7640000 DUP4 MUL SWAP1 DUP4 DUP3 DIV PUSH8 0xDE0B6B3A7640000 EQ OR ISZERO PUSH2 0x82A JUMPI PUSH2 0x757 DUP3 PUSH5 0xE8D4A51000 SWAP3 PUSH2 0x188B JUMP JUMPDEST DIV SWAP1 DUP4 PUSH32 0x0 PUSH1 0x1 PUSH1 0x1 PUSH1 0xA0 SHL SUB AND DUP1 EXTCODESIZE ISZERO PUSH2 0x2D0 JUMPI PUSH1 0x40 MLOAD PUSH4 0x40C10F19 PUSH1 0xE0 SHL DUP2 MSTORE CALLER PUSH1 0x4 DUP3 ADD MSTORE PUSH1 0x24 DUP2 ADD DUP6 SWAP1 MSTORE SWAP1 DUP3 SWAP1 DUP3 SWAP1 PUSH1 0x44 SWAP1 DUP3 SWAP1 DUP5 SWAP1 GAS CALL DUP1 ISZERO PUSH2 0x2D4 JUMPI PUSH2 0x811 JUMPI JUMPDEST POP POP PUSH32 0x3E76C10D8F0390AB59BA604608CA53DD4B0EC88E263C96E4070B3F3B7F36D92F SWAP2 PUSH2 0x7EE DUP5 PUSH1 0x9 SLOAD PUSH2 0x1855 JUMP JUMPDEST PUSH1 0x9 SSTORE PUSH1 0x40 DUP1 MLOAD SWAP5 DUP6 MSTORE PUSH1 0x20 DUP6 ADD SWAP2 SWAP1 SWAP2 MSTORE DUP4 ADD MSTORE CALLER SWAP2 DUP1 PUSH1 0x60 DUP2 ADD JUMPDEST SUB SWAP1 LOG2 DUP1 RETURN JUMPDEST DUP2 PUSH2 0x81B SWAP2 PUSH2 0x1765 JUMP JUMPDEST PUSH2 0x826 JUMPI DUP4 CODESIZE PUSH2 0x7BE JUMP JUMPDEST DUP4 DUP1 REVERT JUMPDEST PUSH4 0x4E487B71 PUSH1 0xE0 SHL DUP5 MSTORE PUSH1 0x11 PUSH1 0x4 MSTORE PUSH1 0x24 DUP5 REVERT JUMPDEST PUSH4 0x4E487B71 PUSH1 0xE0 SHL DUP6 MSTORE PUSH1 0x11 PUSH1 0x4 MSTORE PUSH1 0x24 DUP6 REVERT JUMPDEST PUSH2 0x1837 JUMP JUMPDEST POP CALLVALUE PUSH2 0x584 JUMPI DUP1 PUSH1 0x3 NOT CALLDATASIZE ADD SLT PUSH2 0x584 JUMPI PUSH1 0x40 MLOAD PUSH32 0x0 PUSH1 0x1 PUSH1 0x1 PUSH1 0xA0 SHL SUB AND DUP2 MSTORE PUSH1 0x20 SWAP1 RETURN JUMPDEST POP CALLVALUE PUSH2 0x584 JUMPI PUSH1 0x20 CALLDATASIZE PUSH1 0x3 NOT ADD SLT PUSH2 0x584 JUMPI PUSH1 0x4 CALLDATALOAD PUSH2 0x8C4 PUSH1 0xFF PUSH1 0x7 SLOAD PUSH2 0x69C DUP3 DUP3 AND PUSH2 0x1B67 JUMP JUMPDEST PUSH2 0x8D1 PUSH1 0x4 SLOAD TIMESTAMP LT PUSH2 0x1BE2 JUMP JUMPDEST DUP1 ISZERO PUSH2 0x8DD DUP2 ISZERO PUSH2 0x1C1F JUMP JUMPDEST PUSH2 0x909 DUP3 ADDRESS CALLER PUSH32 0x0 PUSH2 0x1CDB JUMP JUMPDEST PUSH1 0x8 SLOAD PUSH2 0x918 PUSH1 0x9 SLOAD DUP3 PUSH2 0x1855 JUMP JUMPDEST SWAP1 PUSH8 0xDE0B6B3A7640000 DUP2 MUL SWAP1 DUP1 DUP3 DIV PUSH8 0xDE0B6B3A7640000 EQ SWAP1 ISZERO OR ISZERO PUSH2 0x83E JUMPI SWAP1 PUSH2 0x944 SWAP2 PUSH2 0x188B JUMP JUMPDEST SWAP1 PUSH8 0xDE0B6B3A7640000 DUP4 MUL SWAP1 DUP4 DUP3 DIV PUSH8 0xDE0B6B3A7640000 EQ OR ISZERO PUSH2 0x82A JUMPI PUSH2 0x974 DUP3 PUSH5 0xE8D4A51000 SWAP3 PUSH2 0x188B JUMP JUMPDEST DIV SWAP1 DUP4 PUSH32 0x0 PUSH1 0x1 PUSH1 0x1 PUSH1 0xA0 SHL SUB AND DUP1 EXTCODESIZE ISZERO PUSH2 0x2D0 JUMPI PUSH1 0x40 MLOAD PUSH4 0x40C10F19 PUSH1 0xE0 SHL DUP2 MSTORE CALLER PUSH1 0x4 DUP3 ADD MSTORE PUSH1 0x24 DUP2 ADD DUP6 SWAP1 MSTORE SWAP1 DUP3 SWAP1 DUP3 SWAP1 PUSH1 0x44 SWAP1 DUP3 SWAP1 DUP5 SWAP1 GAS CALL DUP1 ISZERO PUSH2 0x2D4 JUMPI PUSH2 0xA2C JUMPI JUMPDEST POP POP PUSH32 0x3A0E536FE3B9046BA1AF260950D928ECB66CD524B0FEE6CCECD92CD94747A740 SWAP2 PUSH2 0xA0B DUP5 PUSH1 0x8 SLOAD PUSH2 0x1855 JUMP JUMPDEST PUSH1 0x8 SSTORE PUSH1 0x40 DUP1 MLOAD SWAP5 DUP6 MSTORE PUSH1 0x20 DUP6 ADD SWAP2 SWAP1 SWAP2 MSTORE DUP4 ADD MSTORE CALLER SWAP2 DUP1 PUSH1 0x60 DUP2 ADD PUSH2 0x80B JUMP JUMPDEST DUP2 PUSH2 0xA36 SWAP2 PUSH2 0x1765 JUMP JUMPDEST PUSH2 0x826 JUMPI DUP4 CODESIZE PUSH2 0x9DB JUMP JUMPDEST POP CALLVALUE PUSH2 0x584 JUMPI DUP1 PUSH1 0x3 NOT CALLDATASIZE ADD SLT PUSH2 0x584 JUMPI PUSH1 0x20 PUSH1 0x40 MLOAD PUSH1 0xC8 DUP2 MSTORE RETURN JUMPDEST POP CALLVALUE PUSH2 0x584 JUMPI DUP1 PUSH1 0x3 NOT CALLDATASIZE ADD SLT PUSH2 0x584 JUMPI PUSH1 0x40 MLOAD PUSH32 0x0 PUSH1 0x1 PUSH1 0x1 PUSH1 0xA0 SHL SUB AND DUP2 MSTORE PUSH1 0x20 SWAP1 RETURN JUMPDEST POP CALLVALUE PUSH2 0x584 JUMPI PUSH1 0x20 CALLDATASIZE PUSH1 0x3 NOT ADD SLT PUSH2 0x584 JUMPI PUSH1 0x4 CALLDATALOAD PUSH2 0xABF PUSH2 0x1C6F JUMP JUMPDEST PUSH1 0x7 SLOAD PUSH2 0xACE PUSH1 0xFF DUP3 AND PUSH2 0x1B67 JUMP JUMPDEST PUSH1 0xFF DUP2 PUSH1 0x8 SHR AND PUSH2 0xDD9 JUMPI PUSH1 0x4 SLOAD TIMESTAMP LT PUSH2 0xDA6 JUMPI PUSH1 0x2 SLOAD DUP3 LT ISZERO SWAP2 DUP3 PUSH2 0xD97 JUMPI JUMPDEST POP PUSH2 0x100 SWAP1 PUSH1 0xFF DUP1 NOT PUSH1 0xB SLOAD AND SWAP4 ISZERO ISZERO AND DUP1 SWAP4 OR PUSH1 0xB SSTORE PUSH2 0xFF00 NOT AND OR PUSH1 0x7 SSTORE PUSH2 0xB1E PUSH1 0x8 SLOAD PUSH1 0x9 SLOAD SWAP1 PUSH2 0x1855 JUMP JUMPDEST SWAP1 PUSH1 0xC8 DUP3 MUL DUP3 DUP2 DIV PUSH1 0xC8 EQ DUP4 ISZERO OR ISZERO PUSH2 0x82A JUMPI PUSH2 0x2710 SWAP1 DIV DUP1 DUP4 SUB SWAP2 DUP4 DUP4 GT PUSH2 0x83E JUMPI ISZERO PUSH2 0xCAC JUMPI PUSH1 0x40 MLOAD PUSH4 0x18160DDD PUSH1 0xE0 SHL DUP2 MSTORE PUSH1 0x20 DUP2 PUSH1 0x4 DUP2 PUSH32 0x0 PUSH1 0x1 PUSH1 0x1 PUSH1 0xA0 SHL SUB AND GAS STATICCALL SWAP1 DUP2 ISZERO PUSH2 0xCA1 JUMPI DUP6 SWAP2 PUSH2 0xC6F JUMPI JUMPDEST POP DUP1 PUSH2 0xC10 JUMPI JUMPDEST POP SWAP2 PUSH1 0x60 SWAP2 PUSH1 0x0 DUP1 MLOAD PUSH1 0x20 PUSH2 0x1D7B DUP4 CODECOPY DUP2 MLOAD SWAP2 MSTORE SWAP4 JUMPDEST DUP1 PUSH2 0xBD4 JUMPI JUMPDEST POP PUSH1 0xFF PUSH1 0xB SLOAD AND SWAP2 PUSH1 0x40 MLOAD SWAP3 ISZERO ISZERO DUP4 MSTORE PUSH1 0x20 DUP4 ADD MSTORE PUSH1 0x40 DUP3 ADD MSTORE LOG1 DUP1 RETURN JUMPDEST DUP6 SLOAD PUSH2 0xC0A SWAP2 SWAP1 PUSH1 0x1 PUSH1 0x1 PUSH1 0xA0 SHL SUB AND PUSH32 0x0 PUSH2 0x1C98 JUMP JUMPDEST CODESIZE PUSH2 0xBB6 JUMP JUMPDEST PUSH8 0xDE0B6B3A7640000 DUP4 MUL DUP4 DUP2 DIV PUSH8 0xDE0B6B3A7640000 EQ DUP4 DUP7 EQ OR ISZERO PUSH2 0xC5B JUMPI SWAP2 PUSH2 0xC4F PUSH1 0x60 SWAP5 SWAP3 PUSH1 0x0 DUP1 MLOAD PUSH1 0x20 PUSH2 0x1D7B DUP4 CODECOPY DUP2 MLOAD SWAP2 MSTORE SWAP7 SWAP5 PUSH2 0x188B JUMP JUMPDEST PUSH1 0xA SSTORE SWAP2 SWAP4 POP SWAP2 PUSH2 0xB9A JUMP JUMPDEST PUSH4 0x4E487B71 PUSH1 0xE0 SHL DUP7 MSTORE PUSH1 0x11 PUSH1 0x4 MSTORE PUSH1 0x24 DUP7 REVERT JUMPDEST SWAP1 POP PUSH1 0x20 DUP2 RETURNDATASIZE PUSH1 0x20 GT PUSH2 0xC99 JUMPI JUMPDEST DUP2 PUSH2 0xC8A PUSH1 0x20 SWAP4 DUP4 PUSH2 0x1765 JUMP JUMPDEST DUP2 ADD SUB SLT PUSH2 0x346 JUMPI MLOAD CODESIZE PUSH2 0xB93 JUMP JUMPDEST RETURNDATASIZE SWAP2 POP PUSH2 0xC7D JUMP JUMPDEST PUSH1 0x40 MLOAD RETURNDATASIZE DUP8 DUP3 RETURNDATACOPY RETURNDATASIZE SWAP1 REVERT JUMPDEST PUSH1 0x40 MLOAD PUSH4 0x18160DDD PUSH1 0xE0 SHL DUP2 MSTORE PUSH1 0x20 DUP2 PUSH1 0x4 DUP2 PUSH32 0x0 PUSH1 0x1 PUSH1 0x1 PUSH1 0xA0 SHL SUB AND GAS STATICCALL SWAP1 DUP2 ISZERO PUSH2 0xCA1 JUMPI DUP6 SWAP2 PUSH2 0xD65 JUMPI JUMPDEST POP DUP1 PUSH2 0xD1A JUMPI JUMPDEST POP SWAP2 PUSH1 0x60 SWAP2 PUSH1 0x0 DUP1 MLOAD PUSH1 0x20 PUSH2 0x1D7B DUP4 CODECOPY DUP2 MLOAD SWAP2 MSTORE SWAP4 PUSH2 0xBB0 JUMP JUMPDEST PUSH8 0xDE0B6B3A7640000 DUP4 MUL DUP4 DUP2 DIV PUSH8 0xDE0B6B3A7640000 EQ DUP4 DUP7 EQ OR ISZERO PUSH2 0xC5B JUMPI SWAP2 PUSH2 0xD59 PUSH1 0x60 SWAP5 SWAP3 PUSH1 0x0 DUP1 MLOAD PUSH1 0x20 PUSH2 0x1D7B DUP4 CODECOPY DUP2 MLOAD SWAP2 MSTORE SWAP7 SWAP5 PUSH2 0x188B JUMP JUMPDEST PUSH1 0xA SSTORE SWAP2 SWAP4 POP SWAP2 PUSH2 0xD00 JUMP JUMPDEST SWAP1 POP PUSH1 0x20 DUP2 RETURNDATASIZE PUSH1 0x20 GT PUSH2 0xD8F JUMPI JUMPDEST DUP2 PUSH2 0xD80 PUSH1 0x20 SWAP4 DUP4 PUSH2 0x1765 JUMP JUMPDEST DUP2 ADD SUB SLT PUSH2 0x346 JUMPI MLOAD CODESIZE PUSH2 0xCF9 JUMP JUMPDEST RETURNDATASIZE SWAP2 POP PUSH2 0xD73 JUMP JUMPDEST PUSH1 0x3 SLOAD LT ISZERO SWAP2 POP PUSH2 0x100 PUSH2 0xAEF JUMP JUMPDEST PUSH1 0x40 MLOAD PUSH3 0x461BCD PUSH1 0xE5 SHL DUP2 MSTORE PUSH1 0x20 PUSH1 0x4 DUP3 ADD MSTORE PUSH1 0xB PUSH1 0x24 DUP3 ADD MSTORE PUSH11 0x139BDD08195E1C1A5C9959 PUSH1 0xAA SHL PUSH1 0x44 DUP3 ADD MSTORE PUSH1 0x64 SWAP1 REVERT JUMPDEST PUSH1 0x40 MLOAD PUSH3 0x461BCD PUSH1 0xE5 SHL DUP2 MSTORE PUSH1 0x20 PUSH1 0x4 DUP3 ADD MSTORE PUSH1 0xF PUSH1 0x24 DUP3 ADD MSTORE PUSH15 0x105B1C9958591E481CD95D1D1B1959 PUSH1 0x8A SHL PUSH1 0x44 DUP3 ADD MSTORE PUSH1 0x64 SWAP1 REVERT JUMPDEST POP CALLVALUE PUSH2 0x584 JUMPI DUP1 PUSH1 0x3 NOT CALLDATASIZE ADD SLT PUSH2 0x584 JUMPI SLOAD PUSH1 0x40 MLOAD PUSH1 0x1 PUSH1 0x1 PUSH1 0xA0 SHL SUB SWAP1 SWAP2 AND DUP2 MSTORE PUSH1 0x20 SWAP1 RETURN JUMPDEST POP CALLVALUE PUSH2 0x584 JUMPI DUP1 PUSH1 0x3 NOT CALLDATASIZE ADD SLT PUSH2 0x584 JUMPI PUSH2 0xE50 PUSH2 0x1C6F JUMP JUMPDEST DUP1 SLOAD PUSH1 0x1 PUSH1 0x1 PUSH1 0xA0 SHL SUB NOT DUP2 AND DUP3 SSTORE DUP2 SWAP1 PUSH1 0x1 PUSH1 0x1 PUSH1 0xA0 SHL SUB AND PUSH32 0x8BE0079C531659141344CD1FD0A4F28419497F9722A3DAAFE3B4186F6B6457E0 DUP3 DUP1 LOG3 DUP1 RETURN JUMPDEST POP CALLVALUE PUSH2 0x584 JUMPI DUP1 PUSH1 0x3 NOT CALLDATASIZE ADD SLT PUSH2 0x584 JUMPI PUSH1 0x20 PUSH1 0xA SLOAD PUSH1 0x40 MLOAD SWAP1 DUP2 MSTORE RETURN JUMPDEST POP CALLVALUE PUSH2 0x584 JUMPI DUP1 PUSH1 0x3 NOT CALLDATASIZE ADD SLT PUSH2 0x584 JUMPI PUSH1 0x40 MLOAD PUSH32 0x0 PUSH1 0x1 PUSH1 0x1 PUSH1 0xA0 SHL SUB AND DUP2 MSTORE PUSH1 0x20 SWAP1 RETURN JUMPDEST POP CALLVALUE PUSH2 0x584 JUMPI PUSH1 0x20 PUSH2 0x5A2 PUSH2 0xF08 CALLDATASIZE PUSH2 0x1818 JUMP JUMPDEST SWAP1 PUSH2 0x19BE JUMP JUMPDEST POP CALLVALUE PUSH2 0x584 JUMPI DUP1 PUSH1 0x3 NOT CALLDATASIZE ADD SLT PUSH2 0x584 JUMPI PUSH1 0x20 PUSH1 0x8 SLOAD PUSH1 0x40 MLOAD SWAP1 DUP2 MSTORE RETURN JUMPDEST POP CALLVALUE PUSH2 0x584 JUMPI PUSH1 0x20 PUSH2 0x5A2 PUSH2 0xF40 CALLDATASIZE PUSH2 0x1818 JUMP JUMPDEST SWAP1 PUSH2 0x18FC JUMP JUMPDEST POP CALLVALUE PUSH2 0x584 JUMPI DUP1 PUSH1 0x3 NOT CALLDATASIZE ADD SLT PUSH2 0x584 JUMPI PUSH1 0x40 MLOAD SWAP1 DUP1 PUSH1 0x1 SLOAD SWAP1 PUSH2 0xF69 DUP3 PUSH2 0x179D JUMP JUMPDEST DUP1 DUP6 MSTORE SWAP2 PUSH1 0x1 DUP2 AND SWAP1 DUP2 ISZERO PUSH2 0x103B JUMPI POP PUSH1 0x1 EQ PUSH2 0xFF0 JUMPI JUMPDEST PUSH2 0xFBD DUP5 PUSH2 0xF91 DUP2 DUP7 SUB DUP3 PUSH2 0x1765 JUMP JUMPDEST PUSH1 0x2 SLOAD PUSH1 0xFF PUSH1 0x3 SLOAD PUSH1 0x4 SLOAD PUSH1 0x5 SLOAD PUSH1 0x6 SLOAD SWAP2 PUSH1 0x7 SLOAD SWAP4 PUSH1 0x40 MLOAD SWAP9 DUP10 SWAP9 PUSH2 0x100 DUP11 MSTORE PUSH2 0x100 DUP11 ADD SWAP1 PUSH2 0x17D7 JUMP JUMPDEST SWAP7 PUSH1 0x20 DUP10 ADD MSTORE PUSH1 0x40 DUP9 ADD MSTORE PUSH1 0x60 DUP8 ADD MSTORE PUSH1 0x80 DUP7 ADD MSTORE PUSH1 0xA0 DUP6 ADD MSTORE DUP2 DUP2 AND ISZERO ISZERO PUSH1 0xC0 DUP6 ADD MSTORE PUSH1 0x8 SHR AND ISZERO ISZERO PUSH1 0xE0 DUP4 ADD MSTORE SUB SWAP1 RETURN JUMPDEST PUSH1 0x1 DUP2 MSTORE PUSH1 0x0 DUP1 MLOAD PUSH1 0x20 PUSH2 0x1D9B DUP4 CODECOPY DUP2 MLOAD SWAP2 MSTORE SWAP4 SWAP3 POP SWAP1 JUMPDEST DUP1 DUP3 LT PUSH2 0x1021 JUMPI POP SWAP1 SWAP2 POP DUP2 ADD PUSH1 0x20 ADD PUSH2 0xF91 DUP3 PUSH2 0xF81 JUMP JUMPDEST SWAP2 SWAP3 PUSH1 0x1 DUP2 PUSH1 0x20 SWAP3 SLOAD DUP4 DUP6 DUP9 ADD ADD MSTORE ADD SWAP2 ADD SWAP1 SWAP3 SWAP2 PUSH2 0x1008 JUMP JUMPDEST PUSH1 0xFF NOT AND PUSH1 0x20 DUP1 DUP8 ADD SWAP2 SWAP1 SWAP2 MSTORE SWAP3 ISZERO ISZERO PUSH1 0x5 SHL DUP6 ADD SWAP1 SWAP3 ADD SWAP3 POP PUSH2 0xF91 SWAP2 POP DUP4 SWAP1 POP PUSH2 0xF81 JUMP JUMPDEST POP CALLVALUE PUSH2 0x584 JUMPI DUP1 PUSH1 0x3 NOT CALLDATASIZE ADD SLT PUSH2 0x584 JUMPI PUSH1 0x20 PUSH2 0x5A2 PUSH2 0x18AB JUMP JUMPDEST POP CALLVALUE PUSH2 0x584 JUMPI PUSH1 0xA0 CALLDATASIZE PUSH1 0x3 NOT ADD SLT PUSH2 0x584 JUMPI PUSH1 0x4 CALLDATALOAD PUSH8 0xFFFFFFFFFFFFFFFF DUP2 GT PUSH2 0x2D0 JUMPI CALLDATASIZE PUSH1 0x23 DUP3 ADD SLT ISZERO PUSH2 0x2D0 JUMPI DUP1 PUSH1 0x4 ADD CALLDATALOAD SWAP1 PUSH8 0xFFFFFFFFFFFFFFFF DUP3 GT PUSH2 0x16F0 JUMPI DUP3 SWAP1 PUSH1 0x40 MLOAD SWAP3 PUSH2 0x10DB PUSH1 0x20 PUSH1 0x1F NOT PUSH1 0x1F DUP5 ADD AND ADD DUP6 PUSH2 0x1765 JUMP JUMPDEST DUP1 DUP5 MSTORE CALLDATASIZE PUSH1 0x24 DUP3 DUP5 ADD ADD GT PUSH2 0x16EC JUMPI DUP1 PUSH1 0x24 PUSH1 0x20 SWAP4 ADD DUP4 DUP7 ADD CALLDATACOPY DUP4 ADD ADD MSTORE PUSH1 0x64 CALLDATALOAD SWAP1 PUSH1 0x24 CALLDATALOAD PUSH1 0x44 CALLDATALOAD CALLER PUSH32 0x0 PUSH1 0x1 PUSH1 0x1 PUSH1 0xA0 SHL SUB AND EQ DUP1 ISZERO PUSH2 0x16D9 JUMPI JUMPDEST ISZERO PUSH2 0x16A3 JUMPI PUSH1 0xFF PUSH1 0x7 SLOAD AND PUSH2 0x1668 JUMPI TIMESTAMP DUP5 GT ISZERO PUSH2 0x1632 JUMPI DUP1 DUP3 LT ISZERO PUSH2 0x15FC JUMPI DUP3 MLOAD DUP1 ISZERO ISZERO SWAP1 DUP2 PUSH2 0x15F0 JUMPI JUMPDEST POP ISZERO PUSH2 0x15AB JUMPI PUSH1 0x40 MLOAD PUSH2 0x100 DUP2 ADD DUP2 DUP2 LT PUSH8 0xFFFFFFFFFFFFFFFF DUP3 GT OR PUSH2 0x1597 JUMPI PUSH1 0x40 MSTORE DUP4 DUP2 MSTORE PUSH1 0x20 DUP2 ADD SWAP1 DUP4 DUP3 MSTORE PUSH1 0x40 DUP2 ADD DUP4 DUP2 MSTORE PUSH1 0x60 DUP3 ADD DUP8 DUP2 MSTORE PUSH1 0x80 DUP4 ADD SWAP1 TIMESTAMP DUP3 MSTORE PUSH1 0xA0 DUP5 ADD SWAP3 PUSH1 0x84 CALLDATALOAD DUP5 MSTORE PUSH1 0xE0 PUSH1 0xC0 DUP7 ADD SWAP6 PUSH1 0x1 DUP8 MSTORE ADD SWAP6 DUP12 DUP8 MSTORE DUP10 MLOAD PUSH8 0xFFFFFFFFFFFFFFFF DUP2 GT PUSH2 0x1583 JUMPI PUSH2 0x11DC PUSH1 0x1 SLOAD PUSH2 0x179D JUMP JUMPDEST DUP14 PUSH1 0x1F DUP3 GT PUSH2 0x1514 JUMPI JUMPDEST POP DUP2 SWAP1 POP PUSH1 0x20 DUP15 PUSH1 0x1 PUSH1 0x1F DUP5 GT EQ PUSH2 0x14A2 JUMPI SWAP2 PUSH2 0x1497 JUMPI JUMPDEST POP DUP2 PUSH1 0x1 SHL SWAP2 PUSH1 0x0 NOT SWAP1 PUSH1 0x3 SHL SHR NOT AND OR PUSH1 0x1 SSTORE JUMPDEST MLOAD PUSH1 0x2 SSTORE MLOAD PUSH1 0x3 SSTORE MLOAD PUSH1 0x4 SSTORE MLOAD PUSH1 0x5 SSTORE MLOAD PUSH1 0x6 SSTORE MLOAD ISZERO ISZERO PUSH1 0xFF DUP1 NOT PUSH1 0x7 SLOAD AND SWAP2 AND OR PUSH1 0x7 SSTORE MLOAD ISZERO ISZERO PUSH2 0xFF00 PUSH1 0x7 SLOAD SWAP2 PUSH1 0x8 SHL AND SWAP1 PUSH2 0xFF00 NOT AND OR PUSH1 0x7 SSTORE PUSH1 0x40 MLOAD PUSH4 0x70A08231 PUSH1 0xE0 SHL DUP2 MSTORE ADDRESS PUSH1 0x4 DUP3 ADD MSTORE PUSH1 0x20 DUP2 PUSH1 0x24 DUP2 PUSH1 0x1 DUP1 PUSH1 0xA0 SHL SUB PUSH32 0x0 AND GAS STATICCALL DUP1 ISZERO PUSH2 0x140D JUMPI DUP7 SWAP1 PUSH2 0x145D JUMPI JUMPDEST PUSH4 0x1312D00 SWAP2 POP LT PUSH2 0x1418 JUMPI DUP5 PUSH32 0x0 PUSH1 0x1 PUSH1 0x1 PUSH1 0xA0 SHL SUB AND DUP1 EXTCODESIZE ISZERO PUSH2 0x2D0 JUMPI DUP2 SWAP1 PUSH1 0x44 PUSH1 0x40 MLOAD DUP1 SWAP5 DUP2 SWAP4 PUSH4 0x40C10F19 PUSH1 0xE0 SHL DUP4 MSTORE PUSH2 0xDEAD PUSH1 0x4 DUP5 ADD MSTORE PUSH3 0x989680 PUSH1 0x24 DUP5 ADD MSTORE GAS CALL DUP1 ISZERO PUSH2 0x140D JUMPI PUSH2 0x13F9 JUMPI JUMPDEST POP DUP5 PUSH32 0x0 PUSH1 0x1 PUSH1 0x1 PUSH1 0xA0 SHL SUB AND DUP1 EXTCODESIZE ISZERO PUSH2 0x2D0 JUMPI DUP2 DUP1 SWAP2 PUSH1 0x44 PUSH1 0x40 MLOAD DUP1 SWAP5 DUP2 SWAP4 PUSH4 0x40C10F19 PUSH1 0xE0 SHL DUP4 MSTORE PUSH2 0xDEAD PUSH1 0x4 DUP5 ADD MSTORE PUSH3 0x989680 PUSH1 0x24 DUP5 ADD MSTORE GAS CALL DUP1 ISZERO PUSH2 0x2D4 JUMPI PUSH2 0x13DA JUMPI JUMPDEST POP SWAP3 PUSH32 0xED39E1C72AEDC6B7C401CD26BF78AD00977BE2331D1AC8766EFA2BE79994BD74 SWAP3 DUP6 PUSH2 0x13C4 SWAP4 PUSH3 0x989680 PUSH1 0x8 SSTORE PUSH3 0x989680 PUSH1 0x9 SSTORE PUSH1 0x40 MLOAD SWAP5 DUP6 SWAP5 PUSH1 0x80 DUP7 MSTORE PUSH1 0x80 DUP7 ADD SWAP1 PUSH2 0x17D7 JUMP JUMPDEST SWAP3 PUSH1 0x20 DUP6 ADD MSTORE PUSH1 0x40 DUP5 ADD MSTORE PUSH1 0x60 DUP4 ADD MSTORE SUB SWAP1 LOG1 DUP1 RETURN JUMPDEST DUP2 PUSH2 0x13E8 SWAP2 SWAP6 SWAP5 SWAP4 SWAP6 PUSH2 0x1765 JUMP JUMPDEST PUSH2 0x13F5 JUMPI SWAP1 SWAP2 DUP5 CODESIZE PUSH2 0x1379 JUMP JUMPDEST DUP5 DUP1 REVERT JUMPDEST DUP6 PUSH2 0x1406 SWAP2 SWAP7 SWAP3 SWAP7 PUSH2 0x1765 JUMP JUMPDEST SWAP4 CODESIZE PUSH2 0x1312 JUMP JUMPDEST PUSH1 0x40 MLOAD RETURNDATASIZE DUP9 DUP3 RETURNDATACOPY RETURNDATASIZE SWAP1 REVERT JUMPDEST PUSH1 0x40 MLOAD PUSH3 0x461BCD PUSH1 0xE5 SHL DUP2 MSTORE PUSH1 0x20 PUSH1 0x4 DUP3 ADD MSTORE PUSH1 0x1C PUSH1 0x24 DUP3 ADD MSTORE PUSH32 0x496E73756666696369656E7420626F6F7473747261702066756E647300000000 PUSH1 0x44 DUP3 ADD MSTORE PUSH1 0x64 SWAP1 REVERT JUMPDEST POP PUSH1 0x20 DUP2 RETURNDATASIZE PUSH1 0x20 GT PUSH2 0x148F JUMPI JUMPDEST DUP2 PUSH2 0x1477 PUSH1 0x20 SWAP4 DUP4 PUSH2 0x1765 JUMP JUMPDEST DUP2 ADD SUB SLT PUSH2 0x148B JUMPI PUSH4 0x1312D00 SWAP1 MLOAD PUSH2 0x12A1 JUMP JUMPDEST DUP6 DUP1 REVERT JUMPDEST RETURNDATASIZE SWAP2 POP PUSH2 0x146A JUMP JUMPDEST SWAP1 POP DUP12 ADD MLOAD CODESIZE PUSH2 0x11FE JUMP JUMPDEST PUSH1 0x1 DUP2 MSTORE PUSH1 0x0 DUP1 MLOAD PUSH1 0x20 PUSH2 0x1D9B DUP4 CODECOPY DUP2 MLOAD SWAP2 MSTORE SWAP3 POP PUSH1 0x1F NOT DUP5 AND SWAP1 DUP15 JUMPDEST DUP3 DUP3 LT PUSH2 0x14FB JUMPI POP POP SWAP1 DUP4 PUSH1 0x1 SWAP5 SWAP4 SWAP3 LT PUSH2 0x14E2 JUMPI JUMPDEST POP POP DUP2 SHL ADD PUSH1 0x1 SSTORE PUSH2 0x1213 JUMP JUMPDEST DUP14 ADD MLOAD PUSH1 0x0 NOT PUSH1 0xF8 DUP5 PUSH1 0x3 SHL AND SHR NOT AND SWAP1 SSTORE CODESIZE DUP1 PUSH2 0x14D5 JUMP JUMPDEST PUSH1 0x1 DUP5 SWAP6 PUSH1 0x20 SWAP4 SWAP6 DUP5 SWAP4 ADD MLOAD DUP2 SSTORE ADD SWAP5 ADD SWAP3 ADD DUP15 PUSH2 0x14BF JUMP JUMPDEST PUSH1 0x1 SWAP1 MSTORE PUSH1 0x1F DUP3 ADD PUSH1 0x5 SHR PUSH1 0x0 DUP1 MLOAD PUSH1 0x20 PUSH2 0x1D9B DUP4 CODECOPY DUP2 MLOAD SWAP2 MSTORE ADD SWAP1 PUSH1 0x20 DUP4 LT PUSH2 0x156D JUMPI JUMPDEST PUSH1 0x1F DUP16 SWAP2 ADD PUSH1 0x5 SHR PUSH1 0x0 DUP1 MLOAD PUSH1 0x20 PUSH2 0x1D9B DUP4 CODECOPY DUP2 MLOAD SWAP2 MSTORE ADD SWAP2 JUMPDEST DUP3 DUP2 LT PUSH2 0x1560 JUMPI POP PUSH2 0x11E6 JUMP JUMPDEST PUSH1 0x1 SWAP2 DUP2 SSTORE ADD DUP15 SWAP1 PUSH2 0x1553 JUMP JUMPDEST PUSH1 0x0 DUP1 MLOAD PUSH1 0x20 PUSH2 0x1D9B DUP4 CODECOPY DUP2 MLOAD SWAP2 MSTORE SWAP2 POP PUSH2 0x1539 JUMP JUMPDEST PUSH4 0x4E487B71 PUSH1 0xE0 SHL DUP14 MSTORE PUSH1 0x41 PUSH1 0x4 MSTORE PUSH1 0x24 DUP14 REVERT JUMPDEST PUSH4 0x4E487B71 PUSH1 0xE0 SHL DUP8 MSTORE PUSH1 0x41 PUSH1 0x4 MSTORE PUSH1 0x24 DUP8 REVERT JUMPDEST PUSH1 0x40 MLOAD PUSH3 0x461BCD PUSH1 0xE5 SHL DUP2 MSTORE PUSH1 0x20 PUSH1 0x4 DUP3 ADD MSTORE PUSH1 0x1B PUSH1 0x24 DUP3 ADD MSTORE PUSH32 0x4E616D65206D75737420626520312D3820636861726163746572730000000000 PUSH1 0x44 DUP3 ADD MSTORE PUSH1 0x64 SWAP1 REVERT JUMPDEST PUSH1 0x8 SWAP2 POP GT ISZERO CODESIZE PUSH2 0x1161 JUMP JUMPDEST PUSH1 0x40 MLOAD PUSH3 0x461BCD PUSH1 0xE5 SHL DUP2 MSTORE PUSH1 0x20 PUSH1 0x4 DUP3 ADD MSTORE PUSH1 0xE PUSH1 0x24 DUP3 ADD MSTORE PUSH14 0x496E76616C696420626F756E6473 PUSH1 0x90 SHL PUSH1 0x44 DUP3 ADD MSTORE PUSH1 0x64 SWAP1 REVERT JUMPDEST PUSH1 0x40 MLOAD PUSH3 0x461BCD PUSH1 0xE5 SHL DUP2 MSTORE PUSH1 0x20 PUSH1 0x4 DUP3 ADD MSTORE PUSH1 0xE PUSH1 0x24 DUP3 ADD MSTORE PUSH14 0x496E76616C696420657870697279 PUSH1 0x90 SHL PUSH1 0x44 DUP3 ADD MSTORE PUSH1 0x64 SWAP1 REVERT JUMPDEST PUSH1 0x40 MLOAD PUSH3 0x461BCD PUSH1 0xE5 SHL DUP2 MSTORE PUSH1 0x20 PUSH1 0x4 DUP3 ADD MSTORE PUSH1 0x13 PUSH1 0x24 DUP3 ADD MSTORE PUSH19 0x105B1C9958591E481A5B9A5D1A585B1A5E9959 PUSH1 0x6A SHL PUSH1 0x44 DUP3 ADD MSTORE PUSH1 0x64 SWAP1 REVERT JUMPDEST PUSH1 0x40 MLOAD PUSH3 0x461BCD PUSH1 0xE5 SHL DUP2 MSTORE PUSH1 0x20 PUSH1 0x4 DUP3 ADD MSTORE PUSH1 0xE PUSH1 0x24 DUP3 ADD MSTORE PUSH14 0x139BDD08185D5D1A1BDC9A5E9959 PUSH1 0x92 SHL PUSH1 0x44 DUP3 ADD MSTORE PUSH1 0x64 SWAP1 REVERT JUMPDEST POP DUP5 SLOAD PUSH1 0x1 PUSH1 0x1 PUSH1 0xA0 SHL SUB AND CALLER EQ PUSH2 0x1136 JUMP JUMPDEST DUP3 DUP1 REVERT JUMPDEST PUSH4 0x4E487B71 PUSH1 0xE0 SHL DUP4 MSTORE PUSH1 0x41 PUSH1 0x4 MSTORE PUSH1 0x24 DUP4 REVERT JUMPDEST POP CALLVALUE PUSH2 0x584 JUMPI DUP1 PUSH1 0x3 NOT CALLDATASIZE ADD SLT PUSH2 0x584 JUMPI PUSH1 0x40 MLOAD PUSH32 0x0 PUSH1 0x1 PUSH1 0x1 PUSH1 0xA0 SHL SUB AND DUP2 MSTORE PUSH1 0x20 SWAP1 RETURN JUMPDEST SWAP1 POP CALLVALUE PUSH2 0x2D0 JUMPI DUP2 PUSH1 0x3 NOT CALLDATASIZE ADD SLT PUSH2 0x2D0 JUMPI PUSH1 0x20 SWAP1 PUSH1 0x9 SLOAD DUP2 MSTORE RETURN JUMPDEST SWAP1 PUSH1 0x1F DUP1 NOT SWAP2 ADD AND DUP2 ADD SWAP1 DUP2 LT PUSH8 0xFFFFFFFFFFFFFFFF DUP3 GT OR PUSH2 0x1787 JUMPI PUSH1 0x40 MSTORE JUMP JUMPDEST PUSH4 0x4E487B71 PUSH1 0xE0 SHL PUSH1 0x0 MSTORE PUSH1 0x41 PUSH1 0x4 MSTORE PUSH1 0x24 PUSH1 0x0 REVERT JUMPDEST SWAP1 PUSH1 0x1 DUP3 DUP2 SHR SWAP3 AND DUP1 ISZERO PUSH2 0x17CD JUMPI JUMPDEST PUSH1 0x20 DUP4 LT EQ PUSH2 0x17B7 JUMPI JUMP JUMPDEST PUSH4 0x4E487B71 PUSH1 0xE0 SHL PUSH1 0x0 MSTORE PUSH1 0x22 PUSH1 0x4 MSTORE PUSH1 0x24 PUSH1 0x0 REVERT JUMPDEST SWAP2 PUSH1 0x7F AND SWAP2 PUSH2 0x17AC JUMP JUMPDEST SWAP2 SWAP1 DUP3 MLOAD SWAP3 DUP4 DUP3 MSTORE PUSH1 0x0 JUMPDEST DUP5 DUP2 LT PUSH2 0x1803 JUMPI POP POP DUP3 PUSH1 0x0 PUSH1 0x20 DUP1 SWAP5 SWAP6 DUP5 ADD ADD MSTORE PUSH1 0x1F DUP1 NOT SWAP2 ADD AND ADD ADD SWAP1 JUMP JUMPDEST DUP1 PUSH1 0x20 DUP1 SWAP3 DUP5 ADD ADD MLOAD DUP3 DUP3 DUP7 ADD ADD MSTORE ADD PUSH2 0x17E2 JUMP JUMPDEST PUSH1 0x40 SWAP1 PUSH1 0x3 NOT ADD SLT PUSH2 0x346 JUMPI PUSH1 0x4 CALLDATALOAD DUP1 ISZERO ISZERO DUP2 SUB PUSH2 0x346 JUMPI SWAP1 PUSH1 0x24 CALLDATALOAD SWAP1 JUMP JUMPDEST CALLVALUE PUSH2 0x346 JUMPI PUSH1 0x0 CALLDATASIZE PUSH1 0x3 NOT ADD SLT PUSH2 0x346 JUMPI PUSH1 0x20 PUSH1 0x40 MLOAD PUSH3 0x989680 DUP2 MSTORE RETURN JUMPDEST SWAP2 SWAP1 DUP3 ADD DUP1 SWAP3 GT PUSH2 0x1862 JUMPI JUMP JUMPDEST PUSH4 0x4E487B71 PUSH1 0xE0 SHL PUSH1 0x0 MSTORE PUSH1 0x11 PUSH1 0x4 MSTORE PUSH1 0x24 PUSH1 0x0 REVERT JUMPDEST DUP2 DUP2 MUL SWAP3 SWAP2 DUP2 ISZERO SWAP2 DUP5 DIV EQ OR ISZERO PUSH2 0x1862 JUMPI JUMP JUMPDEST DUP2 ISZERO PUSH2 0x1895 JUMPI DIV SWAP1 JUMP JUMPDEST PUSH4 0x4E487B71 PUSH1 0xE0 SHL PUSH1 0x0 MSTORE PUSH1 0x12 PUSH1 0x4 MSTORE PUSH1 0x24 PUSH1 0x0 REVERT JUMPDEST PUSH1 0x8 SLOAD PUSH2 0x18BB PUSH1 0x9 SLOAD DUP1 SWAP3 PUSH2 0x1855 JUMP JUMPDEST DUP1 ISZERO PUSH2 0x18EE JUMPI PUSH8 0xDE0B6B3A7640000 DUP3 MUL SWAP2 DUP1 DUP4 DIV PUSH8 0xDE0B6B3A7640000 EQ SWAP1 ISZERO OR ISZERO PUSH2 0x1862 JUMPI PUSH2 0x18EB SWAP2 PUSH2 0x188B JUMP JUMPDEST SWAP1 JUMP JUMPDEST POP POP PUSH8 0x6F05B59D3B20000 SWAP1 JUMP JUMPDEST PUSH1 0x8 SLOAD SWAP1 PUSH1 0x9 SLOAD PUSH2 0x190D DUP2 DUP5 PUSH2 0x1855 JUMP JUMPDEST SWAP2 DUP3 ISZERO PUSH2 0x19A4 JUMPI ISZERO PUSH2 0x197B JUMPI POP PUSH8 0xDE0B6B3A7640000 DUP3 MUL SWAP2 DUP1 DUP4 DIV PUSH8 0xDE0B6B3A7640000 EQ SWAP1 ISZERO OR ISZERO PUSH2 0x1862 JUMPI PUSH2 0x1944 SWAP2 PUSH2 0x188B JUMP JUMPDEST SWAP1 JUMPDEST PUSH8 0xDE0B6B3A7640000 DUP2 MUL SWAP1 DUP1 DUP3 DIV PUSH8 0xDE0B6B3A7640000 EQ SWAP1 ISZERO OR ISZERO PUSH2 0x1862 JUMPI PUSH5 0xE8D4A51000 SWAP2 PUSH2 0x1977 SWAP2 PUSH2 0x188B JUMP JUMPDEST DIV SWAP1 JUMP JUMPDEST PUSH8 0xDE0B6B3A7640000 DUP1 DUP3 MUL SWAP4 POP DUP2 ISZERO SWAP2 DUP5 DIV EQ OR ISZERO PUSH2 0x1862 JUMPI PUSH2 0x199E SWAP2 PUSH2 0x188B JUMP JUMPDEST SWAP1 PUSH2 0x1946 JUMP JUMPDEST POP POP POP POP DUP1 PUSH1 0x1 SHL SWAP1 DUP1 DUP3 DIV PUSH1 0x2 EQ SWAP1 ISZERO OR ISZERO PUSH2 0x1862 JUMPI SWAP1 JUMP JUMPDEST SWAP1 PUSH1 0xFF PUSH1 0x7 SLOAD PUSH1 0x8 SHR AND PUSH2 0x1B0E JUMPI PUSH2 0x19DB PUSH1 0x8 SLOAD PUSH1 0x9 SLOAD SWAP1 PUSH2 0x1855 JUMP JUMPDEST DUP1 ISZERO PUSH2 0x1A64 JUMPI PUSH2 0x2648 DUP2 MUL SWAP1 DUP2 DIV PUSH2 0x2648 SUB PUSH2 0x1862 JUMPI PUSH2 0x2710 SWAP1 DIV SWAP2 ISZERO PUSH2 0x1AAC JUMPI PUSH1 0x40 MLOAD PUSH4 0x18160DDD PUSH1 0xE0 SHL DUP2 MSTORE SWAP1 PUSH1 0x20 DUP3 PUSH1 0x4 DUP2 PUSH32 0x0 PUSH1 0x1 PUSH1 0x1 PUSH1 0xA0 SHL SUB AND GAS STATICCALL SWAP2 DUP3 ISZERO PUSH2 0x1AA0 JUMPI PUSH1 0x0 SWAP3 PUSH2 0x1A6C JUMPI JUMPDEST POP DUP2 ISZERO PUSH2 0x1A64 JUMPI PUSH2 0x18EB SWAP3 PUSH2 0x1A5F SWAP2 PUSH2 0x1878 JUMP JUMPDEST PUSH2 0x188B JUMP JUMPDEST POP POP POP PUSH1 0x0 SWAP1 JUMP JUMPDEST SWAP1 SWAP2 PUSH1 0x20 DUP3 RETURNDATASIZE PUSH1 0x20 GT PUSH2 0x1A98 JUMPI JUMPDEST DUP2 PUSH2 0x1A87 PUSH1 0x20 SWAP4 DUP4 PUSH2 0x1765 JUMP JUMPDEST DUP2 ADD SUB SLT PUSH2 0x584 JUMPI POP MLOAD SWAP1 CODESIZE PUSH2 0x1A4B JUMP JUMPDEST RETURNDATASIZE SWAP2 POP PUSH2 0x1A7A JUMP JUMPDEST PUSH1 0x40 MLOAD RETURNDATASIZE PUSH1 0x0 DUP3 RETURNDATACOPY RETURNDATASIZE SWAP1 REVERT JUMPDEST PUSH1 0x40 MLOAD PUSH4 0x18160DDD PUSH1 0xE0 SHL DUP2 MSTORE SWAP1 PUSH1 0x20 DUP3 PUSH1 0x4 DUP2 PUSH32 0x0 PUSH1 0x1 PUSH1 0x1 PUSH1 0xA0 SHL SUB AND GAS STATICCALL SWAP2 DUP3 ISZERO PUSH2 0x1AA0 JUMPI PUSH1 0x0 SWAP3 PUSH2 0x1A6C JUMPI POP DUP2 ISZERO PUSH2 0x1A64 JUMPI PUSH2 0x18EB SWAP3 PUSH2 0x1A5F SWAP2 PUSH2 0x1878 JUMP JUMPDEST SWAP1 DUP1 DUP1 PUSH2 0x1B5A JUMPI JUMPDEST DUP2 ISZERO PUSH2 0x1B3E JUMPI JUMPDEST POP PUSH2 0x1B28 JUMPI POP PUSH1 0x0 SWAP1 JUMP JUMPDEST PUSH2 0x1977 PUSH8 0xDE0B6B3A7640000 SWAP2 PUSH1 0xA SLOAD SWAP1 PUSH2 0x1878 JUMP JUMPDEST SWAP1 POP ISZERO DUP1 PUSH2 0x1B4D JUMPI JUMPDEST CODESIZE PUSH2 0x1B1D JUMP JUMPDEST POP PUSH1 0xFF PUSH1 0xB SLOAD AND ISZERO PUSH2 0x1B47 JUMP JUMPDEST PUSH1 0xB SLOAD PUSH1 0xFF AND SWAP2 POP PUSH2 0x1B16 JUMP JUMPDEST ISZERO PUSH2 0x1B6E JUMPI JUMP JUMPDEST PUSH1 0x40 MLOAD PUSH3 0x461BCD PUSH1 0xE5 SHL DUP2 MSTORE PUSH1 0x20 PUSH1 0x4 DUP3 ADD MSTORE PUSH1 0xF PUSH1 0x24 DUP3 ADD MSTORE PUSH15 0x139BDD081A5B9A5D1A585B1A5E9959 PUSH1 0x8A SHL PUSH1 0x44 DUP3 ADD MSTORE PUSH1 0x64 SWAP1 REVERT JUMPDEST ISZERO PUSH2 0x1BAC JUMPI JUMP JUMPDEST PUSH1 0x40 MLOAD PUSH3 0x461BCD PUSH1 0xE5 SHL DUP2 MSTORE PUSH1 0x20 PUSH1 0x4 DUP3 ADD MSTORE PUSH1 0xE PUSH1 0x24 DUP3 ADD MSTORE PUSH14 0x13585C9AD95D081CD95D1D1B1959 PUSH1 0x92 SHL PUSH1 0x44 DUP3 ADD MSTORE PUSH1 0x64 SWAP1 REVERT JUMPDEST ISZERO PUSH2 0x1BE9 JUMPI JUMP JUMPDEST PUSH1 0x40 MLOAD PUSH3 0x461BCD PUSH1 0xE5 SHL DUP2 MSTORE PUSH1 0x20 PUSH1 0x4 DUP3 ADD MSTORE PUSH1 0xE PUSH1 0x24 DUP3 ADD MSTORE PUSH14 0x13585C9AD95D08195E1C1A5C9959 PUSH1 0x92 SHL PUSH1 0x44 DUP3 ADD MSTORE PUSH1 0x64 SWAP1 REVERT JUMPDEST ISZERO PUSH2 0x1C26 JUMPI JUMP JUMPDEST PUSH1 0x40 MLOAD PUSH3 0x461BCD PUSH1 0xE5 SHL DUP2 MSTORE PUSH1 0x20 PUSH1 0x4 DUP3 ADD MSTORE PUSH1 0x12 PUSH1 0x24 DUP3 ADD MSTORE PUSH18 0x416D6F756E74206D757374206265203E203 PUSH1 0x74 SHL PUSH1 0x44 DUP3 ADD MSTORE PUSH1 0x64 SWAP1 REVERT JUMPDEST PUSH1 0x8 SLOAD PUSH2 0x18BB PUSH1 0x9 SLOAD DUP3 PUSH2 0x1855 JUMP JUMPDEST PUSH1 0x0 SLOAD PUSH1 0x1 PUSH1 0x1 PUSH1 0xA0 SHL SUB AND CALLER SUB PUSH2 0x1C83 JUMPI JUMP JUMPDEST PUSH4 0x118CDAA7 PUSH1 0xE0 SHL PUSH1 0x0 MSTORE CALLER PUSH1 0x4 MSTORE PUSH1 0x24 PUSH1 0x0 REVERT JUMPDEST PUSH1 0x40 MLOAD PUSH4 0xA9059CBB PUSH1 0xE0 SHL PUSH1 0x20 DUP3 ADD MSTORE PUSH1 0x1 PUSH1 0x1 PUSH1 0xA0 SHL SUB SWAP3 SWAP1 SWAP3 AND PUSH1 0x24 DUP4 ADD MSTORE PUSH1 0x44 DUP1 DUP4 ADD SWAP4 SWAP1 SWAP4 MSTORE SWAP2 DUP2 MSTORE PUSH2 0x1CD9 SWAP2 PUSH2 0x1CD4 PUSH1 0x64 DUP4 PUSH2 0x1765 JUMP JUMPDEST PUSH2 0x1D1F JUMP JUMPDEST JUMP JUMPDEST PUSH1 0x40 MLOAD PUSH4 0x23B872DD PUSH1 0xE0 SHL PUSH1 0x20 DUP3 ADD MSTORE PUSH1 0x1 PUSH1 0x1 PUSH1 0xA0 SHL SUB SWAP3 DUP4 AND PUSH1 0x24 DUP3 ADD MSTORE SWAP3 SWAP1 SWAP2 AND PUSH1 0x44 DUP4 ADD MSTORE PUSH1 0x64 DUP1 DUP4 ADD SWAP4 SWAP1 SWAP4 MSTORE SWAP2 DUP2 MSTORE PUSH2 0x1CD9 SWAP2 PUSH2 0x1CD4 PUSH1 0x84 DUP4 PUSH2 0x1765 JUMP JUMPDEST SWAP1 PUSH1 0x0 PUSH1 0x20 SWAP2 DUP3 DUP2 MLOAD SWAP2 ADD DUP3 DUP6 GAS CALL ISZERO PUSH2 0x1AA0 JUMPI PUSH1 0x0 MLOAD RETURNDATASIZE PUSH2 0x1D71 JUMPI POP PUSH1 0x1 PUSH1 0x1 PUSH1 0xA0 SHL SUB DUP2 AND EXTCODESIZE ISZERO JUMPDEST PUSH2 0x1D50 JUMPI POP JUMP JUMPDEST PUSH4 0x5274AFE7 PUSH1 0xE0 SHL PUSH1 0x0 SWAP1 DUP2 MSTORE PUSH1 0x1 PUSH1 0x1 PUSH1 0xA0 SHL SUB SWAP2 SWAP1 SWAP2 AND PUSH1 0x4 MSTORE PUSH1 0x24 SWAP1 REVERT JUMPDEST PUSH1 0x1 EQ ISZERO PUSH2 0x1D49 JUMP INVALID PUSH27 0xDF19C920CE2E6AB865378ED1351C2323BB77BC208340A1482F9C1D EXTCODESIZE 0xB1 BYTE DUP12 0xB1 0xE 0x2D MSTORE PUSH23 0x12073B26EECDFD717E6A320CF44B4AFAC2B0732D9FCBE2 0xB7 STATICCALL 0xC 0xF6 LOG2 PUSH5 0x6970667358 0x22 SLT KECCAK256 0xBC 0xE2 0x29 MOD CALLER PUSH23 0xB7671ACE1461C719173D44DB95E3A1979094C6AC26C60B INVALID SWAP9 0xDD PUSH5 0x736F6C6343 STOP ADDMOD 0x1E STOP CALLER "},"methodIdentifiers":{"BOOTSTRAP_BOUND()":"2c18234a","BOOTSTRAP_BREAK()":"c6d73b6d","BPS_DENOMINATOR()":"e1a45218","FEE_BPS()":"bf333f2c","boundPool()":"2a3c59b4","boundToken()":"1c787f8a","boundWins()":"f70e9066","breakPool()":"14445acd","breakToken()":"4c2ccf74","buyBound(uint256)":"c3d3ad01","buyBreak(uint256)":"ced2502c","collateralToken()":"b2016bd4","factory()":"c45a0155","getBoundPrice()":"f8f6e9a2","getBreakPrice()":"22069f82","getEstimatedPayout(bool,uint256)":"3e4ff03a","getEstimatedTokens(bool,uint256)":"295ce5e5","initialize(string,uint256,uint256,uint256,uint256)":"1e7fea20","marketConfig()":"23c113dc","owner()":"8da5cb5b","redeem(bool,uint256)":"fb3c967f","redemptionRate()":"540385a3","renounceOwnership()":"715018a6","settle(uint256)":"8df82800","transferOwnership(address)":"f2fde38b"}}}}}