{
  "_format": "hh-sol-artifact-1",
  "contractName": "BrimdexParimutuelMarketFactory",
  "sourceName": "contracts/BrimdexParimutuelMarketFactory.sol",
  "abi": [
    {
      "inputs": [
        {
          "internalType": "address",
          "name": "_collateralToken",
          "type": "address"
        },
        {
          "internalType": "address",
          "name": "_owner",
          "type": "address"
        }
      ],
      "stateMutability": "nonpayable",
      "type": "constructor"
    },
    {
      "inputs": [
        {
          "internalType": "address",
          "name": "owner",
          "type": "address"
        }
      ],
      "name": "OwnableInvalidOwner",
      "type": "error"
    },
    {
      "inputs": [
        {
          "internalType": "address",
          "name": "account",
          "type": "address"
        }
      ],
      "name": "OwnableUnauthorizedAccount",
      "type": "error"
    },
    {
      "inputs": [
        {
          "internalType": "address",
          "name": "token",
          "type": "address"
        }
      ],
      "name": "SafeERC20FailedOperation",
      "type": "error"
    },
    {
      "anonymous": false,
      "inputs": [
        {
          "indexed": true,
          "internalType": "address",
          "name": "market",
          "type": "address"
        },
        {
          "indexed": true,
          "internalType": "address",
          "name": "boundToken",
          "type": "address"
        },
        {
          "indexed": true,
          "internalType": "address",
          "name": "breakToken",
          "type": "address"
        },
        {
          "indexed": false,
          "internalType": "string",
          "name": "name",
          "type": "string"
        },
        {
          "indexed": false,
          "internalType": "uint256",
          "name": "lowerBound",
          "type": "uint256"
        },
        {
          "indexed": false,
          "internalType": "uint256",
          "name": "upperBound",
          "type": "uint256"
        },
        {
          "indexed": false,
          "internalType": "uint256",
          "name": "expiryTimestamp",
          "type": "uint256"
        }
      ],
      "name": "MarketCreated",
      "type": "event"
    },
    {
      "anonymous": false,
      "inputs": [
        {
          "indexed": true,
          "internalType": "address",
          "name": "previousOwner",
          "type": "address"
        },
        {
          "indexed": true,
          "internalType": "address",
          "name": "newOwner",
          "type": "address"
        }
      ],
      "name": "OwnershipTransferred",
      "type": "event"
    },
    {
      "inputs": [
        {
          "internalType": "bytes32",
          "name": "",
          "type": "bytes32"
        }
      ],
      "name": "activeMarkets",
      "outputs": [
        {
          "internalType": "address",
          "name": "",
          "type": "address"
        }
      ],
      "stateMutability": "view",
      "type": "function"
    },
    {
      "inputs": [],
      "name": "collateralToken",
      "outputs": [
        {
          "internalType": "address",
          "name": "",
          "type": "address"
        }
      ],
      "stateMutability": "view",
      "type": "function"
    },
    {
      "inputs": [
        {
          "internalType": "string",
          "name": "name",
          "type": "string"
        },
        {
          "internalType": "uint256",
          "name": "lowerBound",
          "type": "uint256"
        },
        {
          "internalType": "uint256",
          "name": "upperBound",
          "type": "uint256"
        },
        {
          "internalType": "uint256",
          "name": "expiryTimestamp",
          "type": "uint256"
        },
        {
          "internalType": "uint256",
          "name": "timeframeDuration",
          "type": "uint256"
        },
        {
          "internalType": "uint256",
          "name": "startPrice",
          "type": "uint256"
        },
        {
          "internalType": "string",
          "name": "boundTokenName",
          "type": "string"
        },
        {
          "internalType": "string",
          "name": "boundTokenSymbol",
          "type": "string"
        },
        {
          "internalType": "string",
          "name": "breakTokenName",
          "type": "string"
        },
        {
          "internalType": "string",
          "name": "breakTokenSymbol",
          "type": "string"
        }
      ],
      "name": "createMarket",
      "outputs": [
        {
          "internalType": "address",
          "name": "market",
          "type": "address"
        },
        {
          "internalType": "address",
          "name": "boundToken",
          "type": "address"
        },
        {
          "internalType": "address",
          "name": "breakToken",
          "type": "address"
        }
      ],
      "stateMutability": "nonpayable",
      "type": "function"
    },
    {
      "inputs": [],
      "name": "getAllMarkets",
      "outputs": [
        {
          "internalType": "address[]",
          "name": "",
          "type": "address[]"
        }
      ],
      "stateMutability": "view",
      "type": "function"
    },
    {
      "inputs": [],
      "name": "getMarketCount",
      "outputs": [
        {
          "internalType": "uint256",
          "name": "",
          "type": "uint256"
        }
      ],
      "stateMutability": "view",
      "type": "function"
    },
    {
      "inputs": [
        {
          "internalType": "address",
          "name": "",
          "type": "address"
        }
      ],
      "name": "isMarket",
      "outputs": [
        {
          "internalType": "bool",
          "name": "",
          "type": "bool"
        }
      ],
      "stateMutability": "view",
      "type": "function"
    },
    {
      "inputs": [
        {
          "internalType": "address",
          "name": "",
          "type": "address"
        }
      ],
      "name": "marketToBoundToken",
      "outputs": [
        {
          "internalType": "address",
          "name": "",
          "type": "address"
        }
      ],
      "stateMutability": "view",
      "type": "function"
    },
    {
      "inputs": [
        {
          "internalType": "address",
          "name": "",
          "type": "address"
        }
      ],
      "name": "marketToBreakToken",
      "outputs": [
        {
          "internalType": "address",
          "name": "",
          "type": "address"
        }
      ],
      "stateMutability": "view",
      "type": "function"
    },
    {
      "inputs": [
        {
          "internalType": "uint256",
          "name": "",
          "type": "uint256"
        }
      ],
      "name": "markets",
      "outputs": [
        {
          "internalType": "address",
          "name": "",
          "type": "address"
        }
      ],
      "stateMutability": "view",
      "type": "function"
    },
    {
      "inputs": [],
      "name": "owner",
      "outputs": [
        {
          "internalType": "address",
          "name": "",
          "type": "address"
        }
      ],
      "stateMutability": "view",
      "type": "function"
    },
    {
      "inputs": [],
      "name": "renounceOwnership",
      "outputs": [],
      "stateMutability": "nonpayable",
      "type": "function"
    },
    {
      "inputs": [
        {
          "internalType": "address",
          "name": "newOwner",
          "type": "address"
        }
      ],
      "name": "transferOwnership",
      "outputs": [],
      "stateMutability": "nonpayable",
      "type": "function"
    }
  ],
  "bytecode": "0x60a0346100e157601f613b9438819003918201601f19168301916001600160401b038311848410176100e65780849260409485528339810103126100e157610046816100fc565b906001600160a01b039061005c906020016100fc565b169081156100cb57600080546001600160a01b031981168417825560405193916001600160a01b03909116907f8be0079c531659141344cd1fd0a4f28419497f9722a3daafe3b4186f6b6457e09080a3608052613a839081610111823960805181818161022401526105bd0152f35b631e4fbdf760e01b600052600060045260246000fd5b600080fd5b634e487b7160e01b600052604160045260246000fd5b51906001600160a01b03821682036100e15756fe6080604052600436101561001257600080fd5b6000803560e01c8063355b15fd146104225780636ec934da146103e0578063715018a6146103865780638da5cb5b1461035f578063b0772d0b14610297578063b1283e7714610253578063b2016bd41461020e578063b9249f21146101c8578063c46632ac14610182578063f2fde38b146100f4578063fae1ac9b146100c15763fd69f3c2146100a157600080fd5b346100be57806003193601126100be576020600154604051908152f35b80fd5b50346100be5760203660031901126100be57602090600435815260058252604060018060a01b0391205416604051908152f35b50346100be5760203660031901126100be576004356001600160a01b0381169081900361017e57610123610ce5565b801561016a5781546001600160a01b03198116821783556001600160a01b03167f8be0079c531659141344cd1fd0a4f28419497f9722a3daafe3b4186f6b6457e08380a380f35b631e4fbdf760e01b82526004829052602482fd5b5080fd5b50346100be5760203660031901126100be576004356001600160a01b0381169081900361017e5790602091815260048252604060018060a01b0391205416604051908152f35b50346100be5760203660031901126100be576004356001600160a01b0381169081900361017e5790602091815260038252604060018060a01b0391205416604051908152f35b50346100be57806003193601126100be576040517f00000000000000000000000000000000000000000000000000000000000000006001600160a01b03168152602090f35b50346100be5760203660031901126100be57600435906001548210156100be57602061027e83610c07565b905460405160039290921b1c6001600160a01b03168152f35b50346100be57806003193601126100be5760405180602060015491828152018091600185527fb10e2d527612073b26eecdfd717e6a320cf44b4afac2b0732d9fcbe2b7fa0cf690855b81811061034057505050826102f6910383610b67565b604051928392602084019060208552518091526040840192915b81811061031e575050500390f35b82516001600160a01b0316845285945060209384019390920191600101610310565b82546001600160a01b03168452602090930192600192830192016102e0565b50346100be57806003193601126100be57546040516001600160a01b039091168152602090f35b50346100be57806003193601126100be5761039f610ce5565b80546001600160a01b03198116825581906001600160a01b03167f8be0079c531659141344cd1fd0a4f28419497f9722a3daafe3b4186f6b6457e08280a380f35b50346100be5760203660031901126100be576004356001600160a01b0381169081900361017e5760408260ff9260209452600284522054166040519015158152f35b50346100be576101403660031901126100be5760043567ffffffffffffffff811161017e57610455903690600401610bbb565b602435604435606435926084359260c43567ffffffffffffffff8111610b6357610483903690600401610bbb565b9460e43567ffffffffffffffff8111610b5f576104a4903690600401610bbb565b936101043567ffffffffffffffff8111610b5b576104c6903690600401610bbb565b946101243567ffffffffffffffff81116108be576104e8903690600401610bbb565b976104f1610ce5565b85518015159081610b4f575b5015610b0a57620151808811159889610969575b604051610d7a938482019082821067ffffffffffffffff83111761094a57829161054491610d0f96888886393092610cab565b03908cf0801561095e5760018060a01b031697604051938085019385851067ffffffffffffffff86111761094a5791610584939186959386393092610cab565b039089f0801561093f5760018060a01b03169560405197611fc59889810199818b1067ffffffffffffffff8c111761092b57611a8982397f00000000000000000000000000000000000000000000000000000000000000006001600160a01b0316808b5260208b0189905260408b018a90523360608c01523060808c01529981900360a001908bf080156108e8576001600160a01b031698873b156109085760405163f2fde38b60e01b8152600481018b90528b81602481838d5af180156109205761090c575b508a893b156100be5760405163f2fde38b60e01b8152600481018c90528181602481838f5af180156108c2576108f3575b50602090604051828101906323b872dd60e01b82523360248201528d60448201526301312d006064820152606481526106b6608482610b67565b519082855af1156108e8578a513d6108df5750803b155b6108cd5750883b156108be5760405162f3ff5160e51b815260a060048201528a9081818c81838161070160a482018f610c86565b8d60248301528b60448301528c606483015260a435608483015203925af180156108c2576108a9575b505060015468010000000000000000811015610895579489947ee658621d94668232e7e5db2279d76e6d8ff89b0252e5655882465d5e8a9bba946108209460609d8c9a9561077f8b60018f9d01600155610c07565b81549060031b908c821b9160018060a01b03901b1916179055898252600260205260408220600160ff1982541617905589825260036020526040822060018060a01b038c166bffffffffffffffffffffffff60a01b82541617905589825260046020526040822060018060a01b038d166bffffffffffffffffffffffff60a01b825416179055610844575b5050604051948594608086526080860190610c86565b92602085015260408401528b8301520390a460405192835260208301526040820152f35b604091825161086a8161085c60208201948b86610c5b565b03601f198101835282610b67565b519020815260056020522080546001600160a01b0319166001600160a01b038916179055388061080a565b634e487b7160e01b8b52604160045260248bfd5b816108b391610b67565b6108be57893861072a565b8980fd5b6040513d84823e3d90fd5b635274afe760e01b8b5260045260248afd5b600114156106cd565b6040513d8c823e3d90fd5b816108fd91610b67565b610908578a3861067c565b8a80fd5b8b610919919c929c610b67565b993861064b565b6040513d8e823e3d90fd5b634e487b7160e01b8c52604160045260248cfd5b6040513d8a823e3d90fd5b634e487b7160e01b8e52604160045260248efd5b6040513d8d823e3d90fd5b60405160208101906109808161085c8d8c86610c5b565b519020808c52600560205260408c20548c906001600160a01b0316806109bf575b5052600560205260408b2080546001600160a01b0319169055610511565b81600491604051928380926308f044f760e21b82525afa9081156108c2578291610a65575b50159081610a5b575b506109f9578b386109a1565b60405162461bcd60e51b815260206004820152603460248201527f416374697665206d61726b657420616c72656164792065786973747320666f726044820152732074686973206e616d652b74696d656672616d6560601b6064820152608490fd5b90504210386109ed565b9150508c3d8091833e610a788183610b67565b810161010082820312610b0657815167ffffffffffffffff8111610b0257820181601f82011215610b0257805190610aaf82610b9f565b92610abd6040519485610b67565b82845260208383010111610afe57602080610ada94019101610c38565b610af860e0606083015192610af160c08201610c79565b5001610c79565b386109e4565b8f80fd5b8e80fd5b8d80fd5b60405162461bcd60e51b815260206004820152601b60248201527f4e616d65206d75737420626520312d38206368617261637465727300000000006044820152606490fd5b600891501115386104fd565b8880fd5b8780fd5b8680fd5b90601f8019910116810190811067ffffffffffffffff821117610b8957604052565b634e487b7160e01b600052604160045260246000fd5b67ffffffffffffffff8111610b8957601f01601f191660200190565b81601f82011215610c0257803590610bd282610b9f565b92610be06040519485610b67565b82845260208383010111610c0257816000926020809301838601378301015290565b600080fd5b600154811015610c2257600160005260206000200190600090565b634e487b7160e01b600052603260045260246000fd5b60005b838110610c4b5750506000910152565b8181015183820152602001610c3b565b6020929190610c71849282815194859201610c38565b019081520190565b51908115158203610c0257565b90602091610c9f81518092818552858086019101610c38565b601f01601f1916010190565b91610cd590610cc7604093969596606086526060860190610c86565b908482036020860152610c86565b6001600160a01b03909416910152565b6000546001600160a01b03163303610cf957565b63118cdaa760e01b6000523360045260246000fdfe6080604052346103a057610d7a80380380610019816103a5565b9283398101906060818303126103a05780516001600160401b0381116103a057826100459183016103ca565b60208201519092906001600160401b0381116103a0576040916100699184016103ca565b9101516001600160a01b038116908190036103a05782516001600160401b0381116102a957600354600181811c91168015610396575b602082101461028957601f8111610331575b506020601f82116001146102ca57819293946000926102bf575b50508160011b916000199060031b1c1916176003555b81516001600160401b0381116102a957600454600181811c9116801561029f575b602082101461028957601f8111610224575b50602092601f82116001146101bf57928192936000926101b4575b50508160011b916000199060031b1c1916176004555b801561019e57600580546001600160a01b03198116831790915560405191906001600160a01b03167f8be0079c531659141344cd1fd0a4f28419497f9722a3daafe3b4186f6b6457e0600080a361094490816104368239f35b631e4fbdf760e01b600052600060045260246000fd5b01519050388061012f565b601f198216936004600052806000209160005b86811061020c57508360019596106101f3575b505050811b01600455610145565b015160001960f88460031b161c191690553880806101e5565b919260206001819286850151815501940192016101d2565b60046000527f8a35acfbc15ff81a39ae7d344fd709f28e8600b4aa8c65c6b64bfe7fe36bd19b601f830160051c8101916020841061027f575b601f0160051c01905b8181106102735750610114565b60008155600101610266565b909150819061025d565b634e487b7160e01b600052602260045260246000fd5b90607f1690610102565b634e487b7160e01b600052604160045260246000fd5b0151905038806100cb565b601f198216906003600052806000209160005b81811061031957509583600195969710610300575b505050811b016003556100e1565b015160001960f88460031b161c191690553880806102f2565b9192602060018192868b0151815501940192016102dd565b60036000527fc2575a0e9e593c00f959f8c92f12db2869c3395a3b0502d05e2516446f71f85b601f830160051c8101916020841061038c575b601f0160051c01905b81811061038057506100b1565b60008155600101610373565b909150819061036a565b90607f169061009f565b600080fd5b6040519190601f01601f191682016001600160401b038111838210176102a957604052565b81601f820112156103a0578051906001600160401b0382116102a9576103f9601f8301601f19166020016103a5565b92828452602083830101116103a05760005b82811061042057505060206000918301015290565b8060208092840101518282870101520161040b56fe608080604052600436101561001357600080fd5b60003560e01c90816306fdde031461065957508063095ea7b3146105a757806318160ddd1461058957806323b872dd14610551578063313ce5671461053557806340c10f191461048157806370a0823114610447578063715018a6146103ea57806379cc6790146103145780638da5cb5b146102eb57806395d89b41146101ca578063a9059cbb14610199578063dd62ed3e146101485763f2fde38b146100b957600080fd5b34610143576020366003190112610143576100d2610775565b6100da6108e5565b6001600160a01b0316801561012d57600580546001600160a01b0319811683179091556001600160a01b03167f8be0079c531659141344cd1fd0a4f28419497f9722a3daafe3b4186f6b6457e0600080a3005b631e4fbdf760e01b600052600060045260246000fd5b600080fd5b3461014357604036600319011261014357610161610775565b61016961078b565b6001600160a01b039182166000908152600160209081526040808320949093168252928352819020549051908152f35b34610143576040366003190112610143576101bf6101b5610775565b602435903361084c565b602060405160018152f35b346101435760003660031901126101435760405160006004548060011c906001811680156102e1575b6020831081146102cd578285529081156102b1575060011461025a575b50819003601f01601f191681019067ffffffffffffffff821181831017610244576102408291826040528261072c565b0390f35b634e487b7160e01b600052604160045260246000fd5b905060046000527f8a35acfbc15ff81a39ae7d344fd709f28e8600b4aa8c65c6b64bfe7fe36bd19b6000905b82821061029b57506020915082010182610210565b6001816020925483858801015201910190610286565b90506020925060ff191682840152151560051b82010182610210565b634e487b7160e01b84526022600452602484fd5b91607f16916101f3565b34610143576000366003190112610143576005546040516001600160a01b039091168152602090f35b346101435760403660031901126101435761032d610775565b6001600160a01b038116906024359081338490036103d8575b505081156103c2576000908282528160205260408220548181106103aa5760208285937fddf252ad1be2c89b69c2b068fc378daa952ba7f163c4a11628f55a4df523b3ef93869787528684520360408620558060025403600255604051908152a380f35b60649363391434e360e21b8452600452602452604452fd5b634b637e8f60e11b600052600060045260246000fd5b6103e39133906107a1565b8281610346565b34610143576000366003190112610143576104036108e5565b600580546001600160a01b031981169091556000906001600160a01b03167f8be0079c531659141344cd1fd0a4f28419497f9722a3daafe3b4186f6b6457e08280a3005b34610143576020366003190112610143576001600160a01b03610468610775565b1660005260006020526020604060002054604051908152f35b346101435760403660031901126101435761049a610775565b602435906104a66108e5565b6001600160a01b0316801561051f5760025491808301809311610509576020926002557fddf252ad1be2c89b69c2b068fc378daa952ba7f163c4a11628f55a4df523b3ef600093849284845283825260408420818154019055604051908152a380f35b634e487b7160e01b600052601160045260246000fd5b63ec442f0560e01b600052600060045260246000fd5b3461014357600036600319011261014357602060405160068152f35b34610143576060366003190112610143576101bf61056d610775565b61057561078b565b604435916105848333836107a1565b61084c565b34610143576000366003190112610143576020600254604051908152f35b34610143576040366003190112610143576105c0610775565b602435903315610643576001600160a01b031690811561062d57336000526001602052604060002082600052602052806040600020556040519081527f8c5be1e5ebec7d5bd14f71427d1e84f3dd0314c0f7b2291e5b200ac8c7c3b92560203392a3602060405160018152f35b634a1406b160e11b600052600060045260246000fd5b63e602df0560e01b600052600060045260246000fd5b346101435760003660031901126101435760006003548060011c90600181168015610722575b6020831081146102cd578285529081156102b157506001146106cb5750819003601f01601f191681019067ffffffffffffffff821181831017610244576102408291826040528261072c565b905060036000527fc2575a0e9e593c00f959f8c92f12db2869c3395a3b0502d05e2516446f71f85b6000905b82821061070c57506020915082010182610210565b60018160209254838588010152019101906106f7565b91607f169161067f565b91909160208152825180602083015260005b81811061075f575060409293506000838284010152601f8019910116010190565b806020809287010151604082860101520161073e565b600435906001600160a01b038216820361014357565b602435906001600160a01b038216820361014357565b6001600160a01b0390811660008181526001602090815260408083209486168352939052919091205492919060001984106107dd575b50505050565b828410610827578015610643576001600160a01b0382161561062d57600052600160205260406000209060018060a01b0316600052602052604060002091039055388080806107d7565b508290637dc7a0d960e11b60005260018060a01b031660045260245260445260646000fd5b6001600160a01b03169081156103c2576001600160a01b031691821561051f5760008281528060205260408120548281106108cb5791604082827fddf252ad1be2c89b69c2b068fc378daa952ba7f163c4a11628f55a4df523b3ef958760209652828652038282205586815280845220818154019055604051908152a3565b916064928463391434e360e21b8452600452602452604452fd5b6005546001600160a01b031633036108f957565b63118cdaa760e01b6000523360045260246000fdfea2646970667358221220fb8e7adeebb191bd6843b5f6fda7ee781ea4451136b33091cd59dfaacea8e32c64736f6c634300081e0033610100346101a557601f611fc538819003918201601f19168301916001600160401b038311848410176101aa5780849260a0946040528339810103126101a557610048816101c0565b90610055602082016101c0565b610061604083016101c0565b9061007a6080610073606086016101c0565b94016101c0565b6001600160a01b0390931693841561018f57600080546001600160a01b031981168717825560405196916001600160a01b03909116907f8be0079c531659141344cd1fd0a4f28419497f9722a3daafe3b4186f6b6457e09080a36001600160a01b0390811660805290811660a0521660c05260e052611df090816101d58239608051818181610232015281816106c7015281816108e501528181610a7301528181610be60152611272015260a0518181816101890152818161097901528181610b5b015281816112b00152818161171a0152611a12015260c0518181816103b60152818161075c01528181610cc101528181610ec5015281816113160152611ac2015260e05181818161086d01526111060152f35b631e4fbdf760e01b600052600060045260246000fd5b600080fd5b634e487b7160e01b600052604160045260246000fd5b51906001600160a01b03821682036101a55756fe608080604052600436101561001357600080fd5b600090813560e01c90816314445acd14611749575080631c787f8a146117045780631e7fea201461107d57806322069f821461106257806323c113dc14610f46578063295ce5e514610f2c5780632a3c59b414610f0e5780632c18234a146108525780633e4ff03a14610ef45780634c2ccf7414610eaf578063540385a314610e91578063715018a614610e375780638da5cb5b14610e105780638df8280014610aa2578063b2016bd414610a5d578063bf333f2c14610a41578063c3d3ad011461089c578063c45a015514610857578063c6d73b6d14610852578063ced2502c14610674578063e1a4521814610657578063f2fde38b146105cd578063f70e9066146105aa578063f8f6e9a2146105875763fb3c967f1461013457600080fd5b346105845761014236611818565b9060ff60075460081c161561055157600a541561051357610164821515611c1f565b156103975760ff600b54161561035e576040516370a0823160e01b81523360048201527f00000000000000000000000000000000000000000000000000000000000000006001600160a01b031690602081602481855afa80156103535783918591610319575b50106102df578083913b156102d05760405163079cc67960e41b8152336004820152602481018490529082908290604490829084905af180156102d4576102bb575b5050670de0b6b3a7640000610223600a5483611878565b045b801561028a5761025681337f0000000000000000000000000000000000000000000000000000000000000000611c98565b60405191825260208201527fd171fb179b26c49e23fe46eddd44d3048a1ad277b62144ac0725fbcf1dbf6d5260403392a280f35b60405162461bcd60e51b8152602060048201526009602482015268139bc81c185e5bdd5d60ba1b6044820152606490fd5b816102c591611765565b6102d057813861020c565b5080fd5b6040513d84823e3d90fd5b60405162461bcd60e51b8152602060048201526012602482015271125b9cdd59999a58da595b9d081093d5539160721b6044820152606490fd5b9150506020813d60201161034b575b8161033560209383611765565b8101031261034657829051386101ca565b600080fd5b3d9150610328565b6040513d86823e3d90fd5b60405162461bcd60e51b81526020600482015260116024820152702127aaa722103234b2103737ba103bb4b760791b6044820152606490fd5b60ff600b54166104da576040516370a0823160e01b81523360048201527f00000000000000000000000000000000000000000000000000000000000000006001600160a01b031690602081602481855afa801561035357839185916104a5575b501061046b578083913b156102d05760405163079cc67960e41b8152336004820152602481018490529082908290604490829084905af180156102d457610456575b5050670de0b6b3a7640000610450600a5483611878565b04610225565b8161046091611765565b6102d0578138610439565b60405162461bcd60e51b8152602060048201526012602482015271496e73756666696369656e7420425245414b60701b6044820152606490fd5b9150506020813d6020116104d2575b816104c160209383611765565b8101031261034657829051386103f7565b3d91506104b4565b60405162461bcd60e51b8152602060048201526011602482015270212922a0a5903234b2103737ba103bb4b760791b6044820152606490fd5b60405162461bcd60e51b8152602060048201526016602482015275139bc81c9959195b5c1d1a5bdb881c985d19481cd95d60521b6044820152606490fd5b60405162461bcd60e51b815260206004820152600b60248201526a139bdd081cd95d1d1b195960aa1b6044820152606490fd5b80fd5b503461058457806003193601126105845760206105a2611c60565b604051908152f35b5034610584578060031936011261058457602060ff600b54166040519015158152f35b5034610584576020366003190112610584576004356001600160a01b038116908190036102d0576105fc611c6f565b80156106435781546001600160a01b03198116821783556001600160a01b03167f8be0079c531659141344cd1fd0a4f28419497f9722a3daafe3b4186f6b6457e08380a380f35b631e4fbdf760e01b82526004829052602482fd5b503461058457806003193601126105845760206040516127108152f35b5034610584576020366003190112610584576004356106a660ff60075461069c828216611b67565b60081c1615611ba5565b6106b36004544210611be2565b80156106bf8115611c1f565b6106eb8230337f0000000000000000000000000000000000000000000000000000000000000000611cdb565b6008546106fb6009548092611855565b90670de0b6b3a7640000810290808204670de0b6b3a7640000149015171561083e57906107279161188b565b90670de0b6b3a7640000830290838204670de0b6b3a764000014171561082a576107578264e8d4a510009261188b565b0490837f00000000000000000000000000000000000000000000000000000000000000006001600160a01b0316803b156102d0576040516340c10f1960e01b8152336004820152602481018590529082908290604490829084905af180156102d457610811575b50507f3e76c10d8f0390ab59ba604608ca53dd4b0ec88e263c96e4070b3f3b7f36d92f916107ee84600954611855565b600955604080519485526020850191909152830152339180606081015b0390a280f35b8161081b91611765565b6108265783386107be565b8380fd5b634e487b7160e01b84526011600452602484fd5b634e487b7160e01b85526011600452602485fd5b611837565b50346105845780600319360112610584576040517f00000000000000000000000000000000000000000000000000000000000000006001600160a01b03168152602090f35b5034610584576020366003190112610584576004356108c460ff60075461069c828216611b67565b6108d16004544210611be2565b80156108dd8115611c1f565b6109098230337f0000000000000000000000000000000000000000000000000000000000000000611cdb565b60085461091860095482611855565b90670de0b6b3a7640000810290808204670de0b6b3a7640000149015171561083e57906109449161188b565b90670de0b6b3a7640000830290838204670de0b6b3a764000014171561082a576109748264e8d4a510009261188b565b0490837f00000000000000000000000000000000000000000000000000000000000000006001600160a01b0316803b156102d0576040516340c10f1960e01b8152336004820152602481018590529082908290604490829084905af180156102d457610a2c575b50507f3a0e536fe3b9046ba1af260950d928ecb66cd524b0fee6ccecd92cd94747a74091610a0b84600854611855565b6008556040805194855260208501919091528301523391806060810161080b565b81610a3691611765565b6108265783386109db565b5034610584578060031936011261058457602060405160c88152f35b50346105845780600319360112610584576040517f00000000000000000000000000000000000000000000000000000000000000006001600160a01b03168152602090f35b503461058457602036600319011261058457600435610abf611c6f565b600754610ace60ff8216611b67565b60ff8160081c16610dd9576004544210610da6576002548210159182610d97575b506101009060ff8019600b541693151516809317600b5561ff00191617600755610b1e60085460095490611855565b9060c8820282810460c8148315171561082a5761271090048083039183831161083e5715610cac576040516318160ddd60e01b81526020816004817f00000000000000000000000000000000000000000000000000000000000000006001600160a01b03165afa908115610ca1578591610c6f575b5080610c10575b5091606091600080516020611d7b833981519152935b80610bd4575b5060ff600b541691604051921515835260208301526040820152a180f35b8554610c0a91906001600160a01b03167f0000000000000000000000000000000000000000000000000000000000000000611c98565b38610bb6565b670de0b6b3a76400008302838104670de0b6b3a7640000148386141715610c5b5791610c4f60609492600080516020611d7b833981519152969461188b565b600a5591935091610b9a565b634e487b7160e01b86526011600452602486fd5b90506020813d602011610c99575b81610c8a60209383611765565b81010312610346575138610b93565b3d9150610c7d565b6040513d87823e3d90fd5b6040516318160ddd60e01b81526020816004817f00000000000000000000000000000000000000000000000000000000000000006001600160a01b03165afa908115610ca1578591610d65575b5080610d1a575b5091606091600080516020611d7b83398151915293610bb0565b670de0b6b3a76400008302838104670de0b6b3a7640000148386141715610c5b5791610d5960609492600080516020611d7b833981519152969461188b565b600a5591935091610d00565b90506020813d602011610d8f575b81610d8060209383611765565b81010312610346575138610cf9565b3d9150610d73565b60035410159150610100610aef565b60405162461bcd60e51b815260206004820152600b60248201526a139bdd08195e1c1a5c995960aa1b6044820152606490fd5b60405162461bcd60e51b815260206004820152600f60248201526e105b1c9958591e481cd95d1d1b1959608a1b6044820152606490fd5b5034610584578060031936011261058457546040516001600160a01b039091168152602090f35b5034610584578060031936011261058457610e50611c6f565b80546001600160a01b03198116825581906001600160a01b03167f8be0079c531659141344cd1fd0a4f28419497f9722a3daafe3b4186f6b6457e08280a380f35b50346105845780600319360112610584576020600a54604051908152f35b50346105845780600319360112610584576040517f00000000000000000000000000000000000000000000000000000000000000006001600160a01b03168152602090f35b50346105845760206105a2610f0836611818565b906119be565b50346105845780600319360112610584576020600854604051908152f35b50346105845760206105a2610f4036611818565b906118fc565b5034610584578060031936011261058457604051908060015490610f698261179d565b808552916001811690811561103b5750600114610ff0575b610fbd84610f9181860382611765565b60025460ff60035460045460055460065491600754936040519889986101008a526101008a01906117d7565b96602089015260408801526060870152608086015260a0850152818116151560c085015260081c16151560e08301520390f35b60018152600080516020611d9b833981519152939250905b80821061102157509091508101602001610f9182610f81565b919260018160209254838588010152019101909291611008565b60ff191660208087019190915292151560051b85019092019250610f919150839050610f81565b503461058457806003193601126105845760206105a26118ab565b50346105845760a03660031901126105845760043567ffffffffffffffff81116102d057366023820112156102d05780600401359067ffffffffffffffff82116116f0578290604051926110db6020601f19601f8401160185611765565b80845236602482840101116116ec5780602460209301838601378301015260643590602435604435337f00000000000000000000000000000000000000000000000000000000000000006001600160a01b03161480156116d9575b156116a35760ff60075416611668574284111561163257808210156115fc57825180151590816115f0575b50156115ab57604051610100810181811067ffffffffffffffff8211176115975760405283815260208101908382526040810183815260608201878152608083019042825260a0840192608435845260e060c08601956001875201958b8752895167ffffffffffffffff8111611583576111dc60015461179d565b8d601f8211611514575b5081905060208e6001601f8411146114a25791611497575b508160011b916000199060031b1c1916176001555b516002555160035551600455516005555160065551151560ff80196007541691161760075551151561ff006007549160081b169061ff001916176007556040516370a0823160e01b815230600482015260208160248160018060a01b037f0000000000000000000000000000000000000000000000000000000000000000165afa801561140d57869061145d575b6301312d0091501061141857847f00000000000000000000000000000000000000000000000000000000000000006001600160a01b0316803b156102d05781906044604051809481936340c10f1960e01b835261dead60048401526298968060248401525af1801561140d576113f9575b50847f00000000000000000000000000000000000000000000000000000000000000006001600160a01b0316803b156102d0578180916044604051809481936340c10f1960e01b835261dead60048401526298968060248401525af180156102d4576113da575b50927fed39e1c72aedc6b7c401cd26bf78ad00977be2331d1ac8766efa2be79994bd7492856113c49362989680600855629896806009556040519485946080865260808601906117d7565b926020850152604084015260608301520390a180f35b816113e89195949395611765565b6113f55790918438611379565b8480fd5b8561140691969296611765565b9338611312565b6040513d88823e3d90fd5b60405162461bcd60e51b815260206004820152601c60248201527f496e73756666696369656e7420626f6f7473747261702066756e6473000000006044820152606490fd5b506020813d60201161148f575b8161147760209383611765565b8101031261148b576301312d0090516112a1565b8580fd5b3d915061146a565b90508b0151386111fe565b60018152600080516020611d9b8339815191529250601f198416908e5b8282106114fb57505090836001949392106114e2575b5050811b01600155611213565b8d015160001960f88460031b161c1916905538806114d5565b600184956020939584930151815501940192018e6114bf565b60019052601f820160051c600080516020611d9b83398151915201906020831061156d575b601f8f910160051c600080516020611d9b83398151915201915b82811061156057506111e6565b6001918155018e90611553565b600080516020611d9b8339815191529150611539565b634e487b7160e01b8d52604160045260248dfd5b634e487b7160e01b87526041600452602487fd5b60405162461bcd60e51b815260206004820152601b60248201527f4e616d65206d75737420626520312d38206368617261637465727300000000006044820152606490fd5b60089150111538611161565b60405162461bcd60e51b815260206004820152600e60248201526d496e76616c696420626f756e647360901b6044820152606490fd5b60405162461bcd60e51b815260206004820152600e60248201526d496e76616c69642065787069727960901b6044820152606490fd5b60405162461bcd60e51b8152602060048201526013602482015272105b1c9958591e481a5b9a5d1a585b1a5e9959606a1b6044820152606490fd5b60405162461bcd60e51b815260206004820152600e60248201526d139bdd08185d5d1a1bdc9a5e995960921b6044820152606490fd5b5084546001600160a01b03163314611136565b8280fd5b634e487b7160e01b83526041600452602483fd5b50346105845780600319360112610584576040517f00000000000000000000000000000000000000000000000000000000000000006001600160a01b03168152602090f35b9050346102d057816003193601126102d0576020906009548152f35b90601f8019910116810190811067ffffffffffffffff82111761178757604052565b634e487b7160e01b600052604160045260246000fd5b90600182811c921680156117cd575b60208310146117b757565b634e487b7160e01b600052602260045260246000fd5b91607f16916117ac565b919082519283825260005b848110611803575050826000602080949584010152601f8019910116010190565b806020809284010151828286010152016117e2565b6040906003190112610346576004358015158103610346579060243590565b34610346576000366003190112610346576020604051629896808152f35b9190820180921161186257565b634e487b7160e01b600052601160045260246000fd5b8181029291811591840414171561186257565b8115611895570490565b634e487b7160e01b600052601260045260246000fd5b6008546118bb6009548092611855565b80156118ee57670de0b6b3a7640000820291808304670de0b6b3a76400001490151715611862576118eb9161188b565b90565b50506706f05b59d3b2000090565b6008549060095461190d8184611855565b9182156119a4571561197b5750670de0b6b3a7640000820291808304670de0b6b3a76400001490151715611862576119449161188b565b905b670de0b6b3a7640000810290808204670de0b6b3a764000014901517156118625764e8d4a51000916119779161188b565b0490565b670de0b6b3a7640000808202935081159184041417156118625761199e9161188b565b90611946565b505050508060011b90808204600214901517156118625790565b9060ff60075460081c16611b0e576119db60085460095490611855565b8015611a64576126488102908104612648036118625761271090049115611aac576040516318160ddd60e01b8152906020826004817f00000000000000000000000000000000000000000000000000000000000000006001600160a01b03165afa918215611aa057600092611a6c575b508115611a64576118eb92611a5f91611878565b61188b565b505050600090565b90916020823d602011611a98575b81611a8760209383611765565b810103126105845750519038611a4b565b3d9150611a7a565b6040513d6000823e3d90fd5b6040516318160ddd60e01b8152906020826004817f00000000000000000000000000000000000000000000000000000000000000006001600160a01b03165afa918215611aa057600092611a6c57508115611a64576118eb92611a5f91611878565b908080611b5a575b8115611b3e575b50611b285750600090565b611977670de0b6b3a764000091600a5490611878565b90501580611b4d575b38611b1d565b5060ff600b541615611b47565b600b5460ff169150611b16565b15611b6e57565b60405162461bcd60e51b815260206004820152600f60248201526e139bdd081a5b9a5d1a585b1a5e9959608a1b6044820152606490fd5b15611bac57565b60405162461bcd60e51b815260206004820152600e60248201526d13585c9ad95d081cd95d1d1b195960921b6044820152606490fd5b15611be957565b60405162461bcd60e51b815260206004820152600e60248201526d13585c9ad95d08195e1c1a5c995960921b6044820152606490fd5b15611c2657565b60405162461bcd60e51b81526020600482015260126024820152710416d6f756e74206d757374206265203e20360741b6044820152606490fd5b6008546118bb60095482611855565b6000546001600160a01b03163303611c8357565b63118cdaa760e01b6000523360045260246000fd5b60405163a9059cbb60e01b60208201526001600160a01b03929092166024830152604480830193909352918152611cd991611cd4606483611765565b611d1f565b565b6040516323b872dd60e01b60208201526001600160a01b039283166024820152929091166044830152606480830193909352918152611cd991611cd4608483611765565b906000602091828151910182855af115611aa0576000513d611d7157506001600160a01b0381163b155b611d505750565b635274afe760e01b60009081526001600160a01b0391909116600452602490fd5b60011415611d4956fe7adf19c920ce2e6ab865378ed1351c2323bb77bc208340a1482f9c1d3bb11a8bb10e2d527612073b26eecdfd717e6a320cf44b4afac2b0732d9fcbe2b7fa0cf6a2646970667358221220bce229063376b7671ace1461c719173d44db95e3a1979094c6ac26c60bfe98dd64736f6c634300081e0033a26469706673582212204387c717e967ee4f7a365a4e9bdcbd81dcd5498835e36f0af9f76d4eefe7857864736f6c634300081e0033",
  "linkReferences": {},
  "deployedLinkReferences": {}
}