{
  "_format": "hh-sol-artifact-1",
  "contractName": "BrimdexParimutuelMarket",
  "sourceName": "contracts/BrimdexParimutuelMarket.sol",
  "abi": [
    {
      "inputs": [
        {
          "internalType": "address",
          "name": "_collateralToken",
          "type": "address"
        },
        {
          "internalType": "address",
          "name": "_boundToken",
          "type": "address"
        },
        {
          "internalType": "address",
          "name": "_breakToken",
          "type": "address"
        },
        {
          "internalType": "address",
          "name": "_owner",
          "type": "address"
        },
        {
          "internalType": "address",
          "name": "_factory",
          "type": "address"
        }
      ],
      "stateMutability": "nonpayable",
      "type": "constructor"
    },
    {
      "inputs": [
        {
          "internalType": "address",
          "name": "owner",
          "type": "address"
        }
      ],
      "name": "OwnableInvalidOwner",
      "type": "error"
    },
    {
      "inputs": [
        {
          "internalType": "address",
          "name": "account",
          "type": "address"
        }
      ],
      "name": "OwnableUnauthorizedAccount",
      "type": "error"
    },
    {
      "inputs": [
        {
          "internalType": "address",
          "name": "token",
          "type": "address"
        }
      ],
      "name": "SafeERC20FailedOperation",
      "type": "error"
    },
    {
      "anonymous": false,
      "inputs": [
        {
          "indexed": true,
          "internalType": "address",
          "name": "buyer",
          "type": "address"
        },
        {
          "indexed": false,
          "internalType": "uint256",
          "name": "amount",
          "type": "uint256"
        },
        {
          "indexed": false,
          "internalType": "uint256",
          "name": "tokens",
          "type": "uint256"
        },
        {
          "indexed": false,
          "internalType": "uint256",
          "name": "price",
          "type": "uint256"
        }
      ],
      "name": "BoundPurchased",
      "type": "event"
    },
    {
      "anonymous": false,
      "inputs": [
        {
          "indexed": true,
          "internalType": "address",
          "name": "buyer",
          "type": "address"
        },
        {
          "indexed": false,
          "internalType": "uint256",
          "name": "amount",
          "type": "uint256"
        },
        {
          "indexed": false,
          "internalType": "uint256",
          "name": "tokens",
          "type": "uint256"
        },
        {
          "indexed": false,
          "internalType": "uint256",
          "name": "price",
          "type": "uint256"
        }
      ],
      "name": "BreakPurchased",
      "type": "event"
    },
    {
      "anonymous": false,
      "inputs": [
        {
          "indexed": false,
          "internalType": "string",
          "name": "name",
          "type": "string"
        },
        {
          "indexed": false,
          "internalType": "uint256",
          "name": "lowerBound",
          "type": "uint256"
        },
        {
          "indexed": false,
          "internalType": "uint256",
          "name": "upperBound",
          "type": "uint256"
        },
        {
          "indexed": false,
          "internalType": "uint256",
          "name": "expiryTimestamp",
          "type": "uint256"
        }
      ],
      "name": "MarketInitialized",
      "type": "event"
    },
    {
      "anonymous": false,
      "inputs": [
        {
          "indexed": false,
          "internalType": "bool",
          "name": "boundWins",
          "type": "bool"
        },
        {
          "indexed": false,
          "internalType": "uint256",
          "name": "totalPool",
          "type": "uint256"
        },
        {
          "indexed": false,
          "internalType": "uint256",
          "name": "winnings",
          "type": "uint256"
        }
      ],
      "name": "MarketSettled",
      "type": "event"
    },
    {
      "anonymous": false,
      "inputs": [
        {
          "indexed": true,
          "internalType": "address",
          "name": "previousOwner",
          "type": "address"
        },
        {
          "indexed": true,
          "internalType": "address",
          "name": "newOwner",
          "type": "address"
        }
      ],
      "name": "OwnershipTransferred",
      "type": "event"
    },
    {
      "anonymous": false,
      "inputs": [
        {
          "indexed": true,
          "internalType": "address",
          "name": "user",
          "type": "address"
        },
        {
          "indexed": false,
          "internalType": "uint256",
          "name": "tokens",
          "type": "uint256"
        },
        {
          "indexed": false,
          "internalType": "uint256",
          "name": "payout",
          "type": "uint256"
        }
      ],
      "name": "TokensRedeemed",
      "type": "event"
    },
    {
      "inputs": [],
      "name": "BOOTSTRAP_BOUND",
      "outputs": [
        {
          "internalType": "uint256",
          "name": "",
          "type": "uint256"
        }
      ],
      "stateMutability": "view",
      "type": "function"
    },
    {
      "inputs": [],
      "name": "BOOTSTRAP_BREAK",
      "outputs": [
        {
          "internalType": "uint256",
          "name": "",
          "type": "uint256"
        }
      ],
      "stateMutability": "view",
      "type": "function"
    },
    {
      "inputs": [],
      "name": "BPS_DENOMINATOR",
      "outputs": [
        {
          "internalType": "uint256",
          "name": "",
          "type": "uint256"
        }
      ],
      "stateMutability": "view",
      "type": "function"
    },
    {
      "inputs": [],
      "name": "FEE_BPS",
      "outputs": [
        {
          "internalType": "uint256",
          "name": "",
          "type": "uint256"
        }
      ],
      "stateMutability": "view",
      "type": "function"
    },
    {
      "inputs": [],
      "name": "boundPool",
      "outputs": [
        {
          "internalType": "uint256",
          "name": "",
          "type": "uint256"
        }
      ],
      "stateMutability": "view",
      "type": "function"
    },
    {
      "inputs": [],
      "name": "boundToken",
      "outputs": [
        {
          "internalType": "contract BrimdexParimutuelToken",
          "name": "",
          "type": "address"
        }
      ],
      "stateMutability": "view",
      "type": "function"
    },
    {
      "inputs": [],
      "name": "boundWins",
      "outputs": [
        {
          "internalType": "bool",
          "name": "",
          "type": "bool"
        }
      ],
      "stateMutability": "view",
      "type": "function"
    },
    {
      "inputs": [],
      "name": "breakPool",
      "outputs": [
        {
          "internalType": "uint256",
          "name": "",
          "type": "uint256"
        }
      ],
      "stateMutability": "view",
      "type": "function"
    },
    {
      "inputs": [],
      "name": "breakToken",
      "outputs": [
        {
          "internalType": "contract BrimdexParimutuelToken",
          "name": "",
          "type": "address"
        }
      ],
      "stateMutability": "view",
      "type": "function"
    },
    {
      "inputs": [
        {
          "internalType": "uint256",
          "name": "amount",
          "type": "uint256"
        }
      ],
      "name": "buyBound",
      "outputs": [],
      "stateMutability": "nonpayable",
      "type": "function"
    },
    {
      "inputs": [
        {
          "internalType": "uint256",
          "name": "amount",
          "type": "uint256"
        }
      ],
      "name": "buyBreak",
      "outputs": [],
      "stateMutability": "nonpayable",
      "type": "function"
    },
    {
      "inputs": [],
      "name": "collateralToken",
      "outputs": [
        {
          "internalType": "contract IERC20",
          "name": "",
          "type": "address"
        }
      ],
      "stateMutability": "view",
      "type": "function"
    },
    {
      "inputs": [],
      "name": "factory",
      "outputs": [
        {
          "internalType": "address",
          "name": "",
          "type": "address"
        }
      ],
      "stateMutability": "view",
      "type": "function"
    },
    {
      "inputs": [],
      "name": "getBoundPrice",
      "outputs": [
        {
          "internalType": "uint256",
          "name": "",
          "type": "uint256"
        }
      ],
      "stateMutability": "view",
      "type": "function"
    },
    {
      "inputs": [],
      "name": "getBreakPrice",
      "outputs": [
        {
          "internalType": "uint256",
          "name": "",
          "type": "uint256"
        }
      ],
      "stateMutability": "view",
      "type": "function"
    },
    {
      "inputs": [
        {
          "internalType": "bool",
          "name": "isBound",
          "type": "bool"
        },
        {
          "internalType": "uint256",
          "name": "tokens",
          "type": "uint256"
        }
      ],
      "name": "getEstimatedPayout",
      "outputs": [
        {
          "internalType": "uint256",
          "name": "",
          "type": "uint256"
        }
      ],
      "stateMutability": "view",
      "type": "function"
    },
    {
      "inputs": [
        {
          "internalType": "bool",
          "name": "isBound",
          "type": "bool"
        },
        {
          "internalType": "uint256",
          "name": "amount",
          "type": "uint256"
        }
      ],
      "name": "getEstimatedTokens",
      "outputs": [
        {
          "internalType": "uint256",
          "name": "",
          "type": "uint256"
        }
      ],
      "stateMutability": "view",
      "type": "function"
    },
    {
      "inputs": [
        {
          "internalType": "string",
          "name": "_name",
          "type": "string"
        },
        {
          "internalType": "uint256",
          "name": "_lowerBound",
          "type": "uint256"
        },
        {
          "internalType": "uint256",
          "name": "_upperBound",
          "type": "uint256"
        },
        {
          "internalType": "uint256",
          "name": "_expiryTimestamp",
          "type": "uint256"
        },
        {
          "internalType": "uint256",
          "name": "_startPrice",
          "type": "uint256"
        }
      ],
      "name": "initialize",
      "outputs": [],
      "stateMutability": "nonpayable",
      "type": "function"
    },
    {
      "inputs": [],
      "name": "marketConfig",
      "outputs": [
        {
          "internalType": "string",
          "name": "name",
          "type": "string"
        },
        {
          "internalType": "uint256",
          "name": "lowerBound",
          "type": "uint256"
        },
        {
          "internalType": "uint256",
          "name": "upperBound",
          "type": "uint256"
        },
        {
          "internalType": "uint256",
          "name": "expiryTimestamp",
          "type": "uint256"
        },
        {
          "internalType": "uint256",
          "name": "creationTimestamp",
          "type": "uint256"
        },
        {
          "internalType": "uint256",
          "name": "startPrice",
          "type": "uint256"
        },
        {
          "internalType": "bool",
          "name": "initialized",
          "type": "bool"
        },
        {
          "internalType": "bool",
          "name": "settled",
          "type": "bool"
        }
      ],
      "stateMutability": "view",
      "type": "function"
    },
    {
      "inputs": [],
      "name": "owner",
      "outputs": [
        {
          "internalType": "address",
          "name": "",
          "type": "address"
        }
      ],
      "stateMutability": "view",
      "type": "function"
    },
    {
      "inputs": [
        {
          "internalType": "bool",
          "name": "isBound",
          "type": "bool"
        },
        {
          "internalType": "uint256",
          "name": "amount",
          "type": "uint256"
        }
      ],
      "name": "redeem",
      "outputs": [],
      "stateMutability": "nonpayable",
      "type": "function"
    },
    {
      "inputs": [],
      "name": "redemptionRate",
      "outputs": [
        {
          "internalType": "uint256",
          "name": "",
          "type": "uint256"
        }
      ],
      "stateMutability": "view",
      "type": "function"
    },
    {
      "inputs": [],
      "name": "renounceOwnership",
      "outputs": [],
      "stateMutability": "nonpayable",
      "type": "function"
    },
    {
      "inputs": [
        {
          "internalType": "uint256",
          "name": "finalPrice",
          "type": "uint256"
        }
      ],
      "name": "settle",
      "outputs": [],
      "stateMutability": "nonpayable",
      "type": "function"
    },
    {
      "inputs": [
        {
          "internalType": "address",
          "name": "newOwner",
          "type": "address"
        }
      ],
      "name": "transferOwnership",
      "outputs": [],
      "stateMutability": "nonpayable",
      "type": "function"
    }
  ],
  "bytecode": "0x610100346101a557601f611fc538819003918201601f19168301916001600160401b038311848410176101aa5780849260a0946040528339810103126101a557610048816101c0565b90610055602082016101c0565b610061604083016101c0565b9061007a6080610073606086016101c0565b94016101c0565b6001600160a01b0390931693841561018f57600080546001600160a01b031981168717825560405196916001600160a01b03909116907f8be0079c531659141344cd1fd0a4f28419497f9722a3daafe3b4186f6b6457e09080a36001600160a01b0390811660805290811660a0521660c05260e052611df090816101d58239608051818181610232015281816106c7015281816108e501528181610a7301528181610be60152611272015260a0518181816101890152818161097901528181610b5b015281816112b00152818161171a0152611a12015260c0518181816103b60152818161075c01528181610cc101528181610ec5015281816113160152611ac2015260e05181818161086d01526111060152f35b631e4fbdf760e01b600052600060045260246000fd5b600080fd5b634e487b7160e01b600052604160045260246000fd5b51906001600160a01b03821682036101a55756fe608080604052600436101561001357600080fd5b600090813560e01c90816314445acd14611749575080631c787f8a146117045780631e7fea201461107d57806322069f821461106257806323c113dc14610f46578063295ce5e514610f2c5780632a3c59b414610f0e5780632c18234a146108525780633e4ff03a14610ef45780634c2ccf7414610eaf578063540385a314610e91578063715018a614610e375780638da5cb5b14610e105780638df8280014610aa2578063b2016bd414610a5d578063bf333f2c14610a41578063c3d3ad011461089c578063c45a015514610857578063c6d73b6d14610852578063ced2502c14610674578063e1a4521814610657578063f2fde38b146105cd578063f70e9066146105aa578063f8f6e9a2146105875763fb3c967f1461013457600080fd5b346105845761014236611818565b9060ff60075460081c161561055157600a541561051357610164821515611c1f565b156103975760ff600b54161561035e576040516370a0823160e01b81523360048201527f00000000000000000000000000000000000000000000000000000000000000006001600160a01b031690602081602481855afa80156103535783918591610319575b50106102df578083913b156102d05760405163079cc67960e41b8152336004820152602481018490529082908290604490829084905af180156102d4576102bb575b5050670de0b6b3a7640000610223600a5483611878565b045b801561028a5761025681337f0000000000000000000000000000000000000000000000000000000000000000611c98565b60405191825260208201527fd171fb179b26c49e23fe46eddd44d3048a1ad277b62144ac0725fbcf1dbf6d5260403392a280f35b60405162461bcd60e51b8152602060048201526009602482015268139bc81c185e5bdd5d60ba1b6044820152606490fd5b816102c591611765565b6102d057813861020c565b5080fd5b6040513d84823e3d90fd5b60405162461bcd60e51b8152602060048201526012602482015271125b9cdd59999a58da595b9d081093d5539160721b6044820152606490fd5b9150506020813d60201161034b575b8161033560209383611765565b8101031261034657829051386101ca565b600080fd5b3d9150610328565b6040513d86823e3d90fd5b60405162461bcd60e51b81526020600482015260116024820152702127aaa722103234b2103737ba103bb4b760791b6044820152606490fd5b60ff600b54166104da576040516370a0823160e01b81523360048201527f00000000000000000000000000000000000000000000000000000000000000006001600160a01b031690602081602481855afa801561035357839185916104a5575b501061046b578083913b156102d05760405163079cc67960e41b8152336004820152602481018490529082908290604490829084905af180156102d457610456575b5050670de0b6b3a7640000610450600a5483611878565b04610225565b8161046091611765565b6102d0578138610439565b60405162461bcd60e51b8152602060048201526012602482015271496e73756666696369656e7420425245414b60701b6044820152606490fd5b9150506020813d6020116104d2575b816104c160209383611765565b8101031261034657829051386103f7565b3d91506104b4565b60405162461bcd60e51b8152602060048201526011602482015270212922a0a5903234b2103737ba103bb4b760791b6044820152606490fd5b60405162461bcd60e51b8152602060048201526016602482015275139bc81c9959195b5c1d1a5bdb881c985d19481cd95d60521b6044820152606490fd5b60405162461bcd60e51b815260206004820152600b60248201526a139bdd081cd95d1d1b195960aa1b6044820152606490fd5b80fd5b503461058457806003193601126105845760206105a2611c60565b604051908152f35b5034610584578060031936011261058457602060ff600b54166040519015158152f35b5034610584576020366003190112610584576004356001600160a01b038116908190036102d0576105fc611c6f565b80156106435781546001600160a01b03198116821783556001600160a01b03167f8be0079c531659141344cd1fd0a4f28419497f9722a3daafe3b4186f6b6457e08380a380f35b631e4fbdf760e01b82526004829052602482fd5b503461058457806003193601126105845760206040516127108152f35b5034610584576020366003190112610584576004356106a660ff60075461069c828216611b67565b60081c1615611ba5565b6106b36004544210611be2565b80156106bf8115611c1f565b6106eb8230337f0000000000000000000000000000000000000000000000000000000000000000611cdb565b6008546106fb6009548092611855565b90670de0b6b3a7640000810290808204670de0b6b3a7640000149015171561083e57906107279161188b565b90670de0b6b3a7640000830290838204670de0b6b3a764000014171561082a576107578264e8d4a510009261188b565b0490837f00000000000000000000000000000000000000000000000000000000000000006001600160a01b0316803b156102d0576040516340c10f1960e01b8152336004820152602481018590529082908290604490829084905af180156102d457610811575b50507f3e76c10d8f0390ab59ba604608ca53dd4b0ec88e263c96e4070b3f3b7f36d92f916107ee84600954611855565b600955604080519485526020850191909152830152339180606081015b0390a280f35b8161081b91611765565b6108265783386107be565b8380fd5b634e487b7160e01b84526011600452602484fd5b634e487b7160e01b85526011600452602485fd5b611837565b50346105845780600319360112610584576040517f00000000000000000000000000000000000000000000000000000000000000006001600160a01b03168152602090f35b5034610584576020366003190112610584576004356108c460ff60075461069c828216611b67565b6108d16004544210611be2565b80156108dd8115611c1f565b6109098230337f0000000000000000000000000000000000000000000000000000000000000000611cdb565b60085461091860095482611855565b90670de0b6b3a7640000810290808204670de0b6b3a7640000149015171561083e57906109449161188b565b90670de0b6b3a7640000830290838204670de0b6b3a764000014171561082a576109748264e8d4a510009261188b565b0490837f00000000000000000000000000000000000000000000000000000000000000006001600160a01b0316803b156102d0576040516340c10f1960e01b8152336004820152602481018590529082908290604490829084905af180156102d457610a2c575b50507f3a0e536fe3b9046ba1af260950d928ecb66cd524b0fee6ccecd92cd94747a74091610a0b84600854611855565b6008556040805194855260208501919091528301523391806060810161080b565b81610a3691611765565b6108265783386109db565b5034610584578060031936011261058457602060405160c88152f35b50346105845780600319360112610584576040517f00000000000000000000000000000000000000000000000000000000000000006001600160a01b03168152602090f35b503461058457602036600319011261058457600435610abf611c6f565b600754610ace60ff8216611b67565b60ff8160081c16610dd9576004544210610da6576002548210159182610d97575b506101009060ff8019600b541693151516809317600b5561ff00191617600755610b1e60085460095490611855565b9060c8820282810460c8148315171561082a5761271090048083039183831161083e5715610cac576040516318160ddd60e01b81526020816004817f00000000000000000000000000000000000000000000000000000000000000006001600160a01b03165afa908115610ca1578591610c6f575b5080610c10575b5091606091600080516020611d7b833981519152935b80610bd4575b5060ff600b541691604051921515835260208301526040820152a180f35b8554610c0a91906001600160a01b03167f0000000000000000000000000000000000000000000000000000000000000000611c98565b38610bb6565b670de0b6b3a76400008302838104670de0b6b3a7640000148386141715610c5b5791610c4f60609492600080516020611d7b833981519152969461188b565b600a5591935091610b9a565b634e487b7160e01b86526011600452602486fd5b90506020813d602011610c99575b81610c8a60209383611765565b81010312610346575138610b93565b3d9150610c7d565b6040513d87823e3d90fd5b6040516318160ddd60e01b81526020816004817f00000000000000000000000000000000000000000000000000000000000000006001600160a01b03165afa908115610ca1578591610d65575b5080610d1a575b5091606091600080516020611d7b83398151915293610bb0565b670de0b6b3a76400008302838104670de0b6b3a7640000148386141715610c5b5791610d5960609492600080516020611d7b833981519152969461188b565b600a5591935091610d00565b90506020813d602011610d8f575b81610d8060209383611765565b81010312610346575138610cf9565b3d9150610d73565b60035410159150610100610aef565b60405162461bcd60e51b815260206004820152600b60248201526a139bdd08195e1c1a5c995960aa1b6044820152606490fd5b60405162461bcd60e51b815260206004820152600f60248201526e105b1c9958591e481cd95d1d1b1959608a1b6044820152606490fd5b5034610584578060031936011261058457546040516001600160a01b039091168152602090f35b5034610584578060031936011261058457610e50611c6f565b80546001600160a01b03198116825581906001600160a01b03167f8be0079c531659141344cd1fd0a4f28419497f9722a3daafe3b4186f6b6457e08280a380f35b50346105845780600319360112610584576020600a54604051908152f35b50346105845780600319360112610584576040517f00000000000000000000000000000000000000000000000000000000000000006001600160a01b03168152602090f35b50346105845760206105a2610f0836611818565b906119be565b50346105845780600319360112610584576020600854604051908152f35b50346105845760206105a2610f4036611818565b906118fc565b5034610584578060031936011261058457604051908060015490610f698261179d565b808552916001811690811561103b5750600114610ff0575b610fbd84610f9181860382611765565b60025460ff60035460045460055460065491600754936040519889986101008a526101008a01906117d7565b96602089015260408801526060870152608086015260a0850152818116151560c085015260081c16151560e08301520390f35b60018152600080516020611d9b833981519152939250905b80821061102157509091508101602001610f9182610f81565b919260018160209254838588010152019101909291611008565b60ff191660208087019190915292151560051b85019092019250610f919150839050610f81565b503461058457806003193601126105845760206105a26118ab565b50346105845760a03660031901126105845760043567ffffffffffffffff81116102d057366023820112156102d05780600401359067ffffffffffffffff82116116f0578290604051926110db6020601f19601f8401160185611765565b80845236602482840101116116ec5780602460209301838601378301015260643590602435604435337f00000000000000000000000000000000000000000000000000000000000000006001600160a01b03161480156116d9575b156116a35760ff60075416611668574284111561163257808210156115fc57825180151590816115f0575b50156115ab57604051610100810181811067ffffffffffffffff8211176115975760405283815260208101908382526040810183815260608201878152608083019042825260a0840192608435845260e060c08601956001875201958b8752895167ffffffffffffffff8111611583576111dc60015461179d565b8d601f8211611514575b5081905060208e6001601f8411146114a25791611497575b508160011b916000199060031b1c1916176001555b516002555160035551600455516005555160065551151560ff80196007541691161760075551151561ff006007549160081b169061ff001916176007556040516370a0823160e01b815230600482015260208160248160018060a01b037f0000000000000000000000000000000000000000000000000000000000000000165afa801561140d57869061145d575b6301312d0091501061141857847f00000000000000000000000000000000000000000000000000000000000000006001600160a01b0316803b156102d05781906044604051809481936340c10f1960e01b835261dead60048401526298968060248401525af1801561140d576113f9575b50847f00000000000000000000000000000000000000000000000000000000000000006001600160a01b0316803b156102d0578180916044604051809481936340c10f1960e01b835261dead60048401526298968060248401525af180156102d4576113da575b50927fed39e1c72aedc6b7c401cd26bf78ad00977be2331d1ac8766efa2be79994bd7492856113c49362989680600855629896806009556040519485946080865260808601906117d7565b926020850152604084015260608301520390a180f35b816113e89195949395611765565b6113f55790918438611379565b8480fd5b8561140691969296611765565b9338611312565b6040513d88823e3d90fd5b60405162461bcd60e51b815260206004820152601c60248201527f496e73756666696369656e7420626f6f7473747261702066756e6473000000006044820152606490fd5b506020813d60201161148f575b8161147760209383611765565b8101031261148b576301312d0090516112a1565b8580fd5b3d915061146a565b90508b0151386111fe565b60018152600080516020611d9b8339815191529250601f198416908e5b8282106114fb57505090836001949392106114e2575b5050811b01600155611213565b8d015160001960f88460031b161c1916905538806114d5565b600184956020939584930151815501940192018e6114bf565b60019052601f820160051c600080516020611d9b83398151915201906020831061156d575b601f8f910160051c600080516020611d9b83398151915201915b82811061156057506111e6565b6001918155018e90611553565b600080516020611d9b8339815191529150611539565b634e487b7160e01b8d52604160045260248dfd5b634e487b7160e01b87526041600452602487fd5b60405162461bcd60e51b815260206004820152601b60248201527f4e616d65206d75737420626520312d38206368617261637465727300000000006044820152606490fd5b60089150111538611161565b60405162461bcd60e51b815260206004820152600e60248201526d496e76616c696420626f756e647360901b6044820152606490fd5b60405162461bcd60e51b815260206004820152600e60248201526d496e76616c69642065787069727960901b6044820152606490fd5b60405162461bcd60e51b8152602060048201526013602482015272105b1c9958591e481a5b9a5d1a585b1a5e9959606a1b6044820152606490fd5b60405162461bcd60e51b815260206004820152600e60248201526d139bdd08185d5d1a1bdc9a5e995960921b6044820152606490fd5b5084546001600160a01b03163314611136565b8280fd5b634e487b7160e01b83526041600452602483fd5b50346105845780600319360112610584576040517f00000000000000000000000000000000000000000000000000000000000000006001600160a01b03168152602090f35b9050346102d057816003193601126102d0576020906009548152f35b90601f8019910116810190811067ffffffffffffffff82111761178757604052565b634e487b7160e01b600052604160045260246000fd5b90600182811c921680156117cd575b60208310146117b757565b634e487b7160e01b600052602260045260246000fd5b91607f16916117ac565b919082519283825260005b848110611803575050826000602080949584010152601f8019910116010190565b806020809284010151828286010152016117e2565b6040906003190112610346576004358015158103610346579060243590565b34610346576000366003190112610346576020604051629896808152f35b9190820180921161186257565b634e487b7160e01b600052601160045260246000fd5b8181029291811591840414171561186257565b8115611895570490565b634e487b7160e01b600052601260045260246000fd5b6008546118bb6009548092611855565b80156118ee57670de0b6b3a7640000820291808304670de0b6b3a76400001490151715611862576118eb9161188b565b90565b50506706f05b59d3b2000090565b6008549060095461190d8184611855565b9182156119a4571561197b5750670de0b6b3a7640000820291808304670de0b6b3a76400001490151715611862576119449161188b565b905b670de0b6b3a7640000810290808204670de0b6b3a764000014901517156118625764e8d4a51000916119779161188b565b0490565b670de0b6b3a7640000808202935081159184041417156118625761199e9161188b565b90611946565b505050508060011b90808204600214901517156118625790565b9060ff60075460081c16611b0e576119db60085460095490611855565b8015611a64576126488102908104612648036118625761271090049115611aac576040516318160ddd60e01b8152906020826004817f00000000000000000000000000000000000000000000000000000000000000006001600160a01b03165afa918215611aa057600092611a6c575b508115611a64576118eb92611a5f91611878565b61188b565b505050600090565b90916020823d602011611a98575b81611a8760209383611765565b810103126105845750519038611a4b565b3d9150611a7a565b6040513d6000823e3d90fd5b6040516318160ddd60e01b8152906020826004817f00000000000000000000000000000000000000000000000000000000000000006001600160a01b03165afa918215611aa057600092611a6c57508115611a64576118eb92611a5f91611878565b908080611b5a575b8115611b3e575b50611b285750600090565b611977670de0b6b3a764000091600a5490611878565b90501580611b4d575b38611b1d565b5060ff600b541615611b47565b600b5460ff169150611b16565b15611b6e57565b60405162461bcd60e51b815260206004820152600f60248201526e139bdd081a5b9a5d1a585b1a5e9959608a1b6044820152606490fd5b15611bac57565b60405162461bcd60e51b815260206004820152600e60248201526d13585c9ad95d081cd95d1d1b195960921b6044820152606490fd5b15611be957565b60405162461bcd60e51b815260206004820152600e60248201526d13585c9ad95d08195e1c1a5c995960921b6044820152606490fd5b15611c2657565b60405162461bcd60e51b81526020600482015260126024820152710416d6f756e74206d757374206265203e20360741b6044820152606490fd5b6008546118bb60095482611855565b6000546001600160a01b03163303611c8357565b63118cdaa760e01b6000523360045260246000fd5b60405163a9059cbb60e01b60208201526001600160a01b03929092166024830152604480830193909352918152611cd991611cd4606483611765565b611d1f565b565b6040516323b872dd60e01b60208201526001600160a01b039283166024820152929091166044830152606480830193909352918152611cd991611cd4608483611765565b906000602091828151910182855af115611aa0576000513d611d7157506001600160a01b0381163b155b611d505750565b635274afe760e01b60009081526001600160a01b0391909116600452602490fd5b60011415611d4956fe7adf19c920ce2e6ab865378ed1351c2323bb77bc208340a1482f9c1d3bb11a8bb10e2d527612073b26eecdfd717e6a320cf44b4afac2b0732d9fcbe2b7fa0cf6a2646970667358221220bce229063376b7671ace1461c719173d44db95e3a1979094c6ac26c60bfe98dd64736f6c634300081e0033",
  "linkReferences": {},
  "deployedLinkReferences": {}
}