{
  "_format": "hh-sol-artifact-1",
  "contractName": "BrimdexParimutuelToken",
  "sourceName": "contracts/BrimdexParimutuelToken.sol",
  "abi": [
    {
      "inputs": [
        {
          "internalType": "string",
          "name": "name",
          "type": "string"
        },
        {
          "internalType": "string",
          "name": "symbol",
          "type": "string"
        },
        {
          "internalType": "address",
          "name": "factoryAddress",
          "type": "address"
        }
      ],
      "stateMutability": "nonpayable",
      "type": "constructor"
    },
    {
      "inputs": [
        {
          "internalType": "address",
          "name": "spender",
          "type": "address"
        },
        {
          "internalType": "uint256",
          "name": "allowance",
          "type": "uint256"
        },
        {
          "internalType": "uint256",
          "name": "needed",
          "type": "uint256"
        }
      ],
      "name": "ERC20InsufficientAllowance",
      "type": "error"
    },
    {
      "inputs": [
        {
          "internalType": "address",
          "name": "sender",
          "type": "address"
        },
        {
          "internalType": "uint256",
          "name": "balance",
          "type": "uint256"
        },
        {
          "internalType": "uint256",
          "name": "needed",
          "type": "uint256"
        }
      ],
      "name": "ERC20InsufficientBalance",
      "type": "error"
    },
    {
      "inputs": [
        {
          "internalType": "address",
          "name": "approver",
          "type": "address"
        }
      ],
      "name": "ERC20InvalidApprover",
      "type": "error"
    },
    {
      "inputs": [
        {
          "internalType": "address",
          "name": "receiver",
          "type": "address"
        }
      ],
      "name": "ERC20InvalidReceiver",
      "type": "error"
    },
    {
      "inputs": [
        {
          "internalType": "address",
          "name": "sender",
          "type": "address"
        }
      ],
      "name": "ERC20InvalidSender",
      "type": "error"
    },
    {
      "inputs": [
        {
          "internalType": "address",
          "name": "spender",
          "type": "address"
        }
      ],
      "name": "ERC20InvalidSpender",
      "type": "error"
    },
    {
      "inputs": [
        {
          "internalType": "address",
          "name": "owner",
          "type": "address"
        }
      ],
      "name": "OwnableInvalidOwner",
      "type": "error"
    },
    {
      "inputs": [
        {
          "internalType": "address",
          "name": "account",
          "type": "address"
        }
      ],
      "name": "OwnableUnauthorizedAccount",
      "type": "error"
    },
    {
      "anonymous": false,
      "inputs": [
        {
          "indexed": true,
          "internalType": "address",
          "name": "owner",
          "type": "address"
        },
        {
          "indexed": true,
          "internalType": "address",
          "name": "spender",
          "type": "address"
        },
        {
          "indexed": false,
          "internalType": "uint256",
          "name": "value",
          "type": "uint256"
        }
      ],
      "name": "Approval",
      "type": "event"
    },
    {
      "anonymous": false,
      "inputs": [
        {
          "indexed": true,
          "internalType": "address",
          "name": "previousOwner",
          "type": "address"
        },
        {
          "indexed": true,
          "internalType": "address",
          "name": "newOwner",
          "type": "address"
        }
      ],
      "name": "OwnershipTransferred",
      "type": "event"
    },
    {
      "anonymous": false,
      "inputs": [
        {
          "indexed": true,
          "internalType": "address",
          "name": "from",
          "type": "address"
        },
        {
          "indexed": true,
          "internalType": "address",
          "name": "to",
          "type": "address"
        },
        {
          "indexed": false,
          "internalType": "uint256",
          "name": "value",
          "type": "uint256"
        }
      ],
      "name": "Transfer",
      "type": "event"
    },
    {
      "inputs": [
        {
          "internalType": "address",
          "name": "owner",
          "type": "address"
        },
        {
          "internalType": "address",
          "name": "spender",
          "type": "address"
        }
      ],
      "name": "allowance",
      "outputs": [
        {
          "internalType": "uint256",
          "name": "",
          "type": "uint256"
        }
      ],
      "stateMutability": "view",
      "type": "function"
    },
    {
      "inputs": [
        {
          "internalType": "address",
          "name": "spender",
          "type": "address"
        },
        {
          "internalType": "uint256",
          "name": "value",
          "type": "uint256"
        }
      ],
      "name": "approve",
      "outputs": [
        {
          "internalType": "bool",
          "name": "",
          "type": "bool"
        }
      ],
      "stateMutability": "nonpayable",
      "type": "function"
    },
    {
      "inputs": [
        {
          "internalType": "address",
          "name": "account",
          "type": "address"
        }
      ],
      "name": "balanceOf",
      "outputs": [
        {
          "internalType": "uint256",
          "name": "",
          "type": "uint256"
        }
      ],
      "stateMutability": "view",
      "type": "function"
    },
    {
      "inputs": [
        {
          "internalType": "address",
          "name": "from",
          "type": "address"
        },
        {
          "internalType": "uint256",
          "name": "amount",
          "type": "uint256"
        }
      ],
      "name": "burnFrom",
      "outputs": [],
      "stateMutability": "nonpayable",
      "type": "function"
    },
    {
      "inputs": [],
      "name": "decimals",
      "outputs": [
        {
          "internalType": "uint8",
          "name": "",
          "type": "uint8"
        }
      ],
      "stateMutability": "pure",
      "type": "function"
    },
    {
      "inputs": [
        {
          "internalType": "address",
          "name": "to",
          "type": "address"
        },
        {
          "internalType": "uint256",
          "name": "amount",
          "type": "uint256"
        }
      ],
      "name": "mint",
      "outputs": [],
      "stateMutability": "nonpayable",
      "type": "function"
    },
    {
      "inputs": [],
      "name": "name",
      "outputs": [
        {
          "internalType": "string",
          "name": "",
          "type": "string"
        }
      ],
      "stateMutability": "view",
      "type": "function"
    },
    {
      "inputs": [],
      "name": "owner",
      "outputs": [
        {
          "internalType": "address",
          "name": "",
          "type": "address"
        }
      ],
      "stateMutability": "view",
      "type": "function"
    },
    {
      "inputs": [],
      "name": "renounceOwnership",
      "outputs": [],
      "stateMutability": "nonpayable",
      "type": "function"
    },
    {
      "inputs": [],
      "name": "symbol",
      "outputs": [
        {
          "internalType": "string",
          "name": "",
          "type": "string"
        }
      ],
      "stateMutability": "view",
      "type": "function"
    },
    {
      "inputs": [],
      "name": "totalSupply",
      "outputs": [
        {
          "internalType": "uint256",
          "name": "",
          "type": "uint256"
        }
      ],
      "stateMutability": "view",
      "type": "function"
    },
    {
      "inputs": [
        {
          "internalType": "address",
          "name": "to",
          "type": "address"
        },
        {
          "internalType": "uint256",
          "name": "value",
          "type": "uint256"
        }
      ],
      "name": "transfer",
      "outputs": [
        {
          "internalType": "bool",
          "name": "",
          "type": "bool"
        }
      ],
      "stateMutability": "nonpayable",
      "type": "function"
    },
    {
      "inputs": [
        {
          "internalType": "address",
          "name": "from",
          "type": "address"
        },
        {
          "internalType": "address",
          "name": "to",
          "type": "address"
        },
        {
          "internalType": "uint256",
          "name": "value",
          "type": "uint256"
        }
      ],
      "name": "transferFrom",
      "outputs": [
        {
          "internalType": "bool",
          "name": "",
          "type": "bool"
        }
      ],
      "stateMutability": "nonpayable",
      "type": "function"
    },
    {
      "inputs": [
        {
          "internalType": "address",
          "name": "newOwner",
          "type": "address"
        }
      ],
      "name": "transferOwnership",
      "outputs": [],
      "stateMutability": "nonpayable",
      "type": "function"
    }
  ],
  "bytecode": "0x6080604052346103a057610d7a80380380610019816103a5565b9283398101906060818303126103a05780516001600160401b0381116103a057826100459183016103ca565b60208201519092906001600160401b0381116103a0576040916100699184016103ca565b9101516001600160a01b038116908190036103a05782516001600160401b0381116102a957600354600181811c91168015610396575b602082101461028957601f8111610331575b506020601f82116001146102ca57819293946000926102bf575b50508160011b916000199060031b1c1916176003555b81516001600160401b0381116102a957600454600181811c9116801561029f575b602082101461028957601f8111610224575b50602092601f82116001146101bf57928192936000926101b4575b50508160011b916000199060031b1c1916176004555b801561019e57600580546001600160a01b03198116831790915560405191906001600160a01b03167f8be0079c531659141344cd1fd0a4f28419497f9722a3daafe3b4186f6b6457e0600080a361094490816104368239f35b631e4fbdf760e01b600052600060045260246000fd5b01519050388061012f565b601f198216936004600052806000209160005b86811061020c57508360019596106101f3575b505050811b01600455610145565b015160001960f88460031b161c191690553880806101e5565b919260206001819286850151815501940192016101d2565b60046000527f8a35acfbc15ff81a39ae7d344fd709f28e8600b4aa8c65c6b64bfe7fe36bd19b601f830160051c8101916020841061027f575b601f0160051c01905b8181106102735750610114565b60008155600101610266565b909150819061025d565b634e487b7160e01b600052602260045260246000fd5b90607f1690610102565b634e487b7160e01b600052604160045260246000fd5b0151905038806100cb565b601f198216906003600052806000209160005b81811061031957509583600195969710610300575b505050811b016003556100e1565b015160001960f88460031b161c191690553880806102f2565b9192602060018192868b0151815501940192016102dd565b60036000527fc2575a0e9e593c00f959f8c92f12db2869c3395a3b0502d05e2516446f71f85b601f830160051c8101916020841061038c575b601f0160051c01905b81811061038057506100b1565b60008155600101610373565b909150819061036a565b90607f169061009f565b600080fd5b6040519190601f01601f191682016001600160401b038111838210176102a957604052565b81601f820112156103a0578051906001600160401b0382116102a9576103f9601f8301601f19166020016103a5565b92828452602083830101116103a05760005b82811061042057505060206000918301015290565b8060208092840101518282870101520161040b56fe608080604052600436101561001357600080fd5b60003560e01c90816306fdde031461065957508063095ea7b3146105a757806318160ddd1461058957806323b872dd14610551578063313ce5671461053557806340c10f191461048157806370a0823114610447578063715018a6146103ea57806379cc6790146103145780638da5cb5b146102eb57806395d89b41146101ca578063a9059cbb14610199578063dd62ed3e146101485763f2fde38b146100b957600080fd5b34610143576020366003190112610143576100d2610775565b6100da6108e5565b6001600160a01b0316801561012d57600580546001600160a01b0319811683179091556001600160a01b03167f8be0079c531659141344cd1fd0a4f28419497f9722a3daafe3b4186f6b6457e0600080a3005b631e4fbdf760e01b600052600060045260246000fd5b600080fd5b3461014357604036600319011261014357610161610775565b61016961078b565b6001600160a01b039182166000908152600160209081526040808320949093168252928352819020549051908152f35b34610143576040366003190112610143576101bf6101b5610775565b602435903361084c565b602060405160018152f35b346101435760003660031901126101435760405160006004548060011c906001811680156102e1575b6020831081146102cd578285529081156102b1575060011461025a575b50819003601f01601f191681019067ffffffffffffffff821181831017610244576102408291826040528261072c565b0390f35b634e487b7160e01b600052604160045260246000fd5b905060046000527f8a35acfbc15ff81a39ae7d344fd709f28e8600b4aa8c65c6b64bfe7fe36bd19b6000905b82821061029b57506020915082010182610210565b6001816020925483858801015201910190610286565b90506020925060ff191682840152151560051b82010182610210565b634e487b7160e01b84526022600452602484fd5b91607f16916101f3565b34610143576000366003190112610143576005546040516001600160a01b039091168152602090f35b346101435760403660031901126101435761032d610775565b6001600160a01b038116906024359081338490036103d8575b505081156103c2576000908282528160205260408220548181106103aa5760208285937fddf252ad1be2c89b69c2b068fc378daa952ba7f163c4a11628f55a4df523b3ef93869787528684520360408620558060025403600255604051908152a380f35b60649363391434e360e21b8452600452602452604452fd5b634b637e8f60e11b600052600060045260246000fd5b6103e39133906107a1565b8281610346565b34610143576000366003190112610143576104036108e5565b600580546001600160a01b031981169091556000906001600160a01b03167f8be0079c531659141344cd1fd0a4f28419497f9722a3daafe3b4186f6b6457e08280a3005b34610143576020366003190112610143576001600160a01b03610468610775565b1660005260006020526020604060002054604051908152f35b346101435760403660031901126101435761049a610775565b602435906104a66108e5565b6001600160a01b0316801561051f5760025491808301809311610509576020926002557fddf252ad1be2c89b69c2b068fc378daa952ba7f163c4a11628f55a4df523b3ef600093849284845283825260408420818154019055604051908152a380f35b634e487b7160e01b600052601160045260246000fd5b63ec442f0560e01b600052600060045260246000fd5b3461014357600036600319011261014357602060405160068152f35b34610143576060366003190112610143576101bf61056d610775565b61057561078b565b604435916105848333836107a1565b61084c565b34610143576000366003190112610143576020600254604051908152f35b34610143576040366003190112610143576105c0610775565b602435903315610643576001600160a01b031690811561062d57336000526001602052604060002082600052602052806040600020556040519081527f8c5be1e5ebec7d5bd14f71427d1e84f3dd0314c0f7b2291e5b200ac8c7c3b92560203392a3602060405160018152f35b634a1406b160e11b600052600060045260246000fd5b63e602df0560e01b600052600060045260246000fd5b346101435760003660031901126101435760006003548060011c90600181168015610722575b6020831081146102cd578285529081156102b157506001146106cb5750819003601f01601f191681019067ffffffffffffffff821181831017610244576102408291826040528261072c565b905060036000527fc2575a0e9e593c00f959f8c92f12db2869c3395a3b0502d05e2516446f71f85b6000905b82821061070c57506020915082010182610210565b60018160209254838588010152019101906106f7565b91607f169161067f565b91909160208152825180602083015260005b81811061075f575060409293506000838284010152601f8019910116010190565b806020809287010151604082860101520161073e565b600435906001600160a01b038216820361014357565b602435906001600160a01b038216820361014357565b6001600160a01b0390811660008181526001602090815260408083209486168352939052919091205492919060001984106107dd575b50505050565b828410610827578015610643576001600160a01b0382161561062d57600052600160205260406000209060018060a01b0316600052602052604060002091039055388080806107d7565b508290637dc7a0d960e11b60005260018060a01b031660045260245260445260646000fd5b6001600160a01b03169081156103c2576001600160a01b031691821561051f5760008281528060205260408120548281106108cb5791604082827fddf252ad1be2c89b69c2b068fc378daa952ba7f163c4a11628f55a4df523b3ef958760209652828652038282205586815280845220818154019055604051908152a3565b916064928463391434e360e21b8452600452602452604452fd5b6005546001600160a01b031633036108f957565b63118cdaa760e01b6000523360045260246000fdfea2646970667358221220fb8e7adeebb191bd6843b5f6fda7ee781ea4451136b33091cd59dfaacea8e32c64736f6c634300081e0033",
  "linkReferences": {},
  "deployedLinkReferences": {}
}